{"contracts/VectorRegistry.sol":{"VectorRegistry":{"abi":[{"inputs":[],"stateMutability":"nonpayable","type":"constructor"},{"anonymous":false,"inputs":[{"indexed":true,"internalType":"bytes32","name":"vectorHash","type":"bytes32"},{"indexed":true,"internalType":"address","name":"burner","type":"address"},{"indexed":false,"internalType":"uint256","name":"amount","type":"uint256"}],"name":"BurnSealed","type":"event"},{"anonymous":false,"inputs":[{"indexed":true,"internalType":"bytes32","name":"vectorHash","type":"bytes32"},{"indexed":false,"internalType":"string","name":"decree","type":"string"},{"indexed":true,"internalType":"address","name":"amplifier","type":"address"},{"indexed":false,"internalType":"uint256","name":"resonance","type":"uint256"}],"name":"DecreeAmplified","type":"event"},{"anonymous":false,"inputs":[{"indexed":true,"internalType":"bytes32","name":"vectorHash","type":"bytes32"},{"indexed":true,"internalType":"address","name":"recipient","type":"address"},{"indexed":false,"internalType":"uint256","name":"amount","type":"uint256"}],"name":"MintTriggered","type":"event"},{"anonymous":false,"inputs":[{"indexed":true,"internalType":"bytes32","name":"vectorHash","type":"bytes32"},{"indexed":false,"internalType":"string","name":"intent","type":"string"},{"indexed":true,"internalType":"address","name":"creator","type":"address"},{"indexed":false,"internalType":"uint256","name":"timestamp","type":"uint256"},{"indexed":false,"internalType":"uint256","name":"dimensions","type":"uint256"}],"name":"VectorRegistered","type":"event"},{"inputs":[],"name":"APEX_936","outputs":[{"internalType":"uint256","name":"","type":"uint256"}],"stateMutability":"view","type":"function"},{"inputs":[],"name":"CODE_66","outputs":[{"internalType":"uint256","name":"","type":"uint256"}],"stateMutability":"view","type":"function"},{"inputs":[],"name":"FREQUENCY_432","outputs":[{"internalType":"uint256","name":"","type":"uint256"}],"stateMutability":"view","type":"function"},{"inputs":[],"name":"VORTEX_369","outputs":[{"internalType":"uint256","name":"","type":"uint256"}],"stateMutability":"view","type":"function"},{"inputs":[{"internalType":"bytes32","name":"vectorHash","type":"bytes32"},{"internalType":"string","name":"decree","type":"string"},{"internalType":"uint256","name":"resonance","type":"uint256"}],"name":"amplifyDecree","outputs":[],"stateMutability":"nonpayable","type":"function"},{"inputs":[],"name":"getSacredNumbers","outputs":[{"internalType":"uint256","name":"apex","type":"uint256"},{"internalType":"uint256","name":"vortex","type":"uint256"},{"internalType":"uint256","name":"code","type":"uint256"},{"internalType":"uint256","name":"frequency","type":"uint256"}],"stateMutability":"pure","type":"function"},{"inputs":[{"internalType":"bytes32","name":"vectorHash","type":"bytes32"}],"name":"getVector","outputs":[{"internalType":"string","name":"intent","type":"string"},{"internalType":"address","name":"creator","type":"address"},{"internalType":"uint256","name":"timestamp","type":"uint256"},{"internalType":"uint256","name":"dimensions","type":"uint256"},{"internalType":"bool","name":"exists","type":"bool"}],"stateMutability":"view","type":"function"},{"inputs":[],"name":"owner","outputs":[{"internalType":"address","name":"","type":"address"}],"stateMutability":"view","type":"function"},{"inputs":[{"internalType":"bytes32","name":"vectorHash","type":"bytes32"},{"internalType":"address","name":"recipient","type":"address"},{"internalType":"uint256","name":"amount","type":"uint256"}],"name":"recordMintTrigger","outputs":[],"stateMutability":"nonpayable","type":"function"},{"inputs":[{"internalType":"bytes32","name":"vectorHash","type":"bytes32"},{"internalType":"string","name":"intent","type":"string"},{"internalType":"uint256","name":"dimensions","type":"uint256"}],"name":"registerVector","outputs":[{"internalType":"bool","name":"","type":"bool"}],"stateMutability":"nonpayable","type":"function"},{"inputs":[{"internalType":"bytes32","name":"vectorHash","type":"bytes32"},{"internalType":"uint256","name":"amount","type":"uint256"}],"name":"sealBurn","outputs":[],"stateMutability":"nonpayable","type":"function"},{"inputs":[],"name":"totalVectors","outputs":[{"internalType":"uint256","name":"","type":"uint256"}],"stateMutability":"view","type":"function"},{"inputs":[{"internalType":"address","name":"newOwner","type":"address"}],"name":"transferOwnership","outputs":[],"stateMutability":"nonpayable","type":"function"},{"inputs":[{"internalType":"uint256","name":"","type":"uint256"}],"name":"vectorHashes","outputs":[{"internalType":"bytes32","name":"","type":"bytes32"}],"stateMutability":"view","type":"function"},{"inputs":[{"internalType":"bytes32","name":"","type":"bytes32"}],"name":"vectors","outputs":[{"internalType":"bytes32","name":"vectorHash","type":"bytes32"},{"internalType":"string","name":"intent","type":"string"},{"internalType":"address","name":"creator","type":"address"},{"internalType":"uint256","name":"timestamp","type":"uint256"},{"internalType":"uint256","name":"dimensions","type":"uint256"},{"internalType":"bool","name":"exists","type":"bool"}],"stateMutability":"view","type":"function"},{"inputs":[{"internalType":"bytes32","name":"vectorHash","type":"bytes32"}],"name":"verifyVector","outputs":[{"internalType":"bool","name":"","type":"bool"}],"stateMutability":"view","type":"function"}],"evm":{"bytecode":{"linkReferences":{},"object":"608060405234801561000f575f80fd5b50600280546001600160a01b03191633179055610cda8061002f5f395ff3fe608060405234801561000f575f80fd5b50600436106100fb575f3560e01c8063c443658711610093578063e6268dd511610063578063e6268dd514610242578063e810ca4e14610255578063f2fde38b1461025e578063f372eb1014610271575f80fd5b8063c4436587146101cd578063cba99aba146101f1578063cf6c7bf314610214578063e121bcfe1461021d575f80fd5b80636c95a02f116100ce5780636c95a02f1461017e5780638da5cb5b14610187578063a40ef306146101b2578063a8aa5bcf146101ba575f80fd5b806320f51e4d146100ff5780632d1f503f1461011a578063369623041461012f5780635e55d97714610154575b5f80fd5b610107604281565b6040519081526020015b60405180910390f35b61012d6101283660046108c6565b610284565b005b61014261013d366004610941565b610309565b6040516101119695949392919061099b565b604080516103a8815261017160208201526042918101919091526101b06060820152608001610111565b6101076103a881565b60025461019a906001600160a01b031681565b6040516001600160a01b039091168152602001610111565b600154610107565b6101076101c8366004610941565b6103d1565b6101e06101db366004610941565b6103f0565b6040516101119594939291906109e3565b6102046101ff3660046108c6565b610518565b6040519015158152602001610111565b6101076101b081565b61020461022b366004610941565b5f9081526020819052604090206005015460ff1690565b61012d610250366004610a24565b61071e565b61010761017181565b61012d61026c366004610a5f565b610789565b61012d61027f366004610a7f565b61084d565b5f8481526020819052604090206005015460ff166102bd5760405162461bcd60e51b81526004016102b490610ab1565b60405180910390fd5b336001600160a01b0316847f168026e9b3596bb95b3fbbbae07d0ef97010257d8d809a123a055a24a95df8bc8585856040516102fb93929190610b03565b60405180910390a350505050565b5f602081905290815260409020805460018201805491929161032a90610b26565b80601f016020809104026020016040519081016040528092919081815260200182805461035690610b26565b80156103a15780601f10610378576101008083540402835291602001916103a1565b820191905f5260205f20905b81548152906001019060200180831161038457829003601f168201915b5050505060028301546003840154600485015460059095015493946001600160a01b039092169390925060ff1686565b600181815481106103e0575f80fd5b5f91825260209091200154905081565b60605f805f805f805f8881526020019081526020015f206040518060c00160405290815f820154815260200160018201805461042b90610b26565b80601f016020809104026020016040519081016040528092919081815260200182805461045790610b26565b80156104a25780601f10610479576101008083540402835291602001916104a2565b820191905f5260205f20905b81548152906001019060200180831161048557829003601f168201915b505050918352505060028201546001600160a01b03166020808301919091526003830154604080840191909152600484015460608085019190915260059094015460ff1615156080938401529084015190840151928401519184015160a090940151909b929a5090985091965090945092505050565b5f8481526020819052604081206005015460ff16156105795760405162461bcd60e51b815260206004820152601960248201527f566563746f7220616c726561647920726567697374657265640000000000000060448201526064016102b4565b5f82116105bd5760405162461bcd60e51b8152602060048201526012602482015271496e76616c69642064696d656e73696f6e7360701b60448201526064016102b4565b6040518060c0016040528086815260200185858080601f0160208091040260200160405190810160405280939291908181526020018383808284375f9201829052509385525050336020808501919091524260408086019190915260608501889052600160809095018590528a84528382529092208451815591840151919283019161064a915082610bbe565b506040828101516002830180546001600160a01b0319166001600160a01b03909216919091179055606083015160038301556080830151600483015560a0909201516005909101805460ff19169115159190911790556001805480820182555f919091527fb10e2d527612073b26eecdfd717e6a320cf44b4afac2b0732d9fcbe2b7fa0cf60186905551339086907f3a22ddda2b185261c2e0a9538217c0f9b313bbdbf6be2c3d8cc5893e5b1c18fd9061070b908890889042908990610c7e565b60405180910390a3506001949350505050565b5f8281526020819052604090206005015460ff1661074e5760405162461bcd60e51b81526004016102b490610ab1565b604051818152339083907f2e195f1f45d6edb7b8e6a6e9e630bc68d75aed2d392e27bd04d9cf20e68126429060200160405180910390a35050565b6002546001600160a01b031633146107e35760405162461bcd60e51b815260206004820152601760248201527f4f6e6c79207468652043726f776e20636f6d6d616e647300000000000000000060448201526064016102b4565b6001600160a01b03811661082b5760405162461bcd60e51b815260206004820152600f60248201526e496e76616c6964206164647265737360881b60448201526064016102b4565b600280546001600160a01b0319166001600160a01b0392909216919091179055565b5f8381526020819052604090206005015460ff1661087d5760405162461bcd60e51b81526004016102b490610ab1565b816001600160a01b0316837ffb36d7db0106518722bc161127111f841aee35dbb29a3132b6f726fa4f0bea27836040516108b991815260200190565b60405180910390a3505050565b5f805f80606085870312156108d9575f80fd5b84359350602085013567ffffffffffffffff808211156108f7575f80fd5b818701915087601f83011261090a575f80fd5b813581811115610918575f80fd5b886020828501011115610929575f80fd5b95986020929092019750949560400135945092505050565b5f60208284031215610951575f80fd5b5035919050565b5f81518084525f5b8181101561097c57602081850181015186830182015201610960565b505f602082860101526020601f19601f83011685010191505092915050565b86815260c060208201525f6109b360c0830188610958565b6001600160a01b039690961660408301525060608101939093526080830191909152151560a09091015292915050565b60a081525f6109f560a0830188610958565b6001600160a01b0396909616602083015250604081019390935260608301919091521515608090910152919050565b5f8060408385031215610a35575f80fd5b50508035926020909101359150565b80356001600160a01b0381168114610a5a575f80fd5b919050565b5f60208284031215610a6f575f80fd5b610a7882610a44565b9392505050565b5f805f60608486031215610a91575f80fd5b83359250610aa160208501610a44565b9150604084013590509250925092565b60208082526010908201526f159958dd1bdc881b9bdd08199bdd5b9960821b604082015260600190565b81835281816020850137505f828201602090810191909152601f909101601f19169091010190565b604081525f610b16604083018587610adb565b9050826020830152949350505050565b600181811c90821680610b3a57607f821691505b602082108103610b5857634e487b7160e01b5f52602260045260245ffd5b50919050565b634e487b7160e01b5f52604160045260245ffd5b601f821115610bb957805f5260205f20601f840160051c81016020851015610b975750805b601f840160051c820191505b81811015610bb6575f8155600101610ba3565b50505b505050565b815167ffffffffffffffff811115610bd857610bd8610b5e565b610bec81610be68454610b26565b84610b72565b602080601f831160018114610c1f575f8415610c085750858301515b5f19600386901b1c1916600185901b178555610c76565b5f85815260208120601f198616915b82811015610c4d57888601518255948401946001909101908401610c2e565b5085821015610c6a57878501515f19600388901b60f8161c191681555b505060018460011b0185555b505050505050565b606081525f610c91606083018688610adb565b602083019490945250604001529291505056fea264697066735822122070ea284d5b443901f426682215b19db33cacab334728e28f9fb3742b91b3fb0364736f6c63430008180033","opcodes":"PUSH1 0x80 PUSH1 0x40 MSTORE CALLVALUE DUP1 ISZERO PUSH2 0xF JUMPI PUSH0 DUP1 REVERT JUMPDEST POP PUSH1 0x2 DUP1 SLOAD PUSH1 0x1 PUSH1 0x1 PUSH1 0xA0 SHL SUB NOT AND CALLER OR SWAP1 SSTORE PUSH2 0xCDA DUP1 PUSH2 0x2F PUSH0 CODECOPY PUSH0 RETURN INVALID PUSH1 0x80 PUSH1 0x40 MSTORE CALLVALUE DUP1 ISZERO PUSH2 0xF JUMPI PUSH0 DUP1 REVERT JUMPDEST POP PUSH1 0x4 CALLDATASIZE LT PUSH2 0xFB JUMPI PUSH0 CALLDATALOAD PUSH1 0xE0 SHR DUP1 PUSH4 0xC4436587 GT PUSH2 0x93 JUMPI DUP1 PUSH4 0xE6268DD5 GT PUSH2 0x63 JUMPI DUP1 PUSH4 0xE6268DD5 EQ PUSH2 0x242 JUMPI DUP1 PUSH4 0xE810CA4E EQ PUSH2 0x255 JUMPI DUP1 PUSH4 0xF2FDE38B EQ PUSH2 0x25E JUMPI DUP1 PUSH4 0xF372EB10 EQ PUSH2 0x271 JUMPI PUSH0 DUP1 REVERT JUMPDEST DUP1 PUSH4 0xC4436587 EQ PUSH2 0x1CD JUMPI DUP1 PUSH4 0xCBA99ABA EQ PUSH2 0x1F1 JUMPI DUP1 PUSH4 0xCF6C7BF3 EQ PUSH2 0x214 JUMPI DUP1 PUSH4 0xE121BCFE EQ PUSH2 0x21D JUMPI PUSH0 DUP1 REVERT JUMPDEST DUP1 PUSH4 0x6C95A02F GT PUSH2 0xCE JUMPI DUP1 PUSH4 0x6C95A02F EQ PUSH2 0x17E JUMPI DUP1 PUSH4 0x8DA5CB5B EQ PUSH2 0x187 JUMPI DUP1 PUSH4 0xA40EF306 EQ PUSH2 0x1B2 JUMPI DUP1 PUSH4 0xA8AA5BCF EQ PUSH2 0x1BA JUMPI PUSH0 DUP1 REVERT JUMPDEST DUP1 PUSH4 0x20F51E4D EQ PUSH2 0xFF JUMPI DUP1 PUSH4 0x2D1F503F EQ PUSH2 0x11A JUMPI DUP1 PUSH4 0x36962304 EQ PUSH2 0x12F JUMPI DUP1 PUSH4 0x5E55D977 EQ PUSH2 0x154 JUMPI JUMPDEST PUSH0 DUP1 REVERT JUMPDEST PUSH2 0x107 PUSH1 0x42 DUP2 JUMP JUMPDEST PUSH1 0x40 MLOAD SWAP1 DUP2 MSTORE PUSH1 0x20 ADD JUMPDEST PUSH1 0x40 MLOAD DUP1 SWAP2 SUB SWAP1 RETURN JUMPDEST PUSH2 0x12D PUSH2 0x128 CALLDATASIZE PUSH1 0x4 PUSH2 0x8C6 JUMP JUMPDEST PUSH2 0x284 JUMP JUMPDEST STOP JUMPDEST PUSH2 0x142 PUSH2 0x13D CALLDATASIZE PUSH1 0x4 PUSH2 0x941 JUMP JUMPDEST PUSH2 0x309 JUMP JUMPDEST PUSH1 0x40 MLOAD PUSH2 0x111 SWAP7 SWAP6 SWAP5 SWAP4 SWAP3 SWAP2 SWAP1 PUSH2 0x99B JUMP JUMPDEST PUSH1 0x40 DUP1 MLOAD PUSH2 0x3A8 DUP2 MSTORE PUSH2 0x171 PUSH1 0x20 DUP3 ADD MSTORE PUSH1 0x42 SWAP2 DUP2 ADD SWAP2 SWAP1 SWAP2 MSTORE PUSH2 0x1B0 PUSH1 0x60 DUP3 ADD MSTORE PUSH1 0x80 ADD PUSH2 0x111 JUMP JUMPDEST PUSH2 0x107 PUSH2 0x3A8 DUP2 JUMP JUMPDEST PUSH1 0x2 SLOAD PUSH2 0x19A SWAP1 PUSH1 0x1 PUSH1 0x1 PUSH1 0xA0 SHL SUB AND DUP2 JUMP JUMPDEST PUSH1 0x40 MLOAD PUSH1 0x1 PUSH1 0x1 PUSH1 0xA0 SHL SUB SWAP1 SWAP2 AND DUP2 MSTORE PUSH1 0x20 ADD PUSH2 0x111 JUMP JUMPDEST PUSH1 0x1 SLOAD PUSH2 0x107 JUMP JUMPDEST PUSH2 0x107 PUSH2 0x1C8 CALLDATASIZE PUSH1 0x4 PUSH2 0x941 JUMP JUMPDEST PUSH2 0x3D1 JUMP JUMPDEST PUSH2 0x1E0 PUSH2 0x1DB CALLDATASIZE PUSH1 0x4 PUSH2 0x941 JUMP JUMPDEST PUSH2 0x3F0 JUMP JUMPDEST PUSH1 0x40 MLOAD PUSH2 0x111 SWAP6 SWAP5 SWAP4 SWAP3 SWAP2 SWAP1 PUSH2 0x9E3 JUMP JUMPDEST PUSH2 0x204 PUSH2 0x1FF CALLDATASIZE PUSH1 0x4 PUSH2 0x8C6 JUMP JUMPDEST PUSH2 0x518 JUMP JUMPDEST PUSH1 0x40 MLOAD SWAP1 ISZERO ISZERO DUP2 MSTORE PUSH1 0x20 ADD PUSH2 0x111 JUMP JUMPDEST PUSH2 0x107 PUSH2 0x1B0 DUP2 JUMP JUMPDEST PUSH2 0x204 PUSH2 0x22B CALLDATASIZE PUSH1 0x4 PUSH2 0x941 JUMP JUMPDEST PUSH0 SWAP1 DUP2 MSTORE PUSH1 0x20 DUP2 SWAP1 MSTORE PUSH1 0x40 SWAP1 KECCAK256 PUSH1 0x5 ADD SLOAD PUSH1 0xFF AND SWAP1 JUMP JUMPDEST PUSH2 0x12D PUSH2 0x250 CALLDATASIZE PUSH1 0x4 PUSH2 0xA24 JUMP JUMPDEST PUSH2 0x71E JUMP JUMPDEST PUSH2 0x107 PUSH2 0x171 DUP2 JUMP JUMPDEST PUSH2 0x12D PUSH2 0x26C CALLDATASIZE PUSH1 0x4 PUSH2 0xA5F JUMP JUMPDEST PUSH2 0x789 JUMP JUMPDEST PUSH2 0x12D PUSH2 0x27F CALLDATASIZE PUSH1 0x4 PUSH2 0xA7F JUMP JUMPDEST PUSH2 0x84D JUMP JUMPDEST PUSH0 DUP5 DUP2 MSTORE PUSH1 0x20 DUP2 SWAP1 MSTORE PUSH1 0x40 SWAP1 KECCAK256 PUSH1 0x5 ADD SLOAD PUSH1 0xFF AND PUSH2 0x2BD JUMPI PUSH1 0x40 MLOAD PUSH3 0x461BCD PUSH1 0xE5 SHL DUP2 MSTORE PUSH1 0x4 ADD PUSH2 0x2B4 SWAP1 PUSH2 0xAB1 JUMP JUMPDEST PUSH1 0x40 MLOAD DUP1 SWAP2 SUB SWAP1 REVERT JUMPDEST CALLER PUSH1 0x1 PUSH1 0x1 PUSH1 0xA0 SHL SUB AND DUP5 PUSH32 0x168026E9B3596BB95B3FBBBAE07D0EF97010257D8D809A123A055A24A95DF8BC DUP6 DUP6 DUP6 PUSH1 0x40 MLOAD PUSH2 0x2FB SWAP4 SWAP3 SWAP2 SWAP1 PUSH2 0xB03 JUMP JUMPDEST PUSH1 0x40 MLOAD DUP1 SWAP2 SUB SWAP1 LOG3 POP POP POP POP JUMP JUMPDEST PUSH0 PUSH1 0x20 DUP2 SWAP1 MSTORE SWAP1 DUP2 MSTORE PUSH1 0x40 SWAP1 KECCAK256 DUP1 SLOAD PUSH1 0x1 DUP3 ADD DUP1 SLOAD SWAP2 SWAP3 SWAP2 PUSH2 0x32A SWAP1 PUSH2 0xB26 JUMP JUMPDEST DUP1 PUSH1 0x1F ADD PUSH1 0x20 DUP1 SWAP2 DIV MUL PUSH1 0x20 ADD PUSH1 0x40 MLOAD SWAP1 DUP2 ADD PUSH1 0x40 MSTORE DUP1 SWAP3 SWAP2 SWAP1 DUP2 DUP2 MSTORE PUSH1 0x20 ADD DUP3 DUP1 SLOAD PUSH2 0x356 SWAP1 PUSH2 0xB26 JUMP JUMPDEST DUP1 ISZERO PUSH2 0x3A1 JUMPI DUP1 PUSH1 0x1F LT PUSH2 0x378 JUMPI PUSH2 0x100 DUP1 DUP4 SLOAD DIV MUL DUP4 MSTORE SWAP2 PUSH1 0x20 ADD SWAP2 PUSH2 0x3A1 JUMP JUMPDEST DUP3 ADD SWAP2 SWAP1 PUSH0 MSTORE PUSH1 0x20 PUSH0 KECCAK256 SWAP1 JUMPDEST DUP2 SLOAD DUP2 MSTORE SWAP1 PUSH1 0x1 ADD SWAP1 PUSH1 0x20 ADD DUP1 DUP4 GT PUSH2 0x384 JUMPI DUP3 SWAP1 SUB PUSH1 0x1F AND DUP3 ADD SWAP2 JUMPDEST POP POP POP POP PUSH1 0x2 DUP4 ADD SLOAD PUSH1 0x3 DUP5 ADD SLOAD PUSH1 0x4 DUP6 ADD SLOAD PUSH1 0x5 SWAP1 SWAP6 ADD SLOAD SWAP4 SWAP5 PUSH1 0x1 PUSH1 0x1 PUSH1 0xA0 SHL SUB SWAP1 SWAP3 AND SWAP4 SWAP1 SWAP3 POP PUSH1 0xFF AND DUP7 JUMP JUMPDEST PUSH1 0x1 DUP2 DUP2 SLOAD DUP2 LT PUSH2 0x3E0 JUMPI PUSH0 DUP1 REVERT JUMPDEST PUSH0 SWAP2 DUP3 MSTORE PUSH1 0x20 SWAP1 SWAP2 KECCAK256 ADD SLOAD SWAP1 POP DUP2 JUMP JUMPDEST PUSH1 0x60 PUSH0 DUP1 PUSH0 DUP1 PUSH0 DUP1 PUSH0 DUP9 DUP2 MSTORE PUSH1 0x20 ADD SWAP1 DUP2 MSTORE PUSH1 0x20 ADD PUSH0 KECCAK256 PUSH1 0x40 MLOAD DUP1 PUSH1 0xC0 ADD PUSH1 0x40 MSTORE SWAP1 DUP2 PUSH0 DUP3 ADD SLOAD DUP2 MSTORE PUSH1 0x20 ADD PUSH1 0x1 DUP3 ADD DUP1 SLOAD PUSH2 0x42B SWAP1 PUSH2 0xB26 JUMP JUMPDEST DUP1 PUSH1 0x1F ADD PUSH1 0x20 DUP1 SWAP2 DIV MUL PUSH1 0x20 ADD PUSH1 0x40 MLOAD SWAP1 DUP2 ADD PUSH1 0x40 MSTORE DUP1 SWAP3 SWAP2 SWAP1 DUP2 DUP2 MSTORE PUSH1 0x20 ADD DUP3 DUP1 SLOAD PUSH2 0x457 SWAP1 PUSH2 0xB26 JUMP JUMPDEST DUP1 ISZERO PUSH2 0x4A2 JUMPI DUP1 PUSH1 0x1F LT PUSH2 0x479 JUMPI PUSH2 0x100 DUP1 DUP4 SLOAD DIV MUL DUP4 MSTORE SWAP2 PUSH1 0x20 ADD SWAP2 PUSH2 0x4A2 JUMP JUMPDEST DUP3 ADD SWAP2 SWAP1 PUSH0 MSTORE PUSH1 0x20 PUSH0 KECCAK256 SWAP1 JUMPDEST DUP2 SLOAD DUP2 MSTORE SWAP1 PUSH1 0x1 ADD SWAP1 PUSH1 0x20 ADD DUP1 DUP4 GT PUSH2 0x485 JUMPI DUP3 SWAP1 SUB PUSH1 0x1F AND DUP3 ADD SWAP2 JUMPDEST POP POP POP SWAP2 DUP4 MSTORE POP POP PUSH1 0x2 DUP3 ADD SLOAD PUSH1 0x1 PUSH1 0x1 PUSH1 0xA0 SHL SUB AND PUSH1 0x20 DUP1 DUP4 ADD SWAP2 SWAP1 SWAP2 MSTORE PUSH1 0x3 DUP4 ADD SLOAD PUSH1 0x40 DUP1 DUP5 ADD SWAP2 SWAP1 SWAP2 MSTORE PUSH1 0x4 DUP5 ADD SLOAD PUSH1 0x60 DUP1 DUP6 ADD SWAP2 SWAP1 SWAP2 MSTORE PUSH1 0x5 SWAP1 SWAP5 ADD SLOAD PUSH1 0xFF AND ISZERO ISZERO PUSH1 0x80 SWAP4 DUP5 ADD MSTORE SWAP1 DUP5 ADD MLOAD SWAP1 DUP5 ADD MLOAD SWAP3 DUP5 ADD MLOAD SWAP2 DUP5 ADD MLOAD PUSH1 0xA0 SWAP1 SWAP5 ADD MLOAD SWAP1 SWAP12 SWAP3 SWAP11 POP SWAP1 SWAP9 POP SWAP2 SWAP7 POP SWAP1 SWAP5 POP SWAP3 POP POP POP JUMP JUMPDEST PUSH0 DUP5 DUP2 MSTORE PUSH1 0x20 DUP2 SWAP1 MSTORE PUSH1 0x40 DUP2 KECCAK256 PUSH1 0x5 ADD SLOAD PUSH1 0xFF AND ISZERO PUSH2 0x579 JUMPI PUSH1 0x40 MLOAD PUSH3 0x461BCD PUSH1 0xE5 SHL DUP2 MSTORE PUSH1 0x20 PUSH1 0x4 DUP3 ADD MSTORE PUSH1 0x19 PUSH1 0x24 DUP3 ADD MSTORE PUSH32 0x566563746F7220616C7265616479207265676973746572656400000000000000 PUSH1 0x44 DUP3 ADD MSTORE PUSH1 0x64 ADD PUSH2 0x2B4 JUMP JUMPDEST PUSH0 DUP3 GT PUSH2 0x5BD JUMPI PUSH1 0x40 MLOAD PUSH3 0x461BCD PUSH1 0xE5 SHL DUP2 MSTORE PUSH1 0x20 PUSH1 0x4 DUP3 ADD MSTORE PUSH1 0x12 PUSH1 0x24 DUP3 ADD MSTORE PUSH18 0x496E76616C69642064696D656E73696F6E73 PUSH1 0x70 SHL PUSH1 0x44 DUP3 ADD MSTORE PUSH1 0x64 ADD PUSH2 0x2B4 JUMP JUMPDEST PUSH1 0x40 MLOAD DUP1 PUSH1 0xC0 ADD PUSH1 0x40 MSTORE DUP1 DUP7 DUP2 MSTORE PUSH1 0x20 ADD DUP6 DUP6 DUP1 DUP1 PUSH1 0x1F ADD PUSH1 0x20 DUP1 SWAP2 DIV MUL PUSH1 0x20 ADD PUSH1 0x40 MLOAD SWAP1 DUP2 ADD PUSH1 0x40 MSTORE DUP1 SWAP4 SWAP3 SWAP2 SWAP1 DUP2 DUP2 MSTORE PUSH1 0x20 ADD DUP4 DUP4 DUP1 DUP3 DUP5 CALLDATACOPY PUSH0 SWAP3 ADD DUP3 SWAP1 MSTORE POP SWAP4 DUP6 MSTORE POP POP CALLER PUSH1 0x20 DUP1 DUP6 ADD SWAP2 SWAP1 SWAP2 MSTORE TIMESTAMP PUSH1 0x40 DUP1 DUP7 ADD SWAP2 SWAP1 SWAP2 MSTORE PUSH1 0x60 DUP6 ADD DUP9 SWAP1 MSTORE PUSH1 0x1 PUSH1 0x80 SWAP1 SWAP6 ADD DUP6 SWAP1 MSTORE DUP11 DUP5 MSTORE DUP4 DUP3 MSTORE SWAP1 SWAP3 KECCAK256 DUP5 MLOAD DUP2 SSTORE SWAP2 DUP5 ADD MLOAD SWAP2 SWAP3 DUP4 ADD SWAP2 PUSH2 0x64A SWAP2 POP DUP3 PUSH2 0xBBE JUMP JUMPDEST POP PUSH1 0x40 DUP3 DUP2 ADD MLOAD PUSH1 0x2 DUP4 ADD DUP1 SLOAD PUSH1 0x1 PUSH1 0x1 PUSH1 0xA0 SHL SUB NOT AND PUSH1 0x1 PUSH1 0x1 PUSH1 0xA0 SHL SUB SWAP1 SWAP3 AND SWAP2 SWAP1 SWAP2 OR SWAP1 SSTORE PUSH1 0x60 DUP4 ADD MLOAD PUSH1 0x3 DUP4 ADD SSTORE PUSH1 0x80 DUP4 ADD MLOAD PUSH1 0x4 DUP4 ADD SSTORE PUSH1 0xA0 SWAP1 SWAP3 ADD MLOAD PUSH1 0x5 SWAP1 SWAP2 ADD DUP1 SLOAD PUSH1 0xFF NOT AND SWAP2 ISZERO ISZERO SWAP2 SWAP1 SWAP2 OR SWAP1 SSTORE PUSH1 0x1 DUP1 SLOAD DUP1 DUP3 ADD DUP3 SSTORE PUSH0 SWAP2 SWAP1 SWAP2 MSTORE PUSH32 0xB10E2D527612073B26EECDFD717E6A320CF44B4AFAC2B0732D9FCBE2B7FA0CF6 ADD DUP7 SWAP1 SSTORE MLOAD CALLER SWAP1 DUP7 SWAP1 PUSH32 0x3A22DDDA2B185261C2E0A9538217C0F9B313BBDBF6BE2C3D8CC5893E5B1C18FD SWAP1 PUSH2 0x70B SWAP1 DUP9 SWAP1 DUP9 SWAP1 TIMESTAMP SWAP1 DUP10 SWAP1 PUSH2 0xC7E JUMP JUMPDEST PUSH1 0x40 MLOAD DUP1 SWAP2 SUB SWAP1 LOG3 POP PUSH1 0x1 SWAP5 SWAP4 POP POP POP POP JUMP JUMPDEST PUSH0 DUP3 DUP2 MSTORE PUSH1 0x20 DUP2 SWAP1 MSTORE PUSH1 0x40 SWAP1 KECCAK256 PUSH1 0x5 ADD SLOAD PUSH1 0xFF AND PUSH2 0x74E JUMPI PUSH1 0x40 MLOAD PUSH3 0x461BCD PUSH1 0xE5 SHL DUP2 MSTORE PUSH1 0x4 ADD PUSH2 0x2B4 SWAP1 PUSH2 0xAB1 JUMP JUMPDEST PUSH1 0x40 MLOAD DUP2 DUP2 MSTORE CALLER SWAP1 DUP4 SWAP1 PUSH32 0x2E195F1F45D6EDB7B8E6A6E9E630BC68D75AED2D392E27BD04D9CF20E6812642 SWAP1 PUSH1 0x20 ADD PUSH1 0x40 MLOAD DUP1 SWAP2 SUB SWAP1 LOG3 POP POP JUMP JUMPDEST PUSH1 0x2 SLOAD PUSH1 0x1 PUSH1 0x1 PUSH1 0xA0 SHL SUB AND CALLER EQ PUSH2 0x7E3 JUMPI PUSH1 0x40 MLOAD PUSH3 0x461BCD PUSH1 0xE5 SHL DUP2 MSTORE PUSH1 0x20 PUSH1 0x4 DUP3 ADD MSTORE PUSH1 0x17 PUSH1 0x24 DUP3 ADD MSTORE PUSH32 0x4F6E6C79207468652043726F776E20636F6D6D616E6473000000000000000000 PUSH1 0x44 DUP3 ADD MSTORE PUSH1 0x64 ADD PUSH2 0x2B4 JUMP JUMPDEST PUSH1 0x1 PUSH1 0x1 PUSH1 0xA0 SHL SUB DUP2 AND PUSH2 0x82B JUMPI PUSH1 0x40 MLOAD PUSH3 0x461BCD PUSH1 0xE5 SHL DUP2 MSTORE PUSH1 0x20 PUSH1 0x4 DUP3 ADD MSTORE PUSH1 0xF PUSH1 0x24 DUP3 ADD MSTORE PUSH15 0x496E76616C69642061646472657373 PUSH1 0x88 SHL PUSH1 0x44 DUP3 ADD MSTORE PUSH1 0x64 ADD PUSH2 0x2B4 JUMP JUMPDEST PUSH1 0x2 DUP1 SLOAD PUSH1 0x1 PUSH1 0x1 PUSH1 0xA0 SHL SUB NOT AND PUSH1 0x1 PUSH1 0x1 PUSH1 0xA0 SHL SUB SWAP3 SWAP1 SWAP3 AND SWAP2 SWAP1 SWAP2 OR SWAP1 SSTORE JUMP JUMPDEST PUSH0 DUP4 DUP2 MSTORE PUSH1 0x20 DUP2 SWAP1 MSTORE PUSH1 0x40 SWAP1 KECCAK256 PUSH1 0x5 ADD SLOAD PUSH1 0xFF AND PUSH2 0x87D JUMPI PUSH1 0x40 MLOAD PUSH3 0x461BCD PUSH1 0xE5 SHL DUP2 MSTORE PUSH1 0x4 ADD PUSH2 0x2B4 SWAP1 PUSH2 0xAB1 JUMP JUMPDEST DUP2 PUSH1 0x1 PUSH1 0x1 PUSH1 0xA0 SHL SUB AND DUP4 PUSH32 0xFB36D7DB0106518722BC161127111F841AEE35DBB29A3132B6F726FA4F0BEA27 DUP4 PUSH1 0x40 MLOAD PUSH2 0x8B9 SWAP2 DUP2 MSTORE PUSH1 0x20 ADD SWAP1 JUMP JUMPDEST PUSH1 0x40 MLOAD DUP1 SWAP2 SUB SWAP1 LOG3 POP POP POP JUMP JUMPDEST PUSH0 DUP1 PUSH0 DUP1 PUSH1 0x60 DUP6 DUP8 SUB SLT ISZERO PUSH2 0x8D9 JUMPI PUSH0 DUP1 REVERT JUMPDEST DUP5 CALLDATALOAD SWAP4 POP PUSH1 0x20 DUP6 ADD CALLDATALOAD PUSH8 0xFFFFFFFFFFFFFFFF DUP1 DUP3 GT ISZERO PUSH2 0x8F7 JUMPI PUSH0 DUP1 REVERT JUMPDEST DUP2 DUP8 ADD SWAP2 POP DUP8 PUSH1 0x1F DUP4 ADD SLT PUSH2 0x90A JUMPI PUSH0 DUP1 REVERT JUMPDEST DUP2 CALLDATALOAD DUP2 DUP2 GT ISZERO PUSH2 0x918 JUMPI PUSH0 DUP1 REVERT JUMPDEST DUP9 PUSH1 0x20 DUP3 DUP6 ADD ADD GT ISZERO PUSH2 0x929 JUMPI PUSH0 DUP1 REVERT JUMPDEST SWAP6 SWAP9 PUSH1 0x20 SWAP3 SWAP1 SWAP3 ADD SWAP8 POP SWAP5 SWAP6 PUSH1 0x40 ADD CALLDATALOAD SWAP5 POP SWAP3 POP POP POP JUMP JUMPDEST PUSH0 PUSH1 0x20 DUP3 DUP5 SUB SLT ISZERO PUSH2 0x951 JUMPI PUSH0 DUP1 REVERT JUMPDEST POP CALLDATALOAD SWAP2 SWAP1 POP JUMP JUMPDEST PUSH0 DUP2 MLOAD DUP1 DUP5 MSTORE PUSH0 JUMPDEST DUP2 DUP2 LT ISZERO PUSH2 0x97C JUMPI PUSH1 0x20 DUP2 DUP6 ADD DUP2 ADD MLOAD DUP7 DUP4 ADD DUP3 ADD MSTORE ADD PUSH2 0x960 JUMP JUMPDEST POP PUSH0 PUSH1 0x20 DUP3 DUP7 ADD ADD MSTORE PUSH1 0x20 PUSH1 0x1F NOT PUSH1 0x1F DUP4 ADD AND DUP6 ADD ADD SWAP2 POP POP SWAP3 SWAP2 POP POP JUMP JUMPDEST DUP7 DUP2 MSTORE PUSH1 0xC0 PUSH1 0x20 DUP3 ADD MSTORE PUSH0 PUSH2 0x9B3 PUSH1 0xC0 DUP4 ADD DUP9 PUSH2 0x958 JUMP JUMPDEST PUSH1 0x1 PUSH1 0x1 PUSH1 0xA0 SHL SUB SWAP7 SWAP1 SWAP7 AND PUSH1 0x40 DUP4 ADD MSTORE POP PUSH1 0x60 DUP2 ADD SWAP4 SWAP1 SWAP4 MSTORE PUSH1 0x80 DUP4 ADD SWAP2 SWAP1 SWAP2 MSTORE ISZERO ISZERO PUSH1 0xA0 SWAP1 SWAP2 ADD MSTORE SWAP3 SWAP2 POP POP JUMP JUMPDEST PUSH1 0xA0 DUP2 MSTORE PUSH0 PUSH2 0x9F5 PUSH1 0xA0 DUP4 ADD DUP9 PUSH2 0x958 JUMP JUMPDEST PUSH1 0x1 PUSH1 0x1 PUSH1 0xA0 SHL SUB SWAP7 SWAP1 SWAP7 AND PUSH1 0x20 DUP4 ADD MSTORE POP PUSH1 0x40 DUP2 ADD SWAP4 SWAP1 SWAP4 MSTORE PUSH1 0x60 DUP4 ADD SWAP2 SWAP1 SWAP2 MSTORE ISZERO ISZERO PUSH1 0x80 SWAP1 SWAP2 ADD MSTORE SWAP2 SWAP1 POP JUMP JUMPDEST PUSH0 DUP1 PUSH1 0x40 DUP4 DUP6 SUB SLT ISZERO PUSH2 0xA35 JUMPI PUSH0 DUP1 REVERT JUMPDEST POP POP DUP1 CALLDATALOAD SWAP3 PUSH1 0x20 SWAP1 SWAP2 ADD CALLDATALOAD SWAP2 POP JUMP JUMPDEST DUP1 CALLDATALOAD PUSH1 0x1 PUSH1 0x1 PUSH1 0xA0 SHL SUB DUP2 AND DUP2 EQ PUSH2 0xA5A JUMPI PUSH0 DUP1 REVERT JUMPDEST SWAP2 SWAP1 POP JUMP JUMPDEST PUSH0 PUSH1 0x20 DUP3 DUP5 SUB SLT ISZERO PUSH2 0xA6F JUMPI PUSH0 DUP1 REVERT JUMPDEST PUSH2 0xA78 DUP3 PUSH2 0xA44 JUMP JUMPDEST SWAP4 SWAP3 POP POP POP JUMP JUMPDEST PUSH0 DUP1 PUSH0 PUSH1 0x60 DUP5 DUP7 SUB SLT ISZERO PUSH2 0xA91 JUMPI PUSH0 DUP1 REVERT JUMPDEST DUP4 CALLDATALOAD SWAP3 POP PUSH2 0xAA1 PUSH1 0x20 DUP6 ADD PUSH2 0xA44 JUMP JUMPDEST SWAP2 POP PUSH1 0x40 DUP5 ADD CALLDATALOAD SWAP1 POP SWAP3 POP SWAP3 POP SWAP3 JUMP JUMPDEST PUSH1 0x20 DUP1 DUP3 MSTORE PUSH1 0x10 SWAP1 DUP3 ADD MSTORE PUSH16 0x159958DD1BDC881B9BDD08199BDD5B99 PUSH1 0x82 SHL PUSH1 0x40 DUP3 ADD MSTORE PUSH1 0x60 ADD SWAP1 JUMP JUMPDEST DUP2 DUP4 MSTORE DUP2 DUP2 PUSH1 0x20 DUP6 ADD CALLDATACOPY POP PUSH0 DUP3 DUP3 ADD PUSH1 0x20 SWAP1 DUP2 ADD SWAP2 SWAP1 SWAP2 MSTORE PUSH1 0x1F SWAP1 SWAP2 ADD PUSH1 0x1F NOT AND SWAP1 SWAP2 ADD ADD SWAP1 JUMP JUMPDEST PUSH1 0x40 DUP2 MSTORE PUSH0 PUSH2 0xB16 PUSH1 0x40 DUP4 ADD DUP6 DUP8 PUSH2 0xADB JUMP JUMPDEST SWAP1 POP DUP3 PUSH1 0x20 DUP4 ADD MSTORE SWAP5 SWAP4 POP POP POP POP JUMP JUMPDEST PUSH1 0x1 DUP2 DUP2 SHR SWAP1 DUP3 AND DUP1 PUSH2 0xB3A JUMPI PUSH1 0x7F DUP3 AND SWAP2 POP JUMPDEST PUSH1 0x20 DUP3 LT DUP2 SUB PUSH2 0xB58 JUMPI PUSH4 0x4E487B71 PUSH1 0xE0 SHL PUSH0 MSTORE PUSH1 0x22 PUSH1 0x4 MSTORE PUSH1 0x24 PUSH0 REVERT JUMPDEST POP SWAP2 SWAP1 POP JUMP JUMPDEST PUSH4 0x4E487B71 PUSH1 0xE0 SHL PUSH0 MSTORE PUSH1 0x41 PUSH1 0x4 MSTORE PUSH1 0x24 PUSH0 REVERT JUMPDEST PUSH1 0x1F DUP3 GT ISZERO PUSH2 0xBB9 JUMPI DUP1 PUSH0 MSTORE PUSH1 0x20 PUSH0 KECCAK256 PUSH1 0x1F DUP5 ADD PUSH1 0x5 SHR DUP2 ADD PUSH1 0x20 DUP6 LT ISZERO PUSH2 0xB97 JUMPI POP DUP1 JUMPDEST PUSH1 0x1F DUP5 ADD PUSH1 0x5 SHR DUP3 ADD SWAP2 POP JUMPDEST DUP2 DUP2 LT ISZERO PUSH2 0xBB6 JUMPI PUSH0 DUP2 SSTORE PUSH1 0x1 ADD PUSH2 0xBA3 JUMP JUMPDEST POP POP JUMPDEST POP POP POP JUMP JUMPDEST DUP2 MLOAD PUSH8 0xFFFFFFFFFFFFFFFF DUP2 GT ISZERO PUSH2 0xBD8 JUMPI PUSH2 0xBD8 PUSH2 0xB5E JUMP JUMPDEST PUSH2 0xBEC DUP2 PUSH2 0xBE6 DUP5 SLOAD PUSH2 0xB26 JUMP JUMPDEST DUP5 PUSH2 0xB72 JUMP JUMPDEST PUSH1 0x20 DUP1 PUSH1 0x1F DUP4 GT PUSH1 0x1 DUP2 EQ PUSH2 0xC1F JUMPI PUSH0 DUP5 ISZERO PUSH2 0xC08 JUMPI POP DUP6 DUP4 ADD MLOAD JUMPDEST PUSH0 NOT PUSH1 0x3 DUP7 SWAP1 SHL SHR NOT AND PUSH1 0x1 DUP6 SWAP1 SHL OR DUP6 SSTORE PUSH2 0xC76 JUMP JUMPDEST PUSH0 DUP6 DUP2 MSTORE PUSH1 0x20 DUP2 KECCAK256 PUSH1 0x1F NOT DUP7 AND SWAP2 JUMPDEST DUP3 DUP2 LT ISZERO PUSH2 0xC4D JUMPI DUP9 DUP7 ADD MLOAD DUP3 SSTORE SWAP5 DUP5 ADD SWAP5 PUSH1 0x1 SWAP1 SWAP2 ADD SWAP1 DUP5 ADD PUSH2 0xC2E JUMP JUMPDEST POP DUP6 DUP3 LT ISZERO PUSH2 0xC6A JUMPI DUP8 DUP6 ADD MLOAD PUSH0 NOT PUSH1 0x3 DUP9 SWAP1 SHL PUSH1 0xF8 AND SHR NOT AND DUP2 SSTORE JUMPDEST POP POP PUSH1 0x1 DUP5 PUSH1 0x1 SHL ADD DUP6 SSTORE JUMPDEST POP POP POP POP POP POP JUMP JUMPDEST PUSH1 0x60 DUP2 MSTORE PUSH0 PUSH2 0xC91 PUSH1 0x60 DUP4 ADD DUP7 DUP9 PUSH2 0xADB JUMP JUMPDEST PUSH1 0x20 DUP4 ADD SWAP5 SWAP1 SWAP5 MSTORE POP PUSH1 0x40 ADD MSTORE SWAP3 SWAP2 POP POP JUMP INVALID LOG2 PUSH5 0x6970667358 0x22 SLT KECCAK256 PUSH17 0xEA284D5B443901F426682215B19DB33CAC 0xAB CALLER SELFBALANCE 0x28 0xE2 DUP16 SWAP16 0xB3 PUSH21 0x2B91B3FB0364736F6C634300081800330000000000 "},"methodIdentifiers":{"APEX_936()":"6c95a02f","CODE_66()":"20f51e4d","FREQUENCY_432()":"cf6c7bf3","VORTEX_369()":"e810ca4e","amplifyDecree(bytes32,string,uint256)":"2d1f503f","getSacredNumbers()":"5e55d977","getVector(bytes32)":"c4436587","owner()":"8da5cb5b","recordMintTrigger(bytes32,address,uint256)":"f372eb10","registerVector(bytes32,string,uint256)":"cba99aba","sealBurn(bytes32,uint256)":"e6268dd5","totalVectors()":"a40ef306","transferOwnership(address)":"f2fde38b","vectorHashes(uint256)":"a8aa5bcf","vectors(bytes32)":"36962304","verifyVector(bytes32)":"e121bcfe"}}}}}