{"contracts/VectorMinter.sol":{"VectorMinter":{"abi":[{"inputs":[{"internalType":"address","name":"_vectorRegistry","type":"address"},{"internalType":"address","name":"_xmoney","type":"address"},{"internalType":"address","name":"trustedForwarder","type":"address"}],"stateMutability":"nonpayable","type":"constructor"},{"inputs":[{"internalType":"address","name":"owner","type":"address"}],"name":"OwnableInvalidOwner","type":"error"},{"inputs":[{"internalType":"address","name":"account","type":"address"}],"name":"OwnableUnauthorizedAccount","type":"error"},{"inputs":[],"name":"ReentrancyGuardReentrantCall","type":"error"},{"anonymous":false,"inputs":[{"indexed":false,"internalType":"uint256","name":"baseReward","type":"uint256"},{"indexed":false,"internalType":"uint256","name":"dimensionMultiplier","type":"uint256"},{"indexed":false,"internalType":"bool","name":"mintingEnabled","type":"bool"},{"indexed":false,"internalType":"bool","name":"burningEnabled","type":"bool"}],"name":"ConfigUpdated","type":"event"},{"anonymous":false,"inputs":[{"indexed":true,"internalType":"address","name":"previousOwner","type":"address"},{"indexed":true,"internalType":"address","name":"newOwner","type":"address"}],"name":"OwnershipTransferred","type":"event"},{"anonymous":false,"inputs":[{"indexed":true,"internalType":"bytes32","name":"vectorHash","type":"bytes32"},{"indexed":true,"internalType":"address","name":"burner","type":"address"},{"indexed":false,"internalType":"uint256","name":"amount","type":"uint256"},{"indexed":false,"internalType":"uint256","name":"timestamp","type":"uint256"}],"name":"VectorBurned","type":"event"},{"anonymous":false,"inputs":[{"indexed":true,"internalType":"bytes32","name":"vectorHash","type":"bytes32"},{"indexed":true,"internalType":"address","name":"recipient","type":"address"},{"indexed":false,"internalType":"uint256","name":"amount","type":"uint256"},{"indexed":false,"internalType":"uint256","name":"dimensions","type":"uint256"},{"indexed":false,"internalType":"uint256","name":"timestamp","type":"uint256"}],"name":"VectorMinted","type":"event"},{"inputs":[],"name":"APEX_936","outputs":[{"internalType":"uint256","name":"","type":"uint256"}],"stateMutability":"view","type":"function"},{"inputs":[],"name":"CODE_66","outputs":[{"internalType":"uint256","name":"","type":"uint256"}],"stateMutability":"view","type":"function"},{"inputs":[],"name":"FREQUENCY_432","outputs":[{"internalType":"uint256","name":"","type":"uint256"}],"stateMutability":"view","type":"function"},{"inputs":[],"name":"VORTEX_369","outputs":[{"internalType":"uint256","name":"","type":"uint256"}],"stateMutability":"view","type":"function"},{"inputs":[],"name":"baseReward","outputs":[{"internalType":"uint256","name":"","type":"uint256"}],"stateMutability":"view","type":"function"},{"inputs":[{"internalType":"bytes32","name":"vectorHash","type":"bytes32"},{"internalType":"uint256","name":"amount","type":"uint256"}],"name":"burnWithVector","outputs":[],"stateMutability":"nonpayable","type":"function"},{"inputs":[],"name":"burningEnabled","outputs":[{"internalType":"bool","name":"","type":"bool"}],"stateMutability":"view","type":"function"},{"inputs":[{"internalType":"uint256","name":"dimensions","type":"uint256"}],"name":"calculateMintAmount","outputs":[{"internalType":"uint256","name":"","type":"uint256"}],"stateMutability":"view","type":"function"},{"inputs":[],"name":"dimensionMultiplier","outputs":[{"internalType":"uint256","name":"","type":"uint256"}],"stateMutability":"view","type":"function"},{"inputs":[],"name":"getSacredNumbers","outputs":[{"internalType":"uint256","name":"apex","type":"uint256"},{"internalType":"uint256","name":"vortex","type":"uint256"},{"internalType":"uint256","name":"code","type":"uint256"},{"internalType":"uint256","name":"frequency","type":"uint256"}],"stateMutability":"pure","type":"function"},{"inputs":[{"internalType":"address","name":"user","type":"address"}],"name":"getUserStats","outputs":[{"internalType":"uint256","name":"minted","type":"uint256"},{"internalType":"uint256","name":"burned","type":"uint256"}],"stateMutability":"view","type":"function"},{"inputs":[{"internalType":"bytes32","name":"vectorHash","type":"bytes32"}],"name":"getVectorStats","outputs":[{"internalType":"bool","name":"minted","type":"bool"},{"internalType":"uint256","name":"mintAmount","type":"uint256"},{"internalType":"uint256","name":"burnAmount","type":"uint256"}],"stateMutability":"view","type":"function"},{"inputs":[{"internalType":"address","name":"forwarder","type":"address"}],"name":"isTrustedForwarder","outputs":[{"internalType":"bool","name":"","type":"bool"}],"stateMutability":"view","type":"function"},{"inputs":[{"internalType":"bytes32","name":"vectorHash","type":"bytes32"},{"internalType":"address","name":"recipient","type":"address"},{"internalType":"uint256","name":"customAmount","type":"uint256"}],"name":"mintWithVector","outputs":[],"stateMutability":"nonpayable","type":"function"},{"inputs":[],"name":"mintingEnabled","outputs":[{"internalType":"bool","name":"","type":"bool"}],"stateMutability":"view","type":"function"},{"inputs":[],"name":"owner","outputs":[{"internalType":"address","name":"","type":"address"}],"stateMutability":"view","type":"function"},{"inputs":[],"name":"renounceOwnership","outputs":[],"stateMutability":"nonpayable","type":"function"},{"inputs":[{"internalType":"address","name":"","type":"address"}],"name":"totalBurned","outputs":[{"internalType":"uint256","name":"","type":"uint256"}],"stateMutability":"view","type":"function"},{"inputs":[{"internalType":"address","name":"","type":"address"}],"name":"totalMinted","outputs":[{"internalType":"uint256","name":"","type":"uint256"}],"stateMutability":"view","type":"function"},{"inputs":[{"internalType":"address","name":"newOwner","type":"address"}],"name":"transferOwnership","outputs":[],"stateMutability":"nonpayable","type":"function"},{"inputs":[],"name":"trustedForwarder","outputs":[{"internalType":"address","name":"","type":"address"}],"stateMutability":"view","type":"function"},{"inputs":[{"internalType":"uint256","name":"_baseReward","type":"uint256"},{"internalType":"uint256","name":"_dimensionMultiplier","type":"uint256"},{"internalType":"bool","name":"_mintingEnabled","type":"bool"},{"internalType":"bool","name":"_burningEnabled","type":"bool"}],"name":"updateConfig","outputs":[],"stateMutability":"nonpayable","type":"function"},{"inputs":[{"internalType":"bytes32","name":"","type":"bytes32"}],"name":"vectorBurnAmount","outputs":[{"internalType":"uint256","name":"","type":"uint256"}],"stateMutability":"view","type":"function"},{"inputs":[{"internalType":"bytes32","name":"","type":"bytes32"}],"name":"vectorMintAmount","outputs":[{"internalType":"uint256","name":"","type":"uint256"}],"stateMutability":"view","type":"function"},{"inputs":[{"internalType":"bytes32","name":"","type":"bytes32"}],"name":"vectorMinted","outputs":[{"internalType":"bool","name":"","type":"bool"}],"stateMutability":"view","type":"function"},{"inputs":[],"name":"vectorRegistry","outputs":[{"internalType":"contract IVectorRegistry","name":"","type":"address"}],"stateMutability":"view","type":"function"},{"inputs":[],"name":"xmoney","outputs":[{"internalType":"contract IXMoney","name":"","type":"address"}],"stateMutability":"view","type":"function"}],"evm":{"bytecode":{"linkReferences":{},"object":"60a0604052681400e758f44724000060035560016004556005805461ffff191661010117905534801562000031575f80fd5b506040516200147038038062001470833981016040819052620000549162000154565b8033806200007b57604051631e4fbdf760e01b81525f600482015260240160405180910390fd5b6200008681620000e9565b5060017f9b779b17422d0df92223018b32b4d1fa46e071723d6817e2486d003becc55f00556001600160a01b03908116608052600180549482166001600160a01b031995861617905560028054939091169290931691909117909155506200019b565b5f80546001600160a01b038381166001600160a01b0319831681178455604051919092169283917f8be0079c531659141344cd1fd0a4f28419497f9722a3daafe3b4186f6b6457e09190a35050565b80516001600160a01b03811681146200014f575f80fd5b919050565b5f805f6060848603121562000167575f80fd5b620001728462000138565b9250620001826020850162000138565b9150620001926040850162000138565b90509250925092565b6080516112ae620001c25f395f81816102e5015281816103810152610ef901526112ae5ff3fe608060405234801561000f575f80fd5b50600436106101a0575f3560e01c80637d9f140d116100f3578063b12739cd11610093578063e21097651161006e578063e210976514610440578063e810ca4e1461045f578063f2fde38b14610468578063f9278c551461047b575f80fd5b8063b12739cd1461041b578063bcc5ea6c1461042e578063cf6c7bf314610437575f80fd5b806392f31101116100ce57806392f31101146103c957806396763c54146103e85780639fd6db12146103fb578063aa6bf49114610408575f80fd5b80637d9f140d1461036c5780637da0a8771461037f5780638da5cb5b146103b9575f80fd5b806353cc973b1161015e5780636c95a02f116101395780636c95a02f1461033f578063715018a61461034857806376ad03bc146103505780637d30c3e514610359575f80fd5b806353cc973b146102b6578063572b6c05146102d55780635e55d97714610315575f80fd5b80623d4790146101a45780631059bd36146101d657806320f51e4d146101eb57806326095592146101f35780634d7547151461024a5780634e43603a1461026c575b5f80fd5b6101c36101b2366004610f66565b60096020525f908152604090205481565b6040519081526020015b60405180910390f35b6101e96101e4366004610f88565b61049d565b005b6101c3604281565b61022d610201366004610fa8565b5f818152600660209081526040808320546007835281842054600890935292205460ff90921693909250565b6040805193151584526020840192909252908201526060016101cd565b60055461025c90610100900460ff1681565b60405190151581526020016101cd565b6102a161027a366004610f66565b6001600160a01b03165f90815260096020908152604080832054600a909252909120549091565b604080519283526020830191909152016101cd565b6101c36102c4366004610f66565b600a6020525f908152604090205481565b61025c6102e3366004610f66565b7f00000000000000000000000000000000000000000000000000000000000000006001600160a01b0390811691161490565b604080516103a8815261017160208201526042918101919091526101b060608201526080016101cd565b6101c36103a881565b6101e9610878565b6101c360035481565b6101c3610367366004610fa8565b61088b565b6101e961037a366004610fbf565b6108d4565b7f00000000000000000000000000000000000000000000000000000000000000005b6040516001600160a01b0390911681526020016101cd565b5f546001600160a01b03166103a1565b6101c36103d7366004610fa8565b60076020525f908152604090205481565b6002546103a1906001600160a01b031681565b60055461025c9060ff1681565b6001546103a1906001600160a01b031681565b6101e9610429366004611001565b610d16565b6101c360045481565b6101c36101b081565b6101c361044e366004610fa8565b60086020525f908152604090205481565b6101c361017181565b6101e9610476366004610f66565b610da7565b61025c610489366004610fa8565b60066020525f908152604090205460ff1681565b6104a5610de4565b600554610100900460ff166104f75760405162461bcd60e51b8152602060048201526013602482015272109d5c9b9a5b99c81a5cc8191a5cd8589b1959606a1b60448201526064015b60405180910390fd5b600154604051637090de7f60e11b8152600481018490526001600160a01b039091169063e121bcfe90602401602060405180830381865afa15801561053e573d5f803e3d5ffd5b505050506040513d601f19601f820116820180604052508101906105629190611058565b6105a65760405162461bcd60e51b8152602060048201526015602482015274159958dd1bdc881b9bdd081c9959da5cdd195c9959605a1b60448201526064016104ee565b6002546040516370a0823160e01b815233600482015282916001600160a01b0316906370a0823190602401602060405180830381865afa1580156105ec573d5f803e3d5ffd5b505050506040513d601f19601f820116820180604052508101906106109190611073565b10156106555760405162461bcd60e51b8152602060048201526014602482015273496e73756666696369656e742062616c616e636560601b60448201526064016104ee565b60015460405163c443658760e01b8152600481018490525f9182918291829182916001600160a01b03169063c4436587906024015f60405180830381865afa1580156106a3573d5f803e3d5ffd5b505050506040513d5f823e601f3d908101601f191682016040526106ca91908101906110a9565b94509450945094509450806107195760405162461bcd60e51b8152602060048201526015602482015274159958dd1bdc88191bd95cc81b9bdd08195e1a5cdd605a1b60448201526064016104ee565b5f87815260086020526040812080548892906107369084906111b3565b9091555050335f908152600a6020526040812080548892906107599084906111b3565b9091555050600254604051632770a7eb60e21b8152336004820152602481018890526001600160a01b0390911690639dc29fac906044015f604051808303815f87803b1580156107a7575f80fd5b505af11580156107b9573d5f803e3d5ffd5b505060015460405163e6268dd560e01b8152600481018b9052602481018a90526001600160a01b03909116925063e6268dd591506044015f604051808303815f87803b158015610807575f80fd5b505af1158015610819573d5f803e3d5ffd5b5050604080518981524260208201523393508a92507f6567d84dc6b08952679a556d3ffcdc634bc202aba1e94c7fcf7c1c098119e048910160405180910390a3505050505061087460015f8051602061125983398151915255565b5050565b610880610dff565b6108895f610e5c565b565b5f806004548361089b91906111c6565b6003546108a891906111b3565b905082610180036108ce5760646108c1610171836111c6565b6108cb91906111dd565b90505b92915050565b6108dc610de4565b60055460ff166109245760405162461bcd60e51b8152602060048201526013602482015272135a5b9d1a5b99c81a5cc8191a5cd8589b1959606a1b60448201526064016104ee565b5f8381526006602052604090205460ff161561097a5760405162461bcd60e51b8152602060048201526015602482015274159958dd1bdc88185b1c9958591e481b5a5b9d1959605a1b60448201526064016104ee565b600154604051637090de7f60e11b8152600481018590526001600160a01b039091169063e121bcfe90602401602060405180830381865afa1580156109c1573d5f803e3d5ffd5b505050506040513d601f19601f820116820180604052508101906109e59190611058565b610a295760405162461bcd60e51b8152602060048201526015602482015274159958dd1bdc881b9bdd081c9959da5cdd195c9959605a1b60448201526064016104ee565b60015460405163c443658760e01b8152600481018590525f9182918291829182916001600160a01b03169063c4436587906024015f60405180830381865afa158015610a77573d5f803e3d5ffd5b505050506040513d5f823e601f3d908101601f19168201604052610a9e91908101906110a9565b9450945094509450945080610aed5760405162461bcd60e51b8152602060048201526015602482015274159958dd1bdc88191bd95cc81b9bdd08195e1a5cdd605a1b60448201526064016104ee565b336001600160a01b03851614610b455760405162461bcd60e51b815260206004820152601c60248201527f4f6e6c7920766563746f722063726561746f722063616e206d696e740000000060448201526064016104ee565b5f8615610b53575085610b93565b600454610b6090846111c6565b600354610b6d91906111b3565b90508261018003610b93576064610b86610171836111c6565b610b9091906111dd565b90505b5f898152600660209081526040808320805460ff19166001179055600782528083208490556001600160a01b038b168352600990915281208054839290610bdb9084906111b3565b90915550506002546040516340c10f1960e01b81526001600160a01b038a8116600483015260248201849052909116906340c10f19906044015f604051808303815f87803b158015610c2b575f80fd5b505af1158015610c3d573d5f803e3d5ffd5b5050600154604051630f372eb160e41b8152600481018d90526001600160a01b038c8116602483015260448201869052909116925063f372eb1091506064015f604051808303815f87803b158015610c93575f80fd5b505af1158015610ca5573d5f803e3d5ffd5b50506040805184815260208101879052428183015290516001600160a01b038c1693508c92507f60ba964e6280953f613c98f343ecb9a58c04f3a2d90f64516b48ea6af7bd85f79181900360600190a3505050505050610d1160015f8051602061125983398151915255565b505050565b610d1e610dff565b600384905560048390556005805461ffff191683151561ff0019161761010083151581029190911791829055604080518781526020810187905260ff80851615159282019290925291909204909116151560608201527f9b92998991794ebbde732c7a96ff16e650dcd4e2ca6df0081a152ad0bbca35109060800160405180910390a150505050565b610daf610dff565b6001600160a01b038116610dd857604051631e4fbdf760e01b81525f60048201526024016104ee565b610de181610e5c565b50565b610dec610eab565b60025f8051602061125983398151915255565b610e07610eda565b6001600160a01b0316610e215f546001600160a01b031690565b6001600160a01b03161461088957610e37610eda565b60405163118cdaa760e01b81526001600160a01b0390911660048201526024016104ee565b5f80546001600160a01b038381166001600160a01b0319831681178455604051919092169283917f8be0079c531659141344cd1fd0a4f28419497f9722a3daafe3b4186f6b6457e09190a35050565b5f805160206112598339815191525460020361088957604051633ee5aeb560e01b815260040160405180910390fd5b5f610ee3610ee8565b905090565b5f366014808210801590610f2457507f00000000000000000000000000000000000000000000000000000000000000006001600160a01b031633145b15610f4a57610f3736828403815f6111fc565b610f4091611223565b60601c9250505090565b339250505090565b6001600160a01b0381168114610de1575f80fd5b5f60208284031215610f76575f80fd5b8135610f8181610f52565b9392505050565b5f8060408385031215610f99575f80fd5b50508035926020909101359150565b5f60208284031215610fb8575f80fd5b5035919050565b5f805f60608486031215610fd1575f80fd5b833592506020840135610fe381610f52565b929592945050506040919091013590565b8015158114610de1575f80fd5b5f805f8060808587031215611014575f80fd5b8435935060208501359250604085013561102d81610ff4565b9150606085013561103d81610ff4565b939692955090935050565b805161105381610ff4565b919050565b5f60208284031215611068575f80fd5b8151610f8181610ff4565b5f60208284031215611083575f80fd5b5051919050565b634e487b7160e01b5f52604160045260245ffd5b805161105381610f52565b5f805f805f60a086880312156110bd575f80fd5b855167ffffffffffffffff808211156110d4575f80fd5b818801915088601f8301126110e7575f80fd5b8151818111156110f9576110f961108a565b604051601f8201601f19908116603f011681019083821181831017156111215761112161108a565b81604052828152602093508b8484870101111561113c575f80fd5b5f91505b8282101561115d5784820184015181830185015290830190611140565b5f84848301015280995050505061117581890161109e565b95505050604086015192506060860151915061119360808701611048565b90509295509295909350565b634e487b7160e01b5f52601160045260245ffd5b808201808211156108ce576108ce61119f565b80820281158282048414176108ce576108ce61119f565b5f826111f757634e487b7160e01b5f52601260045260245ffd5b500490565b5f808585111561120a575f80fd5b83861115611216575f80fd5b5050820193919092039150565b6bffffffffffffffffffffffff1981358181169160148510156112505780818660140360031b1b83161692505b50509291505056fe9b779b17422d0df92223018b32b4d1fa46e071723d6817e2486d003becc55f00a264697066735822122013476e20ea3abb19407a58bc6f47b97a19373903889b3fc0a5db319eb23f94ee64736f6c63430008180033","opcodes":"PUSH1 0xA0 PUSH1 0x40 MSTORE PUSH9 0x1400E758F447240000 PUSH1 0x3 SSTORE PUSH1 0x1 PUSH1 0x4 SSTORE PUSH1 0x5 DUP1 SLOAD PUSH2 0xFFFF NOT AND PUSH2 0x101 OR SWAP1 SSTORE CALLVALUE DUP1 ISZERO PUSH3 0x31 JUMPI PUSH0 DUP1 REVERT JUMPDEST POP PUSH1 0x40 MLOAD PUSH3 0x1470 CODESIZE SUB DUP1 PUSH3 0x1470 DUP4 CODECOPY DUP2 ADD PUSH1 0x40 DUP2 SWAP1 MSTORE PUSH3 0x54 SWAP2 PUSH3 0x154 JUMP JUMPDEST DUP1 CALLER DUP1 PUSH3 0x7B JUMPI PUSH1 0x40 MLOAD PUSH4 0x1E4FBDF7 PUSH1 0xE0 SHL DUP2 MSTORE PUSH0 PUSH1 0x4 DUP3 ADD MSTORE PUSH1 0x24 ADD PUSH1 0x40 MLOAD DUP1 SWAP2 SUB SWAP1 REVERT JUMPDEST PUSH3 0x86 DUP2 PUSH3 0xE9 JUMP JUMPDEST POP PUSH1 0x1 PUSH32 0x9B779B17422D0DF92223018B32B4D1FA46E071723D6817E2486D003BECC55F00 SSTORE PUSH1 0x1 PUSH1 0x1 PUSH1 0xA0 SHL SUB SWAP1 DUP2 AND PUSH1 0x80 MSTORE PUSH1 0x1 DUP1 SLOAD SWAP5 DUP3 AND PUSH1 0x1 PUSH1 0x1 PUSH1 0xA0 SHL SUB NOT SWAP6 DUP7 AND OR SWAP1 SSTORE PUSH1 0x2 DUP1 SLOAD SWAP4 SWAP1 SWAP2 AND SWAP3 SWAP1 SWAP4 AND SWAP2 SWAP1 SWAP2 OR SWAP1 SWAP2 SSTORE POP PUSH3 0x19B JUMP JUMPDEST PUSH0 DUP1 SLOAD PUSH1 0x1 PUSH1 0x1 PUSH1 0xA0 SHL SUB DUP4 DUP2 AND PUSH1 0x1 PUSH1 0x1 PUSH1 0xA0 SHL SUB NOT DUP4 AND DUP2 OR DUP5 SSTORE PUSH1 0x40 MLOAD SWAP2 SWAP1 SWAP3 AND SWAP3 DUP4 SWAP2 PUSH32 0x8BE0079C531659141344CD1FD0A4F28419497F9722A3DAAFE3B4186F6B6457E0 SWAP2 SWAP1 LOG3 POP POP JUMP JUMPDEST DUP1 MLOAD PUSH1 0x1 PUSH1 0x1 PUSH1 0xA0 SHL SUB DUP2 AND DUP2 EQ PUSH3 0x14F JUMPI PUSH0 DUP1 REVERT JUMPDEST SWAP2 SWAP1 POP JUMP JUMPDEST PUSH0 DUP1 PUSH0 PUSH1 0x60 DUP5 DUP7 SUB SLT ISZERO PUSH3 0x167 JUMPI PUSH0 DUP1 REVERT JUMPDEST PUSH3 0x172 DUP5 PUSH3 0x138 JUMP JUMPDEST SWAP3 POP PUSH3 0x182 PUSH1 0x20 DUP6 ADD PUSH3 0x138 JUMP JUMPDEST SWAP2 POP PUSH3 0x192 PUSH1 0x40 DUP6 ADD PUSH3 0x138 JUMP JUMPDEST SWAP1 POP SWAP3 POP SWAP3 POP SWAP3 JUMP JUMPDEST PUSH1 0x80 MLOAD PUSH2 0x12AE PUSH3 0x1C2 PUSH0 CODECOPY PUSH0 DUP2 DUP2 PUSH2 0x2E5 ADD MSTORE DUP2 DUP2 PUSH2 0x381 ADD MSTORE PUSH2 0xEF9 ADD MSTORE PUSH2 0x12AE PUSH0 RETURN INVALID PUSH1 0x80 PUSH1 0x40 MSTORE CALLVALUE DUP1 ISZERO PUSH2 0xF JUMPI PUSH0 DUP1 REVERT JUMPDEST POP PUSH1 0x4 CALLDATASIZE LT PUSH2 0x1A0 JUMPI PUSH0 CALLDATALOAD PUSH1 0xE0 SHR DUP1 PUSH4 0x7D9F140D GT PUSH2 0xF3 JUMPI DUP1 PUSH4 0xB12739CD GT PUSH2 0x93 JUMPI DUP1 PUSH4 0xE2109765 GT PUSH2 0x6E JUMPI DUP1 PUSH4 0xE2109765 EQ PUSH2 0x440 JUMPI DUP1 PUSH4 0xE810CA4E EQ PUSH2 0x45F JUMPI DUP1 PUSH4 0xF2FDE38B EQ PUSH2 0x468 JUMPI DUP1 PUSH4 0xF9278C55 EQ PUSH2 0x47B JUMPI PUSH0 DUP1 REVERT JUMPDEST DUP1 PUSH4 0xB12739CD EQ PUSH2 0x41B JUMPI DUP1 PUSH4 0xBCC5EA6C EQ PUSH2 0x42E JUMPI DUP1 PUSH4 0xCF6C7BF3 EQ PUSH2 0x437 JUMPI PUSH0 DUP1 REVERT JUMPDEST DUP1 PUSH4 0x92F31101 GT PUSH2 0xCE JUMPI DUP1 PUSH4 0x92F31101 EQ PUSH2 0x3C9 JUMPI DUP1 PUSH4 0x96763C54 EQ PUSH2 0x3E8 JUMPI DUP1 PUSH4 0x9FD6DB12 EQ PUSH2 0x3FB JUMPI DUP1 PUSH4 0xAA6BF491 EQ PUSH2 0x408 JUMPI PUSH0 DUP1 REVERT JUMPDEST DUP1 PUSH4 0x7D9F140D EQ PUSH2 0x36C JUMPI DUP1 PUSH4 0x7DA0A877 EQ PUSH2 0x37F JUMPI DUP1 PUSH4 0x8DA5CB5B EQ PUSH2 0x3B9 JUMPI PUSH0 DUP1 REVERT JUMPDEST DUP1 PUSH4 0x53CC973B GT PUSH2 0x15E JUMPI DUP1 PUSH4 0x6C95A02F GT PUSH2 0x139 JUMPI DUP1 PUSH4 0x6C95A02F EQ PUSH2 0x33F JUMPI DUP1 PUSH4 0x715018A6 EQ PUSH2 0x348 JUMPI DUP1 PUSH4 0x76AD03BC EQ PUSH2 0x350 JUMPI DUP1 PUSH4 0x7D30C3E5 EQ PUSH2 0x359 JUMPI PUSH0 DUP1 REVERT JUMPDEST DUP1 PUSH4 0x53CC973B EQ PUSH2 0x2B6 JUMPI DUP1 PUSH4 0x572B6C05 EQ PUSH2 0x2D5 JUMPI DUP1 PUSH4 0x5E55D977 EQ PUSH2 0x315 JUMPI PUSH0 DUP1 REVERT JUMPDEST DUP1 PUSH3 0x3D4790 EQ PUSH2 0x1A4 JUMPI DUP1 PUSH4 0x1059BD36 EQ PUSH2 0x1D6 JUMPI DUP1 PUSH4 0x20F51E4D EQ PUSH2 0x1EB JUMPI DUP1 PUSH4 0x26095592 EQ PUSH2 0x1F3 JUMPI DUP1 PUSH4 0x4D754715 EQ PUSH2 0x24A JUMPI DUP1 PUSH4 0x4E43603A EQ PUSH2 0x26C JUMPI JUMPDEST PUSH0 DUP1 REVERT JUMPDEST PUSH2 0x1C3 PUSH2 0x1B2 CALLDATASIZE PUSH1 0x4 PUSH2 0xF66 JUMP JUMPDEST PUSH1 0x9 PUSH1 0x20 MSTORE PUSH0 SWAP1 DUP2 MSTORE PUSH1 0x40 SWAP1 KECCAK256 SLOAD DUP2 JUMP JUMPDEST PUSH1 0x40 MLOAD SWAP1 DUP2 MSTORE PUSH1 0x20 ADD JUMPDEST PUSH1 0x40 MLOAD DUP1 SWAP2 SUB SWAP1 RETURN JUMPDEST PUSH2 0x1E9 PUSH2 0x1E4 CALLDATASIZE PUSH1 0x4 PUSH2 0xF88 JUMP JUMPDEST PUSH2 0x49D JUMP JUMPDEST STOP JUMPDEST PUSH2 0x1C3 PUSH1 0x42 DUP2 JUMP JUMPDEST PUSH2 0x22D PUSH2 0x201 CALLDATASIZE PUSH1 0x4 PUSH2 0xFA8 JUMP JUMPDEST PUSH0 DUP2 DUP2 MSTORE PUSH1 0x6 PUSH1 0x20 SWAP1 DUP2 MSTORE PUSH1 0x40 DUP1 DUP4 KECCAK256 SLOAD PUSH1 0x7 DUP4 MSTORE DUP2 DUP5 KECCAK256 SLOAD PUSH1 0x8 SWAP1 SWAP4 MSTORE SWAP3 KECCAK256 SLOAD PUSH1 0xFF SWAP1 SWAP3 AND SWAP4 SWAP1 SWAP3 POP JUMP JUMPDEST PUSH1 0x40 DUP1 MLOAD SWAP4 ISZERO ISZERO DUP5 MSTORE PUSH1 0x20 DUP5 ADD SWAP3 SWAP1 SWAP3 MSTORE SWAP1 DUP3 ADD MSTORE PUSH1 0x60 ADD PUSH2 0x1CD JUMP JUMPDEST PUSH1 0x5 SLOAD PUSH2 0x25C SWAP1 PUSH2 0x100 SWAP1 DIV PUSH1 0xFF AND DUP2 JUMP JUMPDEST PUSH1 0x40 MLOAD SWAP1 ISZERO ISZERO DUP2 MSTORE PUSH1 0x20 ADD PUSH2 0x1CD JUMP JUMPDEST PUSH2 0x2A1 PUSH2 0x27A CALLDATASIZE PUSH1 0x4 PUSH2 0xF66 JUMP JUMPDEST PUSH1 0x1 PUSH1 0x1 PUSH1 0xA0 SHL SUB AND PUSH0 SWAP1 DUP2 MSTORE PUSH1 0x9 PUSH1 0x20 SWAP1 DUP2 MSTORE PUSH1 0x40 DUP1 DUP4 KECCAK256 SLOAD PUSH1 0xA SWAP1 SWAP3 MSTORE SWAP1 SWAP2 KECCAK256 SLOAD SWAP1 SWAP2 JUMP JUMPDEST PUSH1 0x40 DUP1 MLOAD SWAP3 DUP4 MSTORE PUSH1 0x20 DUP4 ADD SWAP2 SWAP1 SWAP2 MSTORE ADD PUSH2 0x1CD JUMP JUMPDEST PUSH2 0x1C3 PUSH2 0x2C4 CALLDATASIZE PUSH1 0x4 PUSH2 0xF66 JUMP JUMPDEST PUSH1 0xA PUSH1 0x20 MSTORE PUSH0 SWAP1 DUP2 MSTORE PUSH1 0x40 SWAP1 KECCAK256 SLOAD DUP2 JUMP JUMPDEST PUSH2 0x25C PUSH2 0x2E3 CALLDATASIZE PUSH1 0x4 PUSH2 0xF66 JUMP JUMPDEST PUSH32 0x0 PUSH1 0x1 PUSH1 0x1 PUSH1 0xA0 SHL SUB SWAP1 DUP2 AND SWAP2 AND EQ SWAP1 JUMP JUMPDEST PUSH1 0x40 DUP1 MLOAD PUSH2 0x3A8 DUP2 MSTORE PUSH2 0x171 PUSH1 0x20 DUP3 ADD MSTORE PUSH1 0x42 SWAP2 DUP2 ADD SWAP2 SWAP1 SWAP2 MSTORE PUSH2 0x1B0 PUSH1 0x60 DUP3 ADD MSTORE PUSH1 0x80 ADD PUSH2 0x1CD JUMP JUMPDEST PUSH2 0x1C3 PUSH2 0x3A8 DUP2 JUMP JUMPDEST PUSH2 0x1E9 PUSH2 0x878 JUMP JUMPDEST PUSH2 0x1C3 PUSH1 0x3 SLOAD DUP2 JUMP JUMPDEST PUSH2 0x1C3 PUSH2 0x367 CALLDATASIZE PUSH1 0x4 PUSH2 0xFA8 JUMP JUMPDEST PUSH2 0x88B JUMP JUMPDEST PUSH2 0x1E9 PUSH2 0x37A CALLDATASIZE PUSH1 0x4 PUSH2 0xFBF JUMP JUMPDEST PUSH2 0x8D4 JUMP JUMPDEST PUSH32 0x0 JUMPDEST PUSH1 0x40 MLOAD PUSH1 0x1 PUSH1 0x1 PUSH1 0xA0 SHL SUB SWAP1 SWAP2 AND DUP2 MSTORE PUSH1 0x20 ADD PUSH2 0x1CD JUMP JUMPDEST PUSH0 SLOAD PUSH1 0x1 PUSH1 0x1 PUSH1 0xA0 SHL SUB AND PUSH2 0x3A1 JUMP JUMPDEST PUSH2 0x1C3 PUSH2 0x3D7 CALLDATASIZE PUSH1 0x4 PUSH2 0xFA8 JUMP JUMPDEST PUSH1 0x7 PUSH1 0x20 MSTORE PUSH0 SWAP1 DUP2 MSTORE PUSH1 0x40 SWAP1 KECCAK256 SLOAD DUP2 JUMP JUMPDEST PUSH1 0x2 SLOAD PUSH2 0x3A1 SWAP1 PUSH1 0x1 PUSH1 0x1 PUSH1 0xA0 SHL SUB AND DUP2 JUMP JUMPDEST PUSH1 0x5 SLOAD PUSH2 0x25C SWAP1 PUSH1 0xFF AND DUP2 JUMP JUMPDEST PUSH1 0x1 SLOAD PUSH2 0x3A1 SWAP1 PUSH1 0x1 PUSH1 0x1 PUSH1 0xA0 SHL SUB AND DUP2 JUMP JUMPDEST PUSH2 0x1E9 PUSH2 0x429 CALLDATASIZE PUSH1 0x4 PUSH2 0x1001 JUMP JUMPDEST PUSH2 0xD16 JUMP JUMPDEST PUSH2 0x1C3 PUSH1 0x4 SLOAD DUP2 JUMP JUMPDEST PUSH2 0x1C3 PUSH2 0x1B0 DUP2 JUMP JUMPDEST PUSH2 0x1C3 PUSH2 0x44E CALLDATASIZE PUSH1 0x4 PUSH2 0xFA8 JUMP JUMPDEST PUSH1 0x8 PUSH1 0x20 MSTORE PUSH0 SWAP1 DUP2 MSTORE PUSH1 0x40 SWAP1 KECCAK256 SLOAD DUP2 JUMP JUMPDEST PUSH2 0x1C3 PUSH2 0x171 DUP2 JUMP JUMPDEST PUSH2 0x1E9 PUSH2 0x476 CALLDATASIZE PUSH1 0x4 PUSH2 0xF66 JUMP JUMPDEST PUSH2 0xDA7 JUMP JUMPDEST PUSH2 0x25C PUSH2 0x489 CALLDATASIZE PUSH1 0x4 PUSH2 0xFA8 JUMP JUMPDEST PUSH1 0x6 PUSH1 0x20 MSTORE PUSH0 SWAP1 DUP2 MSTORE PUSH1 0x40 SWAP1 KECCAK256 SLOAD PUSH1 0xFF AND DUP2 JUMP JUMPDEST PUSH2 0x4A5 PUSH2 0xDE4 JUMP JUMPDEST PUSH1 0x5 SLOAD PUSH2 0x100 SWAP1 DIV PUSH1 0xFF AND PUSH2 0x4F7 JUMPI PUSH1 0x40 MLOAD PUSH3 0x461BCD PUSH1 0xE5 SHL DUP2 MSTORE PUSH1 0x20 PUSH1 0x4 DUP3 ADD MSTORE PUSH1 0x13 PUSH1 0x24 DUP3 ADD MSTORE PUSH19 0x109D5C9B9A5B99C81A5CC8191A5CD8589B1959 PUSH1 0x6A SHL PUSH1 0x44 DUP3 ADD MSTORE PUSH1 0x64 ADD JUMPDEST PUSH1 0x40 MLOAD DUP1 SWAP2 SUB SWAP1 REVERT JUMPDEST PUSH1 0x1 SLOAD PUSH1 0x40 MLOAD PUSH4 0x7090DE7F PUSH1 0xE1 SHL DUP2 MSTORE PUSH1 0x4 DUP2 ADD DUP5 SWAP1 MSTORE PUSH1 0x1 PUSH1 0x1 PUSH1 0xA0 SHL SUB SWAP1 SWAP2 AND SWAP1 PUSH4 0xE121BCFE SWAP1 PUSH1 0x24 ADD PUSH1 0x20 PUSH1 0x40 MLOAD DUP1 DUP4 SUB DUP2 DUP7 GAS STATICCALL ISZERO DUP1 ISZERO PUSH2 0x53E JUMPI RETURNDATASIZE PUSH0 DUP1 RETURNDATACOPY RETURNDATASIZE PUSH0 REVERT JUMPDEST POP POP POP POP PUSH1 0x40 MLOAD RETURNDATASIZE PUSH1 0x1F NOT PUSH1 0x1F DUP3 ADD AND DUP3 ADD DUP1 PUSH1 0x40 MSTORE POP DUP2 ADD SWAP1 PUSH2 0x562 SWAP2 SWAP1 PUSH2 0x1058 JUMP JUMPDEST PUSH2 0x5A6 JUMPI PUSH1 0x40 MLOAD PUSH3 0x461BCD PUSH1 0xE5 SHL DUP2 MSTORE PUSH1 0x20 PUSH1 0x4 DUP3 ADD MSTORE PUSH1 0x15 PUSH1 0x24 DUP3 ADD MSTORE PUSH21 0x159958DD1BDC881B9BDD081C9959DA5CDD195C9959 PUSH1 0x5A SHL PUSH1 0x44 DUP3 ADD MSTORE PUSH1 0x64 ADD PUSH2 0x4EE JUMP JUMPDEST PUSH1 0x2 SLOAD PUSH1 0x40 MLOAD PUSH4 0x70A08231 PUSH1 0xE0 SHL DUP2 MSTORE CALLER PUSH1 0x4 DUP3 ADD MSTORE DUP3 SWAP2 PUSH1 0x1 PUSH1 0x1 PUSH1 0xA0 SHL SUB AND SWAP1 PUSH4 0x70A08231 SWAP1 PUSH1 0x24 ADD PUSH1 0x20 PUSH1 0x40 MLOAD DUP1 DUP4 SUB DUP2 DUP7 GAS STATICCALL ISZERO DUP1 ISZERO PUSH2 0x5EC JUMPI RETURNDATASIZE PUSH0 DUP1 RETURNDATACOPY RETURNDATASIZE PUSH0 REVERT JUMPDEST POP POP POP POP PUSH1 0x40 MLOAD RETURNDATASIZE PUSH1 0x1F NOT PUSH1 0x1F DUP3 ADD AND DUP3 ADD DUP1 PUSH1 0x40 MSTORE POP DUP2 ADD SWAP1 PUSH2 0x610 SWAP2 SWAP1 PUSH2 0x1073 JUMP JUMPDEST LT ISZERO PUSH2 0x655 JUMPI PUSH1 0x40 MLOAD PUSH3 0x461BCD PUSH1 0xE5 SHL DUP2 MSTORE PUSH1 0x20 PUSH1 0x4 DUP3 ADD MSTORE PUSH1 0x14 PUSH1 0x24 DUP3 ADD MSTORE PUSH20 0x496E73756666696369656E742062616C616E6365 PUSH1 0x60 SHL PUSH1 0x44 DUP3 ADD MSTORE PUSH1 0x64 ADD PUSH2 0x4EE JUMP JUMPDEST PUSH1 0x1 SLOAD PUSH1 0x40 MLOAD PUSH4 0xC4436587 PUSH1 0xE0 SHL DUP2 MSTORE PUSH1 0x4 DUP2 ADD DUP5 SWAP1 MSTORE PUSH0 SWAP2 DUP3 SWAP2 DUP3 SWAP2 DUP3 SWAP2 DUP3 SWAP2 PUSH1 0x1 PUSH1 0x1 PUSH1 0xA0 SHL SUB AND SWAP1 PUSH4 0xC4436587 SWAP1 PUSH1 0x24 ADD PUSH0 PUSH1 0x40 MLOAD DUP1 DUP4 SUB DUP2 DUP7 GAS STATICCALL ISZERO DUP1 ISZERO PUSH2 0x6A3 JUMPI RETURNDATASIZE PUSH0 DUP1 RETURNDATACOPY RETURNDATASIZE PUSH0 REVERT JUMPDEST POP POP POP POP PUSH1 0x40 MLOAD RETURNDATASIZE PUSH0 DUP3 RETURNDATACOPY PUSH1 0x1F RETURNDATASIZE SWAP1 DUP2 ADD PUSH1 0x1F NOT AND DUP3 ADD PUSH1 0x40 MSTORE PUSH2 0x6CA SWAP2 SWAP1 DUP2 ADD SWAP1 PUSH2 0x10A9 JUMP JUMPDEST SWAP5 POP SWAP5 POP SWAP5 POP SWAP5 POP SWAP5 POP DUP1 PUSH2 0x719 JUMPI PUSH1 0x40 MLOAD PUSH3 0x461BCD PUSH1 0xE5 SHL DUP2 MSTORE PUSH1 0x20 PUSH1 0x4 DUP3 ADD MSTORE PUSH1 0x15 PUSH1 0x24 DUP3 ADD MSTORE PUSH21 0x159958DD1BDC88191BD95CC81B9BDD08195E1A5CDD PUSH1 0x5A SHL PUSH1 0x44 DUP3 ADD MSTORE PUSH1 0x64 ADD PUSH2 0x4EE JUMP JUMPDEST PUSH0 DUP8 DUP2 MSTORE PUSH1 0x8 PUSH1 0x20 MSTORE PUSH1 0x40 DUP2 KECCAK256 DUP1 SLOAD DUP9 SWAP3 SWAP1 PUSH2 0x736 SWAP1 DUP5 SWAP1 PUSH2 0x11B3 JUMP JUMPDEST SWAP1 SWAP2 SSTORE POP POP CALLER PUSH0 SWAP1 DUP2 MSTORE PUSH1 0xA PUSH1 0x20 MSTORE PUSH1 0x40 DUP2 KECCAK256 DUP1 SLOAD DUP9 SWAP3 SWAP1 PUSH2 0x759 SWAP1 DUP5 SWAP1 PUSH2 0x11B3 JUMP JUMPDEST SWAP1 SWAP2 SSTORE POP POP PUSH1 0x2 SLOAD PUSH1 0x40 MLOAD PUSH4 0x2770A7EB PUSH1 0xE2 SHL DUP2 MSTORE CALLER PUSH1 0x4 DUP3 ADD MSTORE PUSH1 0x24 DUP2 ADD DUP9 SWAP1 MSTORE PUSH1 0x1 PUSH1 0x1 PUSH1 0xA0 SHL SUB SWAP1 SWAP2 AND SWAP1 PUSH4 0x9DC29FAC SWAP1 PUSH1 0x44 ADD PUSH0 PUSH1 0x40 MLOAD DUP1 DUP4 SUB DUP2 PUSH0 DUP8 DUP1 EXTCODESIZE ISZERO DUP1 ISZERO PUSH2 0x7A7 JUMPI PUSH0 DUP1 REVERT JUMPDEST POP GAS CALL ISZERO DUP1 ISZERO PUSH2 0x7B9 JUMPI RETURNDATASIZE PUSH0 DUP1 RETURNDATACOPY RETURNDATASIZE PUSH0 REVERT JUMPDEST POP POP PUSH1 0x1 SLOAD PUSH1 0x40 MLOAD PUSH4 0xE6268DD5 PUSH1 0xE0 SHL DUP2 MSTORE PUSH1 0x4 DUP2 ADD DUP12 SWAP1 MSTORE PUSH1 0x24 DUP2 ADD DUP11 SWAP1 MSTORE PUSH1 0x1 PUSH1 0x1 PUSH1 0xA0 SHL SUB SWAP1 SWAP2 AND SWAP3 POP PUSH4 0xE6268DD5 SWAP2 POP PUSH1 0x44 ADD PUSH0 PUSH1 0x40 MLOAD DUP1 DUP4 SUB DUP2 PUSH0 DUP8 DUP1 EXTCODESIZE ISZERO DUP1 ISZERO PUSH2 0x807 JUMPI PUSH0 DUP1 REVERT JUMPDEST POP GAS CALL ISZERO DUP1 ISZERO PUSH2 0x819 JUMPI RETURNDATASIZE PUSH0 DUP1 RETURNDATACOPY RETURNDATASIZE PUSH0 REVERT JUMPDEST POP POP PUSH1 0x40 DUP1 MLOAD DUP10 DUP2 MSTORE TIMESTAMP PUSH1 0x20 DUP3 ADD MSTORE CALLER SWAP4 POP DUP11 SWAP3 POP PUSH32 0x6567D84DC6B08952679A556D3FFCDC634BC202ABA1E94C7FCF7C1C098119E048 SWAP2 ADD PUSH1 0x40 MLOAD DUP1 SWAP2 SUB SWAP1 LOG3 POP POP POP POP POP PUSH2 0x874 PUSH1 0x1 PUSH0 DUP1 MLOAD PUSH1 0x20 PUSH2 0x1259 DUP4 CODECOPY DUP2 MLOAD SWAP2 MSTORE SSTORE JUMP JUMPDEST POP POP JUMP JUMPDEST PUSH2 0x880 PUSH2 0xDFF JUMP JUMPDEST PUSH2 0x889 PUSH0 PUSH2 0xE5C JUMP JUMPDEST JUMP JUMPDEST PUSH0 DUP1 PUSH1 0x4 SLOAD DUP4 PUSH2 0x89B SWAP2 SWAP1 PUSH2 0x11C6 JUMP JUMPDEST PUSH1 0x3 SLOAD PUSH2 0x8A8 SWAP2 SWAP1 PUSH2 0x11B3 JUMP JUMPDEST SWAP1 POP DUP3 PUSH2 0x180 SUB PUSH2 0x8CE JUMPI PUSH1 0x64 PUSH2 0x8C1 PUSH2 0x171 DUP4 PUSH2 0x11C6 JUMP JUMPDEST PUSH2 0x8CB SWAP2 SWAP1 PUSH2 0x11DD JUMP JUMPDEST SWAP1 POP JUMPDEST SWAP3 SWAP2 POP POP JUMP JUMPDEST PUSH2 0x8DC PUSH2 0xDE4 JUMP JUMPDEST PUSH1 0x5 SLOAD PUSH1 0xFF AND PUSH2 0x924 JUMPI PUSH1 0x40 MLOAD PUSH3 0x461BCD PUSH1 0xE5 SHL DUP2 MSTORE PUSH1 0x20 PUSH1 0x4 DUP3 ADD MSTORE PUSH1 0x13 PUSH1 0x24 DUP3 ADD MSTORE PUSH19 0x135A5B9D1A5B99C81A5CC8191A5CD8589B1959 PUSH1 0x6A SHL PUSH1 0x44 DUP3 ADD MSTORE PUSH1 0x64 ADD PUSH2 0x4EE JUMP JUMPDEST PUSH0 DUP4 DUP2 MSTORE PUSH1 0x6 PUSH1 0x20 MSTORE PUSH1 0x40 SWAP1 KECCAK256 SLOAD PUSH1 0xFF AND ISZERO PUSH2 0x97A JUMPI PUSH1 0x40 MLOAD PUSH3 0x461BCD PUSH1 0xE5 SHL DUP2 MSTORE PUSH1 0x20 PUSH1 0x4 DUP3 ADD MSTORE PUSH1 0x15 PUSH1 0x24 DUP3 ADD MSTORE PUSH21 0x159958DD1BDC88185B1C9958591E481B5A5B9D1959 PUSH1 0x5A SHL PUSH1 0x44 DUP3 ADD MSTORE PUSH1 0x64 ADD PUSH2 0x4EE JUMP JUMPDEST PUSH1 0x1 SLOAD PUSH1 0x40 MLOAD PUSH4 0x7090DE7F PUSH1 0xE1 SHL DUP2 MSTORE PUSH1 0x4 DUP2 ADD DUP6 SWAP1 MSTORE PUSH1 0x1 PUSH1 0x1 PUSH1 0xA0 SHL SUB SWAP1 SWAP2 AND SWAP1 PUSH4 0xE121BCFE SWAP1 PUSH1 0x24 ADD PUSH1 0x20 PUSH1 0x40 MLOAD DUP1 DUP4 SUB DUP2 DUP7 GAS STATICCALL ISZERO DUP1 ISZERO PUSH2 0x9C1 JUMPI RETURNDATASIZE PUSH0 DUP1 RETURNDATACOPY RETURNDATASIZE PUSH0 REVERT JUMPDEST POP POP POP POP PUSH1 0x40 MLOAD RETURNDATASIZE PUSH1 0x1F NOT PUSH1 0x1F DUP3 ADD AND DUP3 ADD DUP1 PUSH1 0x40 MSTORE POP DUP2 ADD SWAP1 PUSH2 0x9E5 SWAP2 SWAP1 PUSH2 0x1058 JUMP JUMPDEST PUSH2 0xA29 JUMPI PUSH1 0x40 MLOAD PUSH3 0x461BCD PUSH1 0xE5 SHL DUP2 MSTORE PUSH1 0x20 PUSH1 0x4 DUP3 ADD MSTORE PUSH1 0x15 PUSH1 0x24 DUP3 ADD MSTORE PUSH21 0x159958DD1BDC881B9BDD081C9959DA5CDD195C9959 PUSH1 0x5A SHL PUSH1 0x44 DUP3 ADD MSTORE PUSH1 0x64 ADD PUSH2 0x4EE JUMP JUMPDEST PUSH1 0x1 SLOAD PUSH1 0x40 MLOAD PUSH4 0xC4436587 PUSH1 0xE0 SHL DUP2 MSTORE PUSH1 0x4 DUP2 ADD DUP6 SWAP1 MSTORE PUSH0 SWAP2 DUP3 SWAP2 DUP3 SWAP2 DUP3 SWAP2 DUP3 SWAP2 PUSH1 0x1 PUSH1 0x1 PUSH1 0xA0 SHL SUB AND SWAP1 PUSH4 0xC4436587 SWAP1 PUSH1 0x24 ADD PUSH0 PUSH1 0x40 MLOAD DUP1 DUP4 SUB DUP2 DUP7 GAS STATICCALL ISZERO DUP1 ISZERO PUSH2 0xA77 JUMPI RETURNDATASIZE PUSH0 DUP1 RETURNDATACOPY RETURNDATASIZE PUSH0 REVERT JUMPDEST POP POP POP POP PUSH1 0x40 MLOAD RETURNDATASIZE PUSH0 DUP3 RETURNDATACOPY PUSH1 0x1F RETURNDATASIZE SWAP1 DUP2 ADD PUSH1 0x1F NOT AND DUP3 ADD PUSH1 0x40 MSTORE PUSH2 0xA9E SWAP2 SWAP1 DUP2 ADD SWAP1 PUSH2 0x10A9 JUMP JUMPDEST SWAP5 POP SWAP5 POP SWAP5 POP SWAP5 POP SWAP5 POP DUP1 PUSH2 0xAED JUMPI PUSH1 0x40 MLOAD PUSH3 0x461BCD PUSH1 0xE5 SHL DUP2 MSTORE PUSH1 0x20 PUSH1 0x4 DUP3 ADD MSTORE PUSH1 0x15 PUSH1 0x24 DUP3 ADD MSTORE PUSH21 0x159958DD1BDC88191BD95CC81B9BDD08195E1A5CDD PUSH1 0x5A SHL PUSH1 0x44 DUP3 ADD MSTORE PUSH1 0x64 ADD PUSH2 0x4EE JUMP JUMPDEST CALLER PUSH1 0x1 PUSH1 0x1 PUSH1 0xA0 SHL SUB DUP6 AND EQ PUSH2 0xB45 JUMPI PUSH1 0x40 MLOAD PUSH3 0x461BCD PUSH1 0xE5 SHL DUP2 MSTORE PUSH1 0x20 PUSH1 0x4 DUP3 ADD MSTORE PUSH1 0x1C PUSH1 0x24 DUP3 ADD MSTORE PUSH32 0x4F6E6C7920766563746F722063726561746F722063616E206D696E7400000000 PUSH1 0x44 DUP3 ADD MSTORE PUSH1 0x64 ADD PUSH2 0x4EE JUMP JUMPDEST PUSH0 DUP7 ISZERO PUSH2 0xB53 JUMPI POP DUP6 PUSH2 0xB93 JUMP JUMPDEST PUSH1 0x4 SLOAD PUSH2 0xB60 SWAP1 DUP5 PUSH2 0x11C6 JUMP JUMPDEST PUSH1 0x3 SLOAD PUSH2 0xB6D SWAP2 SWAP1 PUSH2 0x11B3 JUMP JUMPDEST SWAP1 POP DUP3 PUSH2 0x180 SUB PUSH2 0xB93 JUMPI PUSH1 0x64 PUSH2 0xB86 PUSH2 0x171 DUP4 PUSH2 0x11C6 JUMP JUMPDEST PUSH2 0xB90 SWAP2 SWAP1 PUSH2 0x11DD JUMP JUMPDEST SWAP1 POP JUMPDEST PUSH0 DUP10 DUP2 MSTORE PUSH1 0x6 PUSH1 0x20 SWAP1 DUP2 MSTORE PUSH1 0x40 DUP1 DUP4 KECCAK256 DUP1 SLOAD PUSH1 0xFF NOT AND PUSH1 0x1 OR SWAP1 SSTORE PUSH1 0x7 DUP3 MSTORE DUP1 DUP4 KECCAK256 DUP5 SWAP1 SSTORE PUSH1 0x1 PUSH1 0x1 PUSH1 0xA0 SHL SUB DUP12 AND DUP4 MSTORE PUSH1 0x9 SWAP1 SWAP2 MSTORE DUP2 KECCAK256 DUP1 SLOAD DUP4 SWAP3 SWAP1 PUSH2 0xBDB SWAP1 DUP5 SWAP1 PUSH2 0x11B3 JUMP JUMPDEST SWAP1 SWAP2 SSTORE POP POP PUSH1 0x2 SLOAD PUSH1 0x40 MLOAD PUSH4 0x40C10F19 PUSH1 0xE0 SHL DUP2 MSTORE PUSH1 0x1 PUSH1 0x1 PUSH1 0xA0 SHL SUB DUP11 DUP2 AND PUSH1 0x4 DUP4 ADD MSTORE PUSH1 0x24 DUP3 ADD DUP5 SWAP1 MSTORE SWAP1 SWAP2 AND SWAP1 PUSH4 0x40C10F19 SWAP1 PUSH1 0x44 ADD PUSH0 PUSH1 0x40 MLOAD DUP1 DUP4 SUB DUP2 PUSH0 DUP8 DUP1 EXTCODESIZE ISZERO DUP1 ISZERO PUSH2 0xC2B JUMPI PUSH0 DUP1 REVERT JUMPDEST POP GAS CALL ISZERO DUP1 ISZERO PUSH2 0xC3D JUMPI RETURNDATASIZE PUSH0 DUP1 RETURNDATACOPY RETURNDATASIZE PUSH0 REVERT JUMPDEST POP POP PUSH1 0x1 SLOAD PUSH1 0x40 MLOAD PUSH4 0xF372EB1 PUSH1 0xE4 SHL DUP2 MSTORE PUSH1 0x4 DUP2 ADD DUP14 SWAP1 MSTORE PUSH1 0x1 PUSH1 0x1 PUSH1 0xA0 SHL SUB DUP13 DUP2 AND PUSH1 0x24 DUP4 ADD MSTORE PUSH1 0x44 DUP3 ADD DUP7 SWAP1 MSTORE SWAP1 SWAP2 AND SWAP3 POP PUSH4 0xF372EB10 SWAP2 POP PUSH1 0x64 ADD PUSH0 PUSH1 0x40 MLOAD DUP1 DUP4 SUB DUP2 PUSH0 DUP8 DUP1 EXTCODESIZE ISZERO DUP1 ISZERO PUSH2 0xC93 JUMPI PUSH0 DUP1 REVERT JUMPDEST POP GAS CALL ISZERO DUP1 ISZERO PUSH2 0xCA5 JUMPI RETURNDATASIZE PUSH0 DUP1 RETURNDATACOPY RETURNDATASIZE PUSH0 REVERT JUMPDEST POP POP PUSH1 0x40 DUP1 MLOAD DUP5 DUP2 MSTORE PUSH1 0x20 DUP2 ADD DUP8 SWAP1 MSTORE TIMESTAMP DUP2 DUP4 ADD MSTORE SWAP1 MLOAD PUSH1 0x1 PUSH1 0x1 PUSH1 0xA0 SHL SUB DUP13 AND SWAP4 POP DUP13 SWAP3 POP PUSH32 0x60BA964E6280953F613C98F343ECB9A58C04F3A2D90F64516B48EA6AF7BD85F7 SWAP2 DUP2 SWAP1 SUB PUSH1 0x60 ADD SWAP1 LOG3 POP POP POP POP POP POP PUSH2 0xD11 PUSH1 0x1 PUSH0 DUP1 MLOAD PUSH1 0x20 PUSH2 0x1259 DUP4 CODECOPY DUP2 MLOAD SWAP2 MSTORE SSTORE JUMP JUMPDEST POP POP POP JUMP JUMPDEST PUSH2 0xD1E PUSH2 0xDFF JUMP JUMPDEST PUSH1 0x3 DUP5 SWAP1 SSTORE PUSH1 0x4 DUP4 SWAP1 SSTORE PUSH1 0x5 DUP1 SLOAD PUSH2 0xFFFF NOT AND DUP4 ISZERO ISZERO PUSH2 0xFF00 NOT AND OR PUSH2 0x100 DUP4 ISZERO ISZERO DUP2 MUL SWAP2 SWAP1 SWAP2 OR SWAP2 DUP3 SWAP1 SSTORE PUSH1 0x40 DUP1 MLOAD DUP8 DUP2 MSTORE PUSH1 0x20 DUP2 ADD DUP8 SWAP1 MSTORE PUSH1 0xFF DUP1 DUP6 AND ISZERO ISZERO SWAP3 DUP3 ADD SWAP3 SWAP1 SWAP3 MSTORE SWAP2 SWAP1 SWAP3 DIV SWAP1 SWAP2 AND ISZERO ISZERO PUSH1 0x60 DUP3 ADD MSTORE PUSH32 0x9B92998991794EBBDE732C7A96FF16E650DCD4E2CA6DF0081A152AD0BBCA3510 SWAP1 PUSH1 0x80 ADD PUSH1 0x40 MLOAD DUP1 SWAP2 SUB SWAP1 LOG1 POP POP POP POP JUMP JUMPDEST PUSH2 0xDAF PUSH2 0xDFF JUMP JUMPDEST PUSH1 0x1 PUSH1 0x1 PUSH1 0xA0 SHL SUB DUP2 AND PUSH2 0xDD8 JUMPI PUSH1 0x40 MLOAD PUSH4 0x1E4FBDF7 PUSH1 0xE0 SHL DUP2 MSTORE PUSH0 PUSH1 0x4 DUP3 ADD MSTORE PUSH1 0x24 ADD PUSH2 0x4EE JUMP JUMPDEST PUSH2 0xDE1 DUP2 PUSH2 0xE5C JUMP JUMPDEST POP JUMP JUMPDEST PUSH2 0xDEC PUSH2 0xEAB JUMP JUMPDEST PUSH1 0x2 PUSH0 DUP1 MLOAD PUSH1 0x20 PUSH2 0x1259 DUP4 CODECOPY DUP2 MLOAD SWAP2 MSTORE SSTORE JUMP JUMPDEST PUSH2 0xE07 PUSH2 0xEDA JUMP JUMPDEST PUSH1 0x1 PUSH1 0x1 PUSH1 0xA0 SHL SUB AND PUSH2 0xE21 PUSH0 SLOAD PUSH1 0x1 PUSH1 0x1 PUSH1 0xA0 SHL SUB AND SWAP1 JUMP JUMPDEST PUSH1 0x1 PUSH1 0x1 PUSH1 0xA0 SHL SUB AND EQ PUSH2 0x889 JUMPI PUSH2 0xE37 PUSH2 0xEDA JUMP JUMPDEST PUSH1 0x40 MLOAD PUSH4 0x118CDAA7 PUSH1 0xE0 SHL DUP2 MSTORE PUSH1 0x1 PUSH1 0x1 PUSH1 0xA0 SHL SUB SWAP1 SWAP2 AND PUSH1 0x4 DUP3 ADD MSTORE PUSH1 0x24 ADD PUSH2 0x4EE JUMP JUMPDEST PUSH0 DUP1 SLOAD PUSH1 0x1 PUSH1 0x1 PUSH1 0xA0 SHL SUB DUP4 DUP2 AND PUSH1 0x1 PUSH1 0x1 PUSH1 0xA0 SHL SUB NOT DUP4 AND DUP2 OR DUP5 SSTORE PUSH1 0x40 MLOAD SWAP2 SWAP1 SWAP3 AND SWAP3 DUP4 SWAP2 PUSH32 0x8BE0079C531659141344CD1FD0A4F28419497F9722A3DAAFE3B4186F6B6457E0 SWAP2 SWAP1 LOG3 POP POP JUMP JUMPDEST PUSH0 DUP1 MLOAD PUSH1 0x20 PUSH2 0x1259 DUP4 CODECOPY DUP2 MLOAD SWAP2 MSTORE SLOAD PUSH1 0x2 SUB PUSH2 0x889 JUMPI PUSH1 0x40 MLOAD PUSH4 0x3EE5AEB5 PUSH1 0xE0 SHL DUP2 MSTORE PUSH1 0x4 ADD PUSH1 0x40 MLOAD DUP1 SWAP2 SUB SWAP1 REVERT JUMPDEST PUSH0 PUSH2 0xEE3 PUSH2 0xEE8 JUMP JUMPDEST SWAP1 POP SWAP1 JUMP JUMPDEST PUSH0 CALLDATASIZE PUSH1 0x14 DUP1 DUP3 LT DUP1 ISZERO SWAP1 PUSH2 0xF24 JUMPI POP PUSH32 0x0 PUSH1 0x1 PUSH1 0x1 PUSH1 0xA0 SHL SUB AND CALLER EQ JUMPDEST ISZERO PUSH2 0xF4A JUMPI PUSH2 0xF37 CALLDATASIZE DUP3 DUP5 SUB DUP2 PUSH0 PUSH2 0x11FC JUMP JUMPDEST PUSH2 0xF40 SWAP2 PUSH2 0x1223 JUMP JUMPDEST PUSH1 0x60 SHR SWAP3 POP POP POP SWAP1 JUMP JUMPDEST CALLER SWAP3 POP POP POP SWAP1 JUMP JUMPDEST PUSH1 0x1 PUSH1 0x1 PUSH1 0xA0 SHL SUB DUP2 AND DUP2 EQ PUSH2 0xDE1 JUMPI PUSH0 DUP1 REVERT JUMPDEST PUSH0 PUSH1 0x20 DUP3 DUP5 SUB SLT ISZERO PUSH2 0xF76 JUMPI PUSH0 DUP1 REVERT JUMPDEST DUP2 CALLDATALOAD PUSH2 0xF81 DUP2 PUSH2 0xF52 JUMP JUMPDEST SWAP4 SWAP3 POP POP POP JUMP JUMPDEST PUSH0 DUP1 PUSH1 0x40 DUP4 DUP6 SUB SLT ISZERO PUSH2 0xF99 JUMPI PUSH0 DUP1 REVERT JUMPDEST POP POP DUP1 CALLDATALOAD SWAP3 PUSH1 0x20 SWAP1 SWAP2 ADD CALLDATALOAD SWAP2 POP JUMP JUMPDEST PUSH0 PUSH1 0x20 DUP3 DUP5 SUB SLT ISZERO PUSH2 0xFB8 JUMPI PUSH0 DUP1 REVERT JUMPDEST POP CALLDATALOAD SWAP2 SWAP1 POP JUMP JUMPDEST PUSH0 DUP1 PUSH0 PUSH1 0x60 DUP5 DUP7 SUB SLT ISZERO PUSH2 0xFD1 JUMPI PUSH0 DUP1 REVERT JUMPDEST DUP4 CALLDATALOAD SWAP3 POP PUSH1 0x20 DUP5 ADD CALLDATALOAD PUSH2 0xFE3 DUP2 PUSH2 0xF52 JUMP JUMPDEST SWAP3 SWAP6 SWAP3 SWAP5 POP POP POP PUSH1 0x40 SWAP2 SWAP1 SWAP2 ADD CALLDATALOAD SWAP1 JUMP JUMPDEST DUP1 ISZERO ISZERO DUP2 EQ PUSH2 0xDE1 JUMPI PUSH0 DUP1 REVERT JUMPDEST PUSH0 DUP1 PUSH0 DUP1 PUSH1 0x80 DUP6 DUP8 SUB SLT ISZERO PUSH2 0x1014 JUMPI PUSH0 DUP1 REVERT JUMPDEST DUP5 CALLDATALOAD SWAP4 POP PUSH1 0x20 DUP6 ADD CALLDATALOAD SWAP3 POP PUSH1 0x40 DUP6 ADD CALLDATALOAD PUSH2 0x102D DUP2 PUSH2 0xFF4 JUMP JUMPDEST SWAP2 POP PUSH1 0x60 DUP6 ADD CALLDATALOAD PUSH2 0x103D DUP2 PUSH2 0xFF4 JUMP JUMPDEST SWAP4 SWAP7 SWAP3 SWAP6 POP SWAP1 SWAP4 POP POP JUMP JUMPDEST DUP1 MLOAD PUSH2 0x1053 DUP2 PUSH2 0xFF4 JUMP JUMPDEST SWAP2 SWAP1 POP JUMP JUMPDEST PUSH0 PUSH1 0x20 DUP3 DUP5 SUB SLT ISZERO PUSH2 0x1068 JUMPI PUSH0 DUP1 REVERT JUMPDEST DUP2 MLOAD PUSH2 0xF81 DUP2 PUSH2 0xFF4 JUMP JUMPDEST PUSH0 PUSH1 0x20 DUP3 DUP5 SUB SLT ISZERO PUSH2 0x1083 JUMPI PUSH0 DUP1 REVERT JUMPDEST POP MLOAD SWAP2 SWAP1 POP JUMP JUMPDEST PUSH4 0x4E487B71 PUSH1 0xE0 SHL PUSH0 MSTORE PUSH1 0x41 PUSH1 0x4 MSTORE PUSH1 0x24 PUSH0 REVERT JUMPDEST DUP1 MLOAD PUSH2 0x1053 DUP2 PUSH2 0xF52 JUMP JUMPDEST PUSH0 DUP1 PUSH0 DUP1 PUSH0 PUSH1 0xA0 DUP7 DUP9 SUB SLT ISZERO PUSH2 0x10BD JUMPI PUSH0 DUP1 REVERT JUMPDEST DUP6 MLOAD PUSH8 0xFFFFFFFFFFFFFFFF DUP1 DUP3 GT ISZERO PUSH2 0x10D4 JUMPI PUSH0 DUP1 REVERT JUMPDEST DUP2 DUP9 ADD SWAP2 POP DUP9 PUSH1 0x1F DUP4 ADD SLT PUSH2 0x10E7 JUMPI PUSH0 DUP1 REVERT JUMPDEST DUP2 MLOAD DUP2 DUP2 GT ISZERO PUSH2 0x10F9 JUMPI PUSH2 0x10F9 PUSH2 0x108A JUMP JUMPDEST PUSH1 0x40 MLOAD PUSH1 0x1F DUP3 ADD PUSH1 0x1F NOT SWAP1 DUP2 AND PUSH1 0x3F ADD AND DUP2 ADD SWAP1 DUP4 DUP3 GT DUP2 DUP4 LT OR ISZERO PUSH2 0x1121 JUMPI PUSH2 0x1121 PUSH2 0x108A JUMP JUMPDEST DUP2 PUSH1 0x40 MSTORE DUP3 DUP2 MSTORE PUSH1 0x20 SWAP4 POP DUP12 DUP5 DUP5 DUP8 ADD ADD GT ISZERO PUSH2 0x113C JUMPI PUSH0 DUP1 REVERT JUMPDEST PUSH0 SWAP2 POP JUMPDEST DUP3 DUP3 LT ISZERO PUSH2 0x115D JUMPI DUP5 DUP3 ADD DUP5 ADD MLOAD DUP2 DUP4 ADD DUP6 ADD MSTORE SWAP1 DUP4 ADD SWAP1 PUSH2 0x1140 JUMP JUMPDEST PUSH0 DUP5 DUP5 DUP4 ADD ADD MSTORE DUP1 SWAP10 POP POP POP POP PUSH2 0x1175 DUP2 DUP10 ADD PUSH2 0x109E JUMP JUMPDEST SWAP6 POP POP POP PUSH1 0x40 DUP7 ADD MLOAD SWAP3 POP PUSH1 0x60 DUP7 ADD MLOAD SWAP2 POP PUSH2 0x1193 PUSH1 0x80 DUP8 ADD PUSH2 0x1048 JUMP JUMPDEST SWAP1 POP SWAP3 SWAP6 POP SWAP3 SWAP6 SWAP1 SWAP4 POP JUMP JUMPDEST PUSH4 0x4E487B71 PUSH1 0xE0 SHL PUSH0 MSTORE PUSH1 0x11 PUSH1 0x4 MSTORE PUSH1 0x24 PUSH0 REVERT JUMPDEST DUP1 DUP3 ADD DUP1 DUP3 GT ISZERO PUSH2 0x8CE JUMPI PUSH2 0x8CE PUSH2 0x119F JUMP JUMPDEST DUP1 DUP3 MUL DUP2 ISZERO DUP3 DUP3 DIV DUP5 EQ OR PUSH2 0x8CE JUMPI PUSH2 0x8CE PUSH2 0x119F JUMP JUMPDEST PUSH0 DUP3 PUSH2 0x11F7 JUMPI PUSH4 0x4E487B71 PUSH1 0xE0 SHL PUSH0 MSTORE PUSH1 0x12 PUSH1 0x4 MSTORE PUSH1 0x24 PUSH0 REVERT JUMPDEST POP DIV SWAP1 JUMP JUMPDEST PUSH0 DUP1 DUP6 DUP6 GT ISZERO PUSH2 0x120A JUMPI PUSH0 DUP1 REVERT JUMPDEST DUP4 DUP7 GT ISZERO PUSH2 0x1216 JUMPI PUSH0 DUP1 REVERT JUMPDEST POP POP DUP3 ADD SWAP4 SWAP2 SWAP1 SWAP3 SUB SWAP2 POP JUMP JUMPDEST PUSH12 0xFFFFFFFFFFFFFFFFFFFFFFFF NOT DUP2 CALLDATALOAD DUP2 DUP2 AND SWAP2 PUSH1 0x14 DUP6 LT ISZERO PUSH2 0x1250 JUMPI DUP1 DUP2 DUP7 PUSH1 0x14 SUB PUSH1 0x3 SHL SHL DUP4 AND AND SWAP3 POP JUMPDEST POP POP SWAP3 SWAP2 POP POP JUMP INVALID SWAP12 PUSH24 0x9B17422D0DF92223018B32B4D1FA46E071723D6817E2486D STOP EXTCODESIZE 0xEC 0xC5 PUSH0 STOP LOG2 PUSH5 0x6970667358 0x22 SLT KECCAK256 SGT SELFBALANCE PUSH15 0x20EA3ABB19407A58BC6F47B97A1937 CODECOPY SUB DUP9 SWAP12 EXTCODEHASH 0xC0 0xA5 0xDB BALANCE SWAP15 0xB2 EXTCODEHASH SWAP5 0xEE PUSH5 0x736F6C6343 STOP ADDMOD XOR STOP CALLER "},"methodIdentifiers":{"APEX_936()":"6c95a02f","CODE_66()":"20f51e4d","FREQUENCY_432()":"cf6c7bf3","VORTEX_369()":"e810ca4e","baseReward()":"76ad03bc","burnWithVector(bytes32,uint256)":"1059bd36","burningEnabled()":"4d754715","calculateMintAmount(uint256)":"7d30c3e5","dimensionMultiplier()":"bcc5ea6c","getSacredNumbers()":"5e55d977","getUserStats(address)":"4e43603a","getVectorStats(bytes32)":"26095592","isTrustedForwarder(address)":"572b6c05","mintWithVector(bytes32,address,uint256)":"7d9f140d","mintingEnabled()":"9fd6db12","owner()":"8da5cb5b","renounceOwnership()":"715018a6","totalBurned(address)":"53cc973b","totalMinted(address)":"003d4790","transferOwnership(address)":"f2fde38b","trustedForwarder()":"7da0a877","updateConfig(uint256,uint256,bool,bool)":"b12739cd","vectorBurnAmount(bytes32)":"e2109765","vectorMintAmount(bytes32)":"92f31101","vectorMinted(bytes32)":"f9278c55","vectorRegistry()":"aa6bf491","xmoney()":"96763c54"}}}}}