{
  "_format": "hh-sol-artifact-1",
  "contractName": "Forwarder",
  "sourceName": "contracts/Forwarder.sol",
  "abi": [
    {
      "inputs": [],
      "stateMutability": "nonpayable",
      "type": "constructor"
    },
    {
      "inputs": [],
      "name": "ECDSAInvalidSignature",
      "type": "error"
    },
    {
      "inputs": [
        {
          "internalType": "uint256",
          "name": "length",
          "type": "uint256"
        }
      ],
      "name": "ECDSAInvalidSignatureLength",
      "type": "error"
    },
    {
      "inputs": [
        {
          "internalType": "bytes32",
          "name": "s",
          "type": "bytes32"
        }
      ],
      "name": "ECDSAInvalidSignatureS",
      "type": "error"
    },
    {
      "inputs": [],
      "name": "InvalidShortString",
      "type": "error"
    },
    {
      "inputs": [
        {
          "internalType": "string",
          "name": "str",
          "type": "string"
        }
      ],
      "name": "StringTooLong",
      "type": "error"
    },
    {
      "anonymous": false,
      "inputs": [],
      "name": "EIP712DomainChanged",
      "type": "event"
    },
    {
      "anonymous": false,
      "inputs": [
        {
          "indexed": true,
          "internalType": "address",
          "name": "from",
          "type": "address"
        },
        {
          "indexed": true,
          "internalType": "address",
          "name": "to",
          "type": "address"
        },
        {
          "indexed": false,
          "internalType": "uint256",
          "name": "nonce",
          "type": "uint256"
        },
        {
          "indexed": false,
          "internalType": "bool",
          "name": "success",
          "type": "bool"
        },
        {
          "indexed": false,
          "internalType": "bytes",
          "name": "returnData",
          "type": "bytes"
        }
      ],
      "name": "MetaTransactionExecuted",
      "type": "event"
    },
    {
      "inputs": [],
      "name": "eip712Domain",
      "outputs": [
        {
          "internalType": "bytes1",
          "name": "fields",
          "type": "bytes1"
        },
        {
          "internalType": "string",
          "name": "name",
          "type": "string"
        },
        {
          "internalType": "string",
          "name": "version",
          "type": "string"
        },
        {
          "internalType": "uint256",
          "name": "chainId",
          "type": "uint256"
        },
        {
          "internalType": "address",
          "name": "verifyingContract",
          "type": "address"
        },
        {
          "internalType": "bytes32",
          "name": "salt",
          "type": "bytes32"
        },
        {
          "internalType": "uint256[]",
          "name": "extensions",
          "type": "uint256[]"
        }
      ],
      "stateMutability": "view",
      "type": "function"
    },
    {
      "inputs": [
        {
          "components": [
            {
              "internalType": "address",
              "name": "from",
              "type": "address"
            },
            {
              "internalType": "address",
              "name": "to",
              "type": "address"
            },
            {
              "internalType": "uint256",
              "name": "value",
              "type": "uint256"
            },
            {
              "internalType": "uint256",
              "name": "gas",
              "type": "uint256"
            },
            {
              "internalType": "uint256",
              "name": "nonce",
              "type": "uint256"
            },
            {
              "internalType": "bytes",
              "name": "data",
              "type": "bytes"
            }
          ],
          "internalType": "struct Forwarder.ForwardRequest",
          "name": "req",
          "type": "tuple"
        },
        {
          "internalType": "bytes",
          "name": "signature",
          "type": "bytes"
        }
      ],
      "name": "execute",
      "outputs": [
        {
          "internalType": "bool",
          "name": "",
          "type": "bool"
        },
        {
          "internalType": "bytes",
          "name": "",
          "type": "bytes"
        }
      ],
      "stateMutability": "payable",
      "type": "function"
    },
    {
      "inputs": [
        {
          "internalType": "address",
          "name": "from",
          "type": "address"
        }
      ],
      "name": "getNonce",
      "outputs": [
        {
          "internalType": "uint256",
          "name": "",
          "type": "uint256"
        }
      ],
      "stateMutability": "view",
      "type": "function"
    },
    {
      "inputs": [
        {
          "components": [
            {
              "internalType": "address",
              "name": "from",
              "type": "address"
            },
            {
              "internalType": "address",
              "name": "to",
              "type": "address"
            },
            {
              "internalType": "uint256",
              "name": "value",
              "type": "uint256"
            },
            {
              "internalType": "uint256",
              "name": "gas",
              "type": "uint256"
            },
            {
              "internalType": "uint256",
              "name": "nonce",
              "type": "uint256"
            },
            {
              "internalType": "bytes",
              "name": "data",
              "type": "bytes"
            }
          ],
          "internalType": "struct Forwarder.ForwardRequest",
          "name": "req",
          "type": "tuple"
        },
        {
          "internalType": "bytes",
          "name": "signature",
          "type": "bytes"
        }
      ],
      "name": "verify",
      "outputs": [
        {
          "internalType": "bool",
          "name": "",
          "type": "bool"
        }
      ],
      "stateMutability": "view",
      "type": "function"
    }
  ],
  "bytecode": "0x61016060405234801562000011575f80fd5b50604080518082018252600d81526c2c26aa16a337b93bb0b93232b960991b602080830191909152825180840190935260018352603160f81b90830152906200005b825f62000108565b610120526200006c81600162000108565b61014052815160208084019190912060e052815190820120610100524660a052620000f960e05161010051604080517f8b73c3c69bb8fe3d512ecc4cf759cc79239f7b179b0ffacaa9a75d522b39400f60208201529081019290925260608201524660808201523060a08201525f9060c00160405160208183030381529060405280519060200120905090565b60805250503060c05262000367565b5f60208351101562000127576200011f8362000140565b90506200013a565b8162000134848262000229565b5060ff90505b92915050565b5f80829050601f8151111562000176578260405163305a27a960e01b81526004016200016d9190620002f5565b60405180910390fd5b8051620001838262000343565b179392505050565b634e487b7160e01b5f52604160045260245ffd5b600181811c90821680620001b457607f821691505b602082108103620001d357634e487b7160e01b5f52602260045260245ffd5b50919050565b601f8211156200022457805f5260205f20601f840160051c81016020851015620002005750805b601f840160051c820191505b8181101562000221575f81556001016200020c565b50505b505050565b81516001600160401b038111156200024557620002456200018b565b6200025d816200025684546200019f565b84620001d9565b602080601f83116001811462000293575f84156200027b5750858301515b5f19600386901b1c1916600185901b178555620002ed565b5f85815260208120601f198616915b82811015620002c357888601518255948401946001909101908401620002a2565b5085821015620002e157878501515f19600388901b60f8161c191681555b505060018460011b0185555b505050505050565b5f602080835283518060208501525f5b81811015620003235785810183015185820160400152820162000305565b505f604082860101526040601f19601f8301168501019250505092915050565b80516020808301519190811015620001d3575f1960209190910360031b1b16919050565b60805160a05160c05160e051610100516101205161014051610cb5620003b95f395f6104ef01525f6104be01525f6106f101525f6106c901525f61062401525f61064e01525f6106780152610cb55ff3fe60806040526004361061003e575f3560e01c80632d0335ab1461004257806347153f821461008957806384b0196e146100aa578063bf5d3bdb146100d1575b5f80fd5b34801561004d575f80fd5b5061007661005c366004610972565b6001600160a01b03165f9081526002602052604090205490565b6040519081526020015b60405180910390f35b61009c61009736600461099f565b610100565b604051610080929190610a82565b3480156100b5575f80fd5b506100be6102fa565b6040516100809796959493929190610aa4565b3480156100dc575f80fd5b506100f06100eb36600461099f565b61033c565b6040519015158152602001610080565b5f606061010e85858561033c565b6101735760405162461bcd60e51b815260206004820152602b60248201527f466f727761726465723a207369676e617475726520646f6573206e6f74206d6160448201526a1d18da081c995c5d595cdd60aa1b60648201526084015b60405180910390fd5b61018260808601356001610b3b565b60025f6101926020890189610972565b6001600160a01b03166001600160a01b031681526020019081526020015f20819055505f808660200160208101906101ca9190610972565b6001600160a01b0316606088013560408901356101ea60a08b018b610b5a565b6101f760208d018d610972565b60405160200161020993929190610ba4565b60408051601f198184030181529082905261022391610bca565b5f60405180830381858888f193505050503d805f811461025e576040519150601f19603f3d011682016040523d82523d5f602084013e610263565b606091505b509092509050610278603f6060890135610be5565b5a1161028057fe5b6102906040880160208901610972565b6001600160a01b03166102a66020890189610972565b6001600160a01b03167f677445d08543c9aae41ffc1cdb0ea36a1d704694e5ba208e1a6227cbd5797815896080013585856040516102e693929190610c04565b60405180910390a390969095509350505050565b5f6060805f805f606061030b6104b7565b6103136104e8565b604080515f80825260208201909252600f60f81b9b939a50919850469750309650945092509050565b5f8061044d84848080601f0160208091040260200160405190810160405280939291908181526020018383808284375f9201919091525061044792507fdd8f4b70b0f4393e889bd39128a30628a78b61816a9eb8199759e7a349657e4891506103aa905060208a018a610972565b6103ba60408b0160208c01610972565b60408b013560608c013560808d01356103d660a08f018f610b5a565b6040516103e4929190610c24565b6040805191829003822060208301989098526001600160a01b0396871690820152949093166060850152608084019190915260a083015260c082015260e08101919091526101000160405160208183030381529060405280519060200120610515565b90610547565b9050608085013560025f6104646020890189610972565b6001600160a01b03166001600160a01b031681526020019081526020015f20541480156104ae57506104996020860186610972565b6001600160a01b0316816001600160a01b0316145b95945050505050565b60606104e37f00000000000000000000000000000000000000000000000000000000000000005f61056f565b905090565b60606104e37f0000000000000000000000000000000000000000000000000000000000000000600161056f565b5f610541610521610618565b8360405161190160f01b8152600281019290925260228201526042902090565b92915050565b5f805f806105558686610741565b925092509250610565828261078a565b5090949350505050565b606060ff83146105895761058283610846565b9050610541565b81805461059590610c33565b80601f01602080910402602001604051908101604052809291908181526020018280546105c190610c33565b801561060c5780601f106105e35761010080835404028352916020019161060c565b820191905f5260205f20905b8154815290600101906020018083116105ef57829003601f168201915b50505050509050610541565b5f306001600160a01b037f00000000000000000000000000000000000000000000000000000000000000001614801561067057507f000000000000000000000000000000000000000000000000000000000000000046145b1561069a57507f000000000000000000000000000000000000000000000000000000000000000090565b6104e3604080517f8b73c3c69bb8fe3d512ecc4cf759cc79239f7b179b0ffacaa9a75d522b39400f60208201527f0000000000000000000000000000000000000000000000000000000000000000918101919091527f000000000000000000000000000000000000000000000000000000000000000060608201524660808201523060a08201525f9060c00160405160208183030381529060405280519060200120905090565b5f805f8351604103610778576020840151604085015160608601515f1a61076a88828585610883565b955095509550505050610783565b505081515f91506002905b9250925092565b5f82600381111561079d5761079d610c6b565b036107a6575050565b60018260038111156107ba576107ba610c6b565b036107d85760405163f645eedf60e01b815260040160405180910390fd5b60028260038111156107ec576107ec610c6b565b0361080d5760405163fce698f760e01b81526004810182905260240161016a565b600382600381111561082157610821610c6b565b03610842576040516335e2f38360e21b81526004810182905260240161016a565b5050565b60605f6108528361094b565b6040805160208082528183019092529192505f91906020820181803683375050509182525060208101929092525090565b5f80807f7fffffffffffffffffffffffffffffff5d576e7357a4501ddfe92f46681b20a08411156108bc57505f91506003905082610941565b604080515f808252602082018084528a905260ff891692820192909252606081018790526080810186905260019060a0016020604051602081039080840390855afa15801561090d573d5f803e3d5ffd5b5050604051601f1901519150506001600160a01b03811661093857505f925060019150829050610941565b92505f91508190505b9450945094915050565b5f60ff8216601f81111561054157604051632cd44ac360e21b815260040160405180910390fd5b5f60208284031215610982575f80fd5b81356001600160a01b0381168114610998575f80fd5b9392505050565b5f805f604084860312156109b1575f80fd5b833567ffffffffffffffff808211156109c8575f80fd5b9085019060c082880312156109db575f80fd5b909350602085013590808211156109f0575f80fd5b818601915086601f830112610a03575f80fd5b813581811115610a11575f80fd5b876020828501011115610a22575f80fd5b6020830194508093505050509250925092565b5f5b83811015610a4f578181015183820152602001610a37565b50505f910152565b5f8151808452610a6e816020860160208601610a35565b601f01601f19169290920160200192915050565b8215158152604060208201525f610a9c6040830184610a57565b949350505050565b60ff60f81b881681525f602060e06020840152610ac460e084018a610a57565b8381036040850152610ad6818a610a57565b606085018990526001600160a01b038816608086015260a0850187905284810360c0860152855180825260208088019350909101905f5b81811015610b2957835183529284019291840191600101610b0d565b50909c9b505050505050505050505050565b8082018082111561054157634e487b7160e01b5f52601160045260245ffd5b5f808335601e19843603018112610b6f575f80fd5b83018035915067ffffffffffffffff821115610b89575f80fd5b602001915036819003821315610b9d575f80fd5b9250929050565b8284823760609190911b6bffffffffffffffffffffffff19169101908152601401919050565b5f8251610bdb818460208701610a35565b9190910192915050565b5f82610bff57634e487b7160e01b5f52601260045260245ffd5b500490565b8381528215156020820152606060408201525f6104ae6060830184610a57565b818382375f9101908152919050565b600181811c90821680610c4757607f821691505b602082108103610c6557634e487b7160e01b5f52602260045260245ffd5b50919050565b634e487b7160e01b5f52602160045260245ffdfea2646970667358221220405a3a58e8a8387fe3181919c02b3065387ab224ca976594c7a68afba1af91e364736f6c63430008180033",
  "linkReferences": {},
  "deployedLinkReferences": {}
}