{
  "_format": "hh-sol-artifact-1",
  "contractName": "XMoney",
  "sourceName": "contracts/XMoney.sol",
  "abi": [
    {
      "inputs": [],
      "stateMutability": "nonpayable",
      "type": "constructor"
    },
    {
      "inputs": [
        {
          "internalType": "address",
          "name": "spender",
          "type": "address"
        },
        {
          "internalType": "uint256",
          "name": "allowance",
          "type": "uint256"
        },
        {
          "internalType": "uint256",
          "name": "needed",
          "type": "uint256"
        }
      ],
      "name": "ERC20InsufficientAllowance",
      "type": "error"
    },
    {
      "inputs": [
        {
          "internalType": "address",
          "name": "sender",
          "type": "address"
        },
        {
          "internalType": "uint256",
          "name": "balance",
          "type": "uint256"
        },
        {
          "internalType": "uint256",
          "name": "needed",
          "type": "uint256"
        }
      ],
      "name": "ERC20InsufficientBalance",
      "type": "error"
    },
    {
      "inputs": [
        {
          "internalType": "address",
          "name": "approver",
          "type": "address"
        }
      ],
      "name": "ERC20InvalidApprover",
      "type": "error"
    },
    {
      "inputs": [
        {
          "internalType": "address",
          "name": "receiver",
          "type": "address"
        }
      ],
      "name": "ERC20InvalidReceiver",
      "type": "error"
    },
    {
      "inputs": [
        {
          "internalType": "address",
          "name": "sender",
          "type": "address"
        }
      ],
      "name": "ERC20InvalidSender",
      "type": "error"
    },
    {
      "inputs": [
        {
          "internalType": "address",
          "name": "spender",
          "type": "address"
        }
      ],
      "name": "ERC20InvalidSpender",
      "type": "error"
    },
    {
      "inputs": [
        {
          "internalType": "address",
          "name": "owner",
          "type": "address"
        }
      ],
      "name": "OwnableInvalidOwner",
      "type": "error"
    },
    {
      "inputs": [
        {
          "internalType": "address",
          "name": "account",
          "type": "address"
        }
      ],
      "name": "OwnableUnauthorizedAccount",
      "type": "error"
    },
    {
      "anonymous": false,
      "inputs": [
        {
          "indexed": true,
          "internalType": "address",
          "name": "owner",
          "type": "address"
        },
        {
          "indexed": true,
          "internalType": "address",
          "name": "spender",
          "type": "address"
        },
        {
          "indexed": false,
          "internalType": "uint256",
          "name": "value",
          "type": "uint256"
        }
      ],
      "name": "Approval",
      "type": "event"
    },
    {
      "anonymous": false,
      "inputs": [
        {
          "indexed": true,
          "internalType": "address",
          "name": "previousOwner",
          "type": "address"
        },
        {
          "indexed": true,
          "internalType": "address",
          "name": "newOwner",
          "type": "address"
        }
      ],
      "name": "OwnershipTransferred",
      "type": "event"
    },
    {
      "anonymous": false,
      "inputs": [
        {
          "indexed": true,
          "internalType": "address",
          "name": "from",
          "type": "address"
        },
        {
          "indexed": false,
          "internalType": "uint256",
          "name": "amount",
          "type": "uint256"
        },
        {
          "indexed": false,
          "internalType": "uint256",
          "name": "timestamp",
          "type": "uint256"
        }
      ],
      "name": "TokensBurned",
      "type": "event"
    },
    {
      "anonymous": false,
      "inputs": [
        {
          "indexed": true,
          "internalType": "address",
          "name": "to",
          "type": "address"
        },
        {
          "indexed": false,
          "internalType": "uint256",
          "name": "amount",
          "type": "uint256"
        },
        {
          "indexed": false,
          "internalType": "uint256",
          "name": "timestamp",
          "type": "uint256"
        }
      ],
      "name": "TokensMinted",
      "type": "event"
    },
    {
      "anonymous": false,
      "inputs": [
        {
          "indexed": true,
          "internalType": "address",
          "name": "from",
          "type": "address"
        },
        {
          "indexed": true,
          "internalType": "address",
          "name": "to",
          "type": "address"
        },
        {
          "indexed": false,
          "internalType": "uint256",
          "name": "value",
          "type": "uint256"
        }
      ],
      "name": "Transfer",
      "type": "event"
    },
    {
      "inputs": [],
      "name": "APEX_936",
      "outputs": [
        {
          "internalType": "uint256",
          "name": "",
          "type": "uint256"
        }
      ],
      "stateMutability": "view",
      "type": "function"
    },
    {
      "inputs": [],
      "name": "CODE_66",
      "outputs": [
        {
          "internalType": "uint256",
          "name": "",
          "type": "uint256"
        }
      ],
      "stateMutability": "view",
      "type": "function"
    },
    {
      "inputs": [],
      "name": "VORTEX_369",
      "outputs": [
        {
          "internalType": "uint256",
          "name": "",
          "type": "uint256"
        }
      ],
      "stateMutability": "view",
      "type": "function"
    },
    {
      "inputs": [
        {
          "internalType": "address",
          "name": "owner",
          "type": "address"
        },
        {
          "internalType": "address",
          "name": "spender",
          "type": "address"
        }
      ],
      "name": "allowance",
      "outputs": [
        {
          "internalType": "uint256",
          "name": "",
          "type": "uint256"
        }
      ],
      "stateMutability": "view",
      "type": "function"
    },
    {
      "inputs": [
        {
          "internalType": "address",
          "name": "spender",
          "type": "address"
        },
        {
          "internalType": "uint256",
          "name": "value",
          "type": "uint256"
        }
      ],
      "name": "approve",
      "outputs": [
        {
          "internalType": "bool",
          "name": "",
          "type": "bool"
        }
      ],
      "stateMutability": "nonpayable",
      "type": "function"
    },
    {
      "inputs": [
        {
          "internalType": "address",
          "name": "account",
          "type": "address"
        }
      ],
      "name": "balanceOf",
      "outputs": [
        {
          "internalType": "uint256",
          "name": "",
          "type": "uint256"
        }
      ],
      "stateMutability": "view",
      "type": "function"
    },
    {
      "inputs": [
        {
          "internalType": "address",
          "name": "from",
          "type": "address"
        },
        {
          "internalType": "uint256",
          "name": "amount",
          "type": "uint256"
        }
      ],
      "name": "burn",
      "outputs": [],
      "stateMutability": "nonpayable",
      "type": "function"
    },
    {
      "inputs": [],
      "name": "decimals",
      "outputs": [
        {
          "internalType": "uint8",
          "name": "",
          "type": "uint8"
        }
      ],
      "stateMutability": "view",
      "type": "function"
    },
    {
      "inputs": [],
      "name": "getSacredNumbers",
      "outputs": [
        {
          "internalType": "uint256",
          "name": "apex",
          "type": "uint256"
        },
        {
          "internalType": "uint256",
          "name": "vortex",
          "type": "uint256"
        },
        {
          "internalType": "uint256",
          "name": "code",
          "type": "uint256"
        }
      ],
      "stateMutability": "pure",
      "type": "function"
    },
    {
      "inputs": [
        {
          "internalType": "address",
          "name": "to",
          "type": "address"
        },
        {
          "internalType": "uint256",
          "name": "amount",
          "type": "uint256"
        }
      ],
      "name": "mint",
      "outputs": [],
      "stateMutability": "nonpayable",
      "type": "function"
    },
    {
      "inputs": [],
      "name": "name",
      "outputs": [
        {
          "internalType": "string",
          "name": "",
          "type": "string"
        }
      ],
      "stateMutability": "view",
      "type": "function"
    },
    {
      "inputs": [],
      "name": "owner",
      "outputs": [
        {
          "internalType": "address",
          "name": "",
          "type": "address"
        }
      ],
      "stateMutability": "view",
      "type": "function"
    },
    {
      "inputs": [],
      "name": "renounceOwnership",
      "outputs": [],
      "stateMutability": "nonpayable",
      "type": "function"
    },
    {
      "inputs": [],
      "name": "symbol",
      "outputs": [
        {
          "internalType": "string",
          "name": "",
          "type": "string"
        }
      ],
      "stateMutability": "view",
      "type": "function"
    },
    {
      "inputs": [],
      "name": "totalSupply",
      "outputs": [
        {
          "internalType": "uint256",
          "name": "",
          "type": "uint256"
        }
      ],
      "stateMutability": "view",
      "type": "function"
    },
    {
      "inputs": [
        {
          "internalType": "address",
          "name": "to",
          "type": "address"
        },
        {
          "internalType": "uint256",
          "name": "value",
          "type": "uint256"
        }
      ],
      "name": "transfer",
      "outputs": [
        {
          "internalType": "bool",
          "name": "",
          "type": "bool"
        }
      ],
      "stateMutability": "nonpayable",
      "type": "function"
    },
    {
      "inputs": [
        {
          "internalType": "address",
          "name": "from",
          "type": "address"
        },
        {
          "internalType": "address",
          "name": "to",
          "type": "address"
        },
        {
          "internalType": "uint256",
          "name": "value",
          "type": "uint256"
        }
      ],
      "name": "transferFrom",
      "outputs": [
        {
          "internalType": "bool",
          "name": "",
          "type": "bool"
        }
      ],
      "stateMutability": "nonpayable",
      "type": "function"
    },
    {
      "inputs": [
        {
          "internalType": "address",
          "name": "newOwner",
          "type": "address"
        }
      ],
      "name": "transferOwnership",
      "outputs": [],
      "stateMutability": "nonpayable",
      "type": "function"
    }
  ],
  "bytecode": "0x60806040523480156200001157600080fd5b503360405180604001604052806007815260200166582d4d6f6e657960c81b8152506040518060400160405280600381526020016216135560ea1b815250816003908162000060919062000345565b5060046200006f828262000345565b5050506001600160a01b038116620000a257604051631e4fbdf760e01b8152600060048201526024015b60405180910390fd5b620000ad81620000dd565b50620000d733620000c16012600a62000526565b620000d1906315fe7e406200053e565b6200012f565b6200056e565b600580546001600160a01b038381166001600160a01b0319831681179093556040519116919082907f8be0079c531659141344cd1fd0a4f28419497f9722a3daafe3b4186f6b6457e090600090a35050565b6001600160a01b0382166200015b5760405163ec442f0560e01b81526000600482015260240162000099565b62000169600083836200016d565b5050565b6001600160a01b0383166200019c57806002600082825462000190919062000558565b90915550620002109050565b6001600160a01b03831660009081526020819052604090205481811015620001f15760405163391434e360e21b81526001600160a01b0385166004820152602481018290526044810183905260640162000099565b6001600160a01b03841660009081526020819052604090209082900390555b6001600160a01b0382166200022e576002805482900390556200024d565b6001600160a01b03821660009081526020819052604090208054820190555b816001600160a01b0316836001600160a01b03167fddf252ad1be2c89b69c2b068fc378daa952ba7f163c4a11628f55a4df523b3ef836040516200029391815260200190565b60405180910390a3505050565b634e487b7160e01b600052604160045260246000fd5b600181811c90821680620002cb57607f821691505b602082108103620002ec57634e487b7160e01b600052602260045260246000fd5b50919050565b601f8211156200034057600081815260208120601f850160051c810160208610156200031b5750805b601f850160051c820191505b818110156200033c5782815560010162000327565b5050505b505050565b81516001600160401b03811115620003615762000361620002a0565b6200037981620003728454620002b6565b84620002f2565b602080601f831160018114620003b15760008415620003985750858301515b600019600386901b1c1916600185901b1785556200033c565b600085815260208120601f198616915b82811015620003e257888601518255948401946001909101908401620003c1565b5085821015620004015787850151600019600388901b60f8161c191681555b5050505050600190811b01905550565b634e487b7160e01b600052601160045260246000fd5b600181815b80851115620004685781600019048211156200044c576200044c62000411565b808516156200045a57918102915b93841c93908002906200042c565b509250929050565b600082620004815750600162000520565b81620004905750600062000520565b8160018114620004a95760028114620004b457620004d4565b600191505062000520565b60ff841115620004c857620004c862000411565b50506001821b62000520565b5060208310610133831016604e8410600b8410161715620004f9575081810a62000520565b62000505838362000427565b80600019048211156200051c576200051c62000411565b0290505b92915050565b60006200053760ff84168362000470565b9392505050565b808202811582820484141762000520576200052062000411565b8082018082111562000520576200052062000411565b610a2b806200057e6000396000f3fe608060405234801561001057600080fd5b50600436106101165760003560e01c806370a08231116100a25780639dc29fac116100715780639dc29fac1461022c578063a9059cbb1461023f578063dd62ed3e14610252578063e810ca4e1461028b578063f2fde38b1461029457600080fd5b806370a08231146101d8578063715018a6146102015780638da5cb5b1461020957806395d89b411461022457600080fd5b806323b872dd116100e957806323b872dd14610176578063313ce5671461018957806340c10f19146101985780635e55d977146101ad5780636c95a02f146101cf57600080fd5b806306fdde031461011b578063095ea7b31461013957806318160ddd1461015c57806320f51e4d1461016e575b600080fd5b6101236102a7565b6040516101309190610875565b60405180910390f35b61014c6101473660046108df565b610339565b6040519015158152602001610130565b6002545b604051908152602001610130565b610160604281565b61014c610184366004610909565b610353565b60405160128152602001610130565b6101ab6101a63660046108df565b610377565b005b604080516103a881526101716020820152604291810191909152606001610130565b6101606103a881565b6101606101e6366004610945565b6001600160a01b031660009081526020819052604090205490565b6101ab6103d1565b6005546040516001600160a01b039091168152602001610130565b6101236103e5565b6101ab61023a3660046108df565b6103f4565b61014c61024d3660046108df565b610446565b610160610260366004610967565b6001600160a01b03918216600090815260016020908152604080832093909416825291909152205490565b61016061017181565b6101ab6102a2366004610945565b610454565b6060600380546102b69061099a565b80601f01602080910402602001604051908101604052809291908181526020018280546102e29061099a565b801561032f5780601f106103045761010080835404028352916020019161032f565b820191906000526020600020905b81548152906001019060200180831161031257829003601f168201915b5050505050905090565b600033610347818585610497565b60019150505b92915050565b6000336103618582856104a9565b61036c858585610528565b506001949350505050565b61037f610587565b61038982826105b4565b604080518281524260208201526001600160a01b038416917f2e8ac5177a616f2aec08c3048f5021e4e9743ece034e8d83ba5caf76688bb47591015b60405180910390a25050565b6103d9610587565b6103e360006105ee565b565b6060600480546102b69061099a565b6103fc610587565b6104068282610640565b604080518281524260208201526001600160a01b038416917fccbea4088a3b7ae9ca2d15fab9a9742a4075b4d7247768a1eecea917565aba0091016103c5565b600033610347818585610528565b61045c610587565b6001600160a01b03811661048b57604051631e4fbdf760e01b8152600060048201526024015b60405180910390fd5b610494816105ee565b50565b6104a48383836001610676565b505050565b6001600160a01b03838116600090815260016020908152604080832093861683529290522054600019811015610522578181101561051357604051637dc7a0d960e11b81526001600160a01b03841660048201526024810182905260448101839052606401610482565b61052284848484036000610676565b50505050565b6001600160a01b03831661055257604051634b637e8f60e11b815260006004820152602401610482565b6001600160a01b03821661057c5760405163ec442f0560e01b815260006004820152602401610482565b6104a483838361074b565b6005546001600160a01b031633146103e35760405163118cdaa760e01b8152336004820152602401610482565b6001600160a01b0382166105de5760405163ec442f0560e01b815260006004820152602401610482565b6105ea6000838361074b565b5050565b600580546001600160a01b038381166001600160a01b0319831681179093556040519116919082907f8be0079c531659141344cd1fd0a4f28419497f9722a3daafe3b4186f6b6457e090600090a35050565b6001600160a01b03821661066a57604051634b637e8f60e11b815260006004820152602401610482565b6105ea8260008361074b565b6001600160a01b0384166106a05760405163e602df0560e01b815260006004820152602401610482565b6001600160a01b0383166106ca57604051634a1406b160e11b815260006004820152602401610482565b6001600160a01b038085166000908152600160209081526040808320938716835292905220829055801561052257826001600160a01b0316846001600160a01b03167f8c5be1e5ebec7d5bd14f71427d1e84f3dd0314c0f7b2291e5b200ac8c7c3b9258460405161073d91815260200190565b60405180910390a350505050565b6001600160a01b03831661077657806002600082825461076b91906109d4565b909155506107e89050565b6001600160a01b038316600090815260208190526040902054818110156107c95760405163391434e360e21b81526001600160a01b03851660048201526024810182905260448101839052606401610482565b6001600160a01b03841660009081526020819052604090209082900390555b6001600160a01b03821661080457600280548290039055610823565b6001600160a01b03821660009081526020819052604090208054820190555b816001600160a01b0316836001600160a01b03167fddf252ad1be2c89b69c2b068fc378daa952ba7f163c4a11628f55a4df523b3ef8360405161086891815260200190565b60405180910390a3505050565b600060208083528351808285015260005b818110156108a257858101830151858201604001528201610886565b506000604082860101526040601f19601f8301168501019250505092915050565b80356001600160a01b03811681146108da57600080fd5b919050565b600080604083850312156108f257600080fd5b6108fb836108c3565b946020939093013593505050565b60008060006060848603121561091e57600080fd5b610927846108c3565b9250610935602085016108c3565b9150604084013590509250925092565b60006020828403121561095757600080fd5b610960826108c3565b9392505050565b6000806040838503121561097a57600080fd5b610983836108c3565b9150610991602084016108c3565b90509250929050565b600181811c908216806109ae57607f821691505b6020821081036109ce57634e487b7160e01b600052602260045260246000fd5b50919050565b8082018082111561034d57634e487b7160e01b600052601160045260246000fdfea2646970667358221220da3ed7e5fdb00c54ea1a318f4b0c5e077aa85872a2487db688b430daabab946064736f6c63430008140033",
  "linkReferences": {},
  "deployedLinkReferences": {}
}