{
  "_format": "hh-sol-artifact-1",
  "contractName": "XMoney",
  "sourceName": "contracts/XMoney.sol",
  "abi": [
    {
      "inputs": [
        {
          "internalType": "address",
          "name": "trustedForwarder",
          "type": "address"
        }
      ],
      "stateMutability": "nonpayable",
      "type": "constructor"
    },
    {
      "inputs": [],
      "name": "AccessControlBadConfirmation",
      "type": "error"
    },
    {
      "inputs": [
        {
          "internalType": "address",
          "name": "account",
          "type": "address"
        },
        {
          "internalType": "bytes32",
          "name": "neededRole",
          "type": "bytes32"
        }
      ],
      "name": "AccessControlUnauthorizedAccount",
      "type": "error"
    },
    {
      "inputs": [
        {
          "internalType": "address",
          "name": "spender",
          "type": "address"
        },
        {
          "internalType": "uint256",
          "name": "allowance",
          "type": "uint256"
        },
        {
          "internalType": "uint256",
          "name": "needed",
          "type": "uint256"
        }
      ],
      "name": "ERC20InsufficientAllowance",
      "type": "error"
    },
    {
      "inputs": [
        {
          "internalType": "address",
          "name": "sender",
          "type": "address"
        },
        {
          "internalType": "uint256",
          "name": "balance",
          "type": "uint256"
        },
        {
          "internalType": "uint256",
          "name": "needed",
          "type": "uint256"
        }
      ],
      "name": "ERC20InsufficientBalance",
      "type": "error"
    },
    {
      "inputs": [
        {
          "internalType": "address",
          "name": "approver",
          "type": "address"
        }
      ],
      "name": "ERC20InvalidApprover",
      "type": "error"
    },
    {
      "inputs": [
        {
          "internalType": "address",
          "name": "receiver",
          "type": "address"
        }
      ],
      "name": "ERC20InvalidReceiver",
      "type": "error"
    },
    {
      "inputs": [
        {
          "internalType": "address",
          "name": "sender",
          "type": "address"
        }
      ],
      "name": "ERC20InvalidSender",
      "type": "error"
    },
    {
      "inputs": [
        {
          "internalType": "address",
          "name": "spender",
          "type": "address"
        }
      ],
      "name": "ERC20InvalidSpender",
      "type": "error"
    },
    {
      "anonymous": false,
      "inputs": [
        {
          "indexed": true,
          "internalType": "address",
          "name": "owner",
          "type": "address"
        },
        {
          "indexed": true,
          "internalType": "address",
          "name": "spender",
          "type": "address"
        },
        {
          "indexed": false,
          "internalType": "uint256",
          "name": "value",
          "type": "uint256"
        }
      ],
      "name": "Approval",
      "type": "event"
    },
    {
      "anonymous": false,
      "inputs": [
        {
          "indexed": true,
          "internalType": "bytes32",
          "name": "role",
          "type": "bytes32"
        },
        {
          "indexed": true,
          "internalType": "bytes32",
          "name": "previousAdminRole",
          "type": "bytes32"
        },
        {
          "indexed": true,
          "internalType": "bytes32",
          "name": "newAdminRole",
          "type": "bytes32"
        }
      ],
      "name": "RoleAdminChanged",
      "type": "event"
    },
    {
      "anonymous": false,
      "inputs": [
        {
          "indexed": true,
          "internalType": "bytes32",
          "name": "role",
          "type": "bytes32"
        },
        {
          "indexed": true,
          "internalType": "address",
          "name": "account",
          "type": "address"
        },
        {
          "indexed": true,
          "internalType": "address",
          "name": "sender",
          "type": "address"
        }
      ],
      "name": "RoleGranted",
      "type": "event"
    },
    {
      "anonymous": false,
      "inputs": [
        {
          "indexed": true,
          "internalType": "bytes32",
          "name": "role",
          "type": "bytes32"
        },
        {
          "indexed": true,
          "internalType": "address",
          "name": "account",
          "type": "address"
        },
        {
          "indexed": true,
          "internalType": "address",
          "name": "sender",
          "type": "address"
        }
      ],
      "name": "RoleRevoked",
      "type": "event"
    },
    {
      "anonymous": false,
      "inputs": [
        {
          "indexed": true,
          "internalType": "address",
          "name": "from",
          "type": "address"
        },
        {
          "indexed": false,
          "internalType": "uint256",
          "name": "amount",
          "type": "uint256"
        },
        {
          "indexed": false,
          "internalType": "uint256",
          "name": "timestamp",
          "type": "uint256"
        }
      ],
      "name": "TokensBurned",
      "type": "event"
    },
    {
      "anonymous": false,
      "inputs": [
        {
          "indexed": true,
          "internalType": "address",
          "name": "to",
          "type": "address"
        },
        {
          "indexed": false,
          "internalType": "uint256",
          "name": "amount",
          "type": "uint256"
        },
        {
          "indexed": false,
          "internalType": "uint256",
          "name": "timestamp",
          "type": "uint256"
        }
      ],
      "name": "TokensMinted",
      "type": "event"
    },
    {
      "anonymous": false,
      "inputs": [
        {
          "indexed": true,
          "internalType": "address",
          "name": "from",
          "type": "address"
        },
        {
          "indexed": true,
          "internalType": "address",
          "name": "to",
          "type": "address"
        },
        {
          "indexed": false,
          "internalType": "uint256",
          "name": "value",
          "type": "uint256"
        }
      ],
      "name": "Transfer",
      "type": "event"
    },
    {
      "inputs": [],
      "name": "APEX_936",
      "outputs": [
        {
          "internalType": "uint256",
          "name": "",
          "type": "uint256"
        }
      ],
      "stateMutability": "view",
      "type": "function"
    },
    {
      "inputs": [],
      "name": "BURNER_ROLE",
      "outputs": [
        {
          "internalType": "bytes32",
          "name": "",
          "type": "bytes32"
        }
      ],
      "stateMutability": "view",
      "type": "function"
    },
    {
      "inputs": [],
      "name": "CODE_66",
      "outputs": [
        {
          "internalType": "uint256",
          "name": "",
          "type": "uint256"
        }
      ],
      "stateMutability": "view",
      "type": "function"
    },
    {
      "inputs": [],
      "name": "DEFAULT_ADMIN_ROLE",
      "outputs": [
        {
          "internalType": "bytes32",
          "name": "",
          "type": "bytes32"
        }
      ],
      "stateMutability": "view",
      "type": "function"
    },
    {
      "inputs": [],
      "name": "MINTER_ROLE",
      "outputs": [
        {
          "internalType": "bytes32",
          "name": "",
          "type": "bytes32"
        }
      ],
      "stateMutability": "view",
      "type": "function"
    },
    {
      "inputs": [],
      "name": "VORTEX_369",
      "outputs": [
        {
          "internalType": "uint256",
          "name": "",
          "type": "uint256"
        }
      ],
      "stateMutability": "view",
      "type": "function"
    },
    {
      "inputs": [
        {
          "internalType": "address",
          "name": "owner",
          "type": "address"
        },
        {
          "internalType": "address",
          "name": "spender",
          "type": "address"
        }
      ],
      "name": "allowance",
      "outputs": [
        {
          "internalType": "uint256",
          "name": "",
          "type": "uint256"
        }
      ],
      "stateMutability": "view",
      "type": "function"
    },
    {
      "inputs": [
        {
          "internalType": "address",
          "name": "spender",
          "type": "address"
        },
        {
          "internalType": "uint256",
          "name": "value",
          "type": "uint256"
        }
      ],
      "name": "approve",
      "outputs": [
        {
          "internalType": "bool",
          "name": "",
          "type": "bool"
        }
      ],
      "stateMutability": "nonpayable",
      "type": "function"
    },
    {
      "inputs": [
        {
          "internalType": "address",
          "name": "account",
          "type": "address"
        }
      ],
      "name": "balanceOf",
      "outputs": [
        {
          "internalType": "uint256",
          "name": "",
          "type": "uint256"
        }
      ],
      "stateMutability": "view",
      "type": "function"
    },
    {
      "inputs": [
        {
          "internalType": "address",
          "name": "from",
          "type": "address"
        },
        {
          "internalType": "uint256",
          "name": "amount",
          "type": "uint256"
        }
      ],
      "name": "burn",
      "outputs": [],
      "stateMutability": "nonpayable",
      "type": "function"
    },
    {
      "inputs": [],
      "name": "decimals",
      "outputs": [
        {
          "internalType": "uint8",
          "name": "",
          "type": "uint8"
        }
      ],
      "stateMutability": "view",
      "type": "function"
    },
    {
      "inputs": [
        {
          "internalType": "bytes32",
          "name": "role",
          "type": "bytes32"
        }
      ],
      "name": "getRoleAdmin",
      "outputs": [
        {
          "internalType": "bytes32",
          "name": "",
          "type": "bytes32"
        }
      ],
      "stateMutability": "view",
      "type": "function"
    },
    {
      "inputs": [],
      "name": "getSacredNumbers",
      "outputs": [
        {
          "internalType": "uint256",
          "name": "apex",
          "type": "uint256"
        },
        {
          "internalType": "uint256",
          "name": "vortex",
          "type": "uint256"
        },
        {
          "internalType": "uint256",
          "name": "code",
          "type": "uint256"
        }
      ],
      "stateMutability": "pure",
      "type": "function"
    },
    {
      "inputs": [
        {
          "internalType": "bytes32",
          "name": "role",
          "type": "bytes32"
        },
        {
          "internalType": "address",
          "name": "account",
          "type": "address"
        }
      ],
      "name": "grantRole",
      "outputs": [],
      "stateMutability": "nonpayable",
      "type": "function"
    },
    {
      "inputs": [
        {
          "internalType": "bytes32",
          "name": "role",
          "type": "bytes32"
        },
        {
          "internalType": "address",
          "name": "account",
          "type": "address"
        }
      ],
      "name": "hasRole",
      "outputs": [
        {
          "internalType": "bool",
          "name": "",
          "type": "bool"
        }
      ],
      "stateMutability": "view",
      "type": "function"
    },
    {
      "inputs": [
        {
          "internalType": "address",
          "name": "forwarder",
          "type": "address"
        }
      ],
      "name": "isTrustedForwarder",
      "outputs": [
        {
          "internalType": "bool",
          "name": "",
          "type": "bool"
        }
      ],
      "stateMutability": "view",
      "type": "function"
    },
    {
      "inputs": [
        {
          "internalType": "address",
          "name": "to",
          "type": "address"
        },
        {
          "internalType": "uint256",
          "name": "amount",
          "type": "uint256"
        }
      ],
      "name": "mint",
      "outputs": [],
      "stateMutability": "nonpayable",
      "type": "function"
    },
    {
      "inputs": [],
      "name": "name",
      "outputs": [
        {
          "internalType": "string",
          "name": "",
          "type": "string"
        }
      ],
      "stateMutability": "view",
      "type": "function"
    },
    {
      "inputs": [
        {
          "internalType": "bytes32",
          "name": "role",
          "type": "bytes32"
        },
        {
          "internalType": "address",
          "name": "callerConfirmation",
          "type": "address"
        }
      ],
      "name": "renounceRole",
      "outputs": [],
      "stateMutability": "nonpayable",
      "type": "function"
    },
    {
      "inputs": [
        {
          "internalType": "bytes32",
          "name": "role",
          "type": "bytes32"
        },
        {
          "internalType": "address",
          "name": "account",
          "type": "address"
        }
      ],
      "name": "revokeRole",
      "outputs": [],
      "stateMutability": "nonpayable",
      "type": "function"
    },
    {
      "inputs": [
        {
          "internalType": "bytes4",
          "name": "interfaceId",
          "type": "bytes4"
        }
      ],
      "name": "supportsInterface",
      "outputs": [
        {
          "internalType": "bool",
          "name": "",
          "type": "bool"
        }
      ],
      "stateMutability": "view",
      "type": "function"
    },
    {
      "inputs": [],
      "name": "symbol",
      "outputs": [
        {
          "internalType": "string",
          "name": "",
          "type": "string"
        }
      ],
      "stateMutability": "view",
      "type": "function"
    },
    {
      "inputs": [],
      "name": "totalSupply",
      "outputs": [
        {
          "internalType": "uint256",
          "name": "",
          "type": "uint256"
        }
      ],
      "stateMutability": "view",
      "type": "function"
    },
    {
      "inputs": [
        {
          "internalType": "address",
          "name": "to",
          "type": "address"
        },
        {
          "internalType": "uint256",
          "name": "value",
          "type": "uint256"
        }
      ],
      "name": "transfer",
      "outputs": [
        {
          "internalType": "bool",
          "name": "",
          "type": "bool"
        }
      ],
      "stateMutability": "nonpayable",
      "type": "function"
    },
    {
      "inputs": [
        {
          "internalType": "address",
          "name": "from",
          "type": "address"
        },
        {
          "internalType": "address",
          "name": "to",
          "type": "address"
        },
        {
          "internalType": "uint256",
          "name": "value",
          "type": "uint256"
        }
      ],
      "name": "transferFrom",
      "outputs": [
        {
          "internalType": "bool",
          "name": "",
          "type": "bool"
        }
      ],
      "stateMutability": "nonpayable",
      "type": "function"
    },
    {
      "inputs": [],
      "name": "trustedForwarder",
      "outputs": [
        {
          "internalType": "address",
          "name": "",
          "type": "address"
        }
      ],
      "stateMutability": "view",
      "type": "function"
    }
  ],
  "bytecode": "0x60a060405234801562000010575f80fd5b50604051620015df380380620015df8339810160408190526200003391620003db565b8060405180604001604052806007815260200166582d4d6f6e657960c81b8152506040518060400160405280600381526020016216135560ea1b8152508160039081620000819190620004a8565b506004620000908282620004a8565b5050506001600160a01b0316608052620000ab5f3362000136565b50620000d87f9f2df0fed2c77648de5860a4cc508cd0818c85b8b8a1ab4ceeef8d981c8956a63362000136565b50620001057f3c11d16cbaffd01df69ce1c404f6340ee057498f5f00246190ea54220576a8483362000136565b506200012f33620001196012600a62000681565b62000129906315fe7e4062000691565b620001e8565b506200071b565b5f8281526005602090815260408083206001600160a01b038516845290915281205460ff16620001df575f8381526005602090815260408083206001600160a01b03861684529091529020805460ff191660011790556200019662000228565b6001600160a01b0316826001600160a01b0316847f2f8788117e7eff1d82e926ec794901d17c78024a50270940304540a733656f0d60405160405180910390a4506001620001e2565b505f5b92915050565b6001600160a01b038216620002175760405163ec442f0560e01b81525f60048201526024015b60405180910390fd5b620002245f838362000238565b5050565b5f6200023362000367565b905090565b6001600160a01b03831662000266578060025f8282546200025a9190620006ab565b90915550620002d89050565b6001600160a01b0383165f9081526020819052604090205481811015620002ba5760405163391434e360e21b81526001600160a01b038516600482015260248101829052604481018390526064016200020e565b6001600160a01b0384165f9081526020819052604090209082900390555b6001600160a01b038216620002f65760028054829003905562000314565b6001600160a01b0382165f9081526020819052604090208054820190555b816001600160a01b0316836001600160a01b03167fddf252ad1be2c89b69c2b068fc378daa952ba7f163c4a11628f55a4df523b3ef836040516200035a91815260200190565b60405180910390a3505050565b5f3660148082108015906200038257506200038233620003b5565b15620003ad576200039836828403815f620006c1565b620003a391620006ea565b60601c9250505090565b339250505090565b5f620003c060805190565b6001600160a01b0316826001600160a01b0316149050919050565b5f60208284031215620003ec575f80fd5b81516001600160a01b038116811462000403575f80fd5b9392505050565b634e487b7160e01b5f52604160045260245ffd5b600181811c908216806200043357607f821691505b6020821081036200045257634e487b7160e01b5f52602260045260245ffd5b50919050565b601f821115620004a357805f5260205f20601f840160051c810160208510156200047f5750805b601f840160051c820191505b81811015620004a0575f81556001016200048b565b50505b505050565b81516001600160401b03811115620004c457620004c46200040a565b620004dc81620004d584546200041e565b8462000458565b602080601f83116001811462000512575f8415620004fa5750858301515b5f19600386901b1c1916600185901b1785556200056c565b5f85815260208120601f198616915b82811015620005425788860151825594840194600190910190840162000521565b50858210156200056057878501515f19600388901b60f8161c191681555b505060018460011b0185555b505050505050565b634e487b7160e01b5f52601160045260245ffd5b600181815b80851115620005c857815f1904821115620005ac57620005ac62000574565b80851615620005ba57918102915b93841c93908002906200058d565b509250929050565b5f82620005e057506001620001e2565b81620005ee57505f620001e2565b8160018114620006075760028114620006125762000632565b6001915050620001e2565b60ff84111562000626576200062662000574565b50506001821b620001e2565b5060208310610133831016604e8410600b841016171562000657575081810a620001e2565b62000663838362000588565b805f190482111562000679576200067962000574565b029392505050565b5f6200040360ff841683620005d0565b8082028115828204841417620001e257620001e262000574565b80820180821115620001e257620001e262000574565b5f8085851115620006d0575f80fd5b83861115620006dd575f80fd5b5050820193919092039150565b6001600160601b03198135818116916014851015620007135780818660140360031b1b83161692505b505092915050565b608051610e9d620007425f395f81816102ab0152818161033b01526109b20152610e9d5ff3fe608060405234801561000f575f80fd5b5060043610610187575f3560e01c80635e55d977116100d95780639dc29fac11610093578063d53913931161006e578063d5391393146103ad578063d547741f146103d4578063dd62ed3e146103e7578063e810ca4e1461041f575f80fd5b80639dc29fac14610380578063a217fddf14610393578063a9059cbb1461039a575f80fd5b80635e55d977146102db5780636c95a02f146102fd57806370a08231146103065780637da0a8771461032e57806391d148541461036557806395d89b4114610378575f80fd5b8063248a9ca311610144578063313ce5671161011f578063313ce5671461026657806336568abe1461027557806340c10f1914610288578063572b6c051461029b575f80fd5b8063248a9ca314610208578063282c51f31461022a5780632f2ff15d14610251575f80fd5b806301ffc9a71461018b57806306fdde03146101b3578063095ea7b3146101c857806318160ddd146101db57806320f51e4d146101ed57806323b872dd146101f5575b5f80fd5b61019e610199366004610c3c565b610428565b60405190151581526020015b60405180910390f35b6101bb61045e565b6040516101aa9190610c6a565b61019e6101d6366004610cd1565b6104ee565b6002545b6040519081526020016101aa565b6101df604281565b61019e610203366004610cf9565b61050f565b6101df610216366004610d32565b5f9081526005602052604090206001015490565b6101df7f3c11d16cbaffd01df69ce1c404f6340ee057498f5f00246190ea54220576a84881565b61026461025f366004610d49565b61053c565b005b604051601281526020016101aa565b610264610283366004610d49565b610566565b610264610296366004610cd1565b6105ae565b61019e6102a9366004610d73565b7f00000000000000000000000000000000000000000000000000000000000000006001600160a01b0390811691161490565b604080516103a8815261017160208201526042918101919091526060016101aa565b6101df6103a881565b6101df610314366004610d73565b6001600160a01b03165f9081526020819052604090205490565b6040516001600160a01b037f00000000000000000000000000000000000000000000000000000000000000001681526020016101aa565b61019e610373366004610d49565b61062b565b6101bb610655565b61026461038e366004610cd1565b610664565b6101df5f81565b61019e6103a8366004610cd1565b6106d8565b6101df7f9f2df0fed2c77648de5860a4cc508cd0818c85b8b8a1ab4ceeef8d981c8956a681565b6102646103e2366004610d49565b6106ef565b6101df6103f5366004610d8c565b6001600160a01b039182165f90815260016020908152604080832093909416825291909152205490565b6101df61017181565b5f6001600160e01b03198216637965db0b60e01b148061045857506301ffc9a760e01b6001600160e01b03198316145b92915050565b60606003805461046d90610db4565b80601f016020809104026020016040519081016040528092919081815260200182805461049990610db4565b80156104e45780601f106104bb576101008083540402835291602001916104e4565b820191905f5260205f20905b8154815290600101906020018083116104c757829003601f168201915b5050505050905090565b5f806104f8610713565b9050610505818585610721565b5060019392505050565b5f80610519610713565b905061052685828561072e565b6105318585856107a9565b506001949350505050565b5f8281526005602052604090206001015461055681610806565b610560838361081a565b50505050565b61056e610713565b6001600160a01b0316816001600160a01b03161461059f5760405163334bd91960e11b815260040160405180910390fd5b6105a982826108ac565b505050565b7f9f2df0fed2c77648de5860a4cc508cd0818c85b8b8a1ab4ceeef8d981c8956a66105d881610806565b6105e28383610935565b604080518381524260208201526001600160a01b038516917f2e8ac5177a616f2aec08c3048f5021e4e9743ece034e8d83ba5caf76688bb47591015b60405180910390a2505050565b5f9182526005602090815260408084206001600160a01b0393909316845291905290205460ff1690565b60606004805461046d90610db4565b7f3c11d16cbaffd01df69ce1c404f6340ee057498f5f00246190ea54220576a84861068e81610806565b610698838361096d565b604080518381524260208201526001600160a01b038516917fccbea4088a3b7ae9ca2d15fab9a9742a4075b4d7247768a1eecea917565aba00910161061e565b5f806106e2610713565b90506105058185856107a9565b5f8281526005602052604090206001015461070981610806565b61056083836108ac565b5f61071c6109a1565b905090565b6105a98383836001610a0b565b6001600160a01b038381165f908152600160209081526040808320938616835292905220545f19811015610560578181101561079b57604051637dc7a0d960e11b81526001600160a01b038416600482015260248101829052604481018390526064015b60405180910390fd5b61056084848484035f610a0b565b6001600160a01b0383166107d257604051634b637e8f60e11b81525f6004820152602401610792565b6001600160a01b0382166107fb5760405163ec442f0560e01b81525f6004820152602401610792565b6105a9838383610add565b61081781610812610713565b610c03565b50565b5f610825838361062b565b6108a5575f8381526005602090815260408083206001600160a01b03861684529091529020805460ff1916600117905561085d610713565b6001600160a01b0316826001600160a01b0316847f2f8788117e7eff1d82e926ec794901d17c78024a50270940304540a733656f0d60405160405180910390a4506001610458565b505f610458565b5f6108b7838361062b565b156108a5575f8381526005602090815260408083206001600160a01b03861684529091529020805460ff191690556108ed610713565b6001600160a01b0316826001600160a01b0316847ff6391f5c32d9c69d2a47ea670b442974b53935d1edc7fd64eb21e047a839171b60405160405180910390a4506001610458565b6001600160a01b03821661095e5760405163ec442f0560e01b81525f6004820152602401610792565b6109695f8383610add565b5050565b6001600160a01b03821661099657604051634b637e8f60e11b81525f6004820152602401610792565b610969825f83610add565b5f3660148082108015906109dd57507f00000000000000000000000000000000000000000000000000000000000000006001600160a01b031633145b15610a03576109f036828403815f610dec565b6109f991610e13565b60601c9250505090565b339250505090565b6001600160a01b038416610a345760405163e602df0560e01b81525f6004820152602401610792565b6001600160a01b038316610a5d57604051634a1406b160e11b81525f6004820152602401610792565b6001600160a01b038085165f908152600160209081526040808320938716835292905220829055801561056057826001600160a01b0316846001600160a01b03167f8c5be1e5ebec7d5bd14f71427d1e84f3dd0314c0f7b2291e5b200ac8c7c3b92584604051610acf91815260200190565b60405180910390a350505050565b6001600160a01b038316610b07578060025f828254610afc9190610e48565b90915550610b779050565b6001600160a01b0383165f9081526020819052604090205481811015610b595760405163391434e360e21b81526001600160a01b03851660048201526024810182905260448101839052606401610792565b6001600160a01b0384165f9081526020819052604090209082900390555b6001600160a01b038216610b9357600280548290039055610bb1565b6001600160a01b0382165f9081526020819052604090208054820190555b816001600160a01b0316836001600160a01b03167fddf252ad1be2c89b69c2b068fc378daa952ba7f163c4a11628f55a4df523b3ef83604051610bf691815260200190565b60405180910390a3505050565b610c0d828261062b565b6109695760405163e2517d3f60e01b81526001600160a01b038216600482015260248101839052604401610792565b5f60208284031215610c4c575f80fd5b81356001600160e01b031981168114610c63575f80fd5b9392505050565b5f602080835283518060208501525f5b81811015610c9657858101830151858201604001528201610c7a565b505f604082860101526040601f19601f8301168501019250505092915050565b80356001600160a01b0381168114610ccc575f80fd5b919050565b5f8060408385031215610ce2575f80fd5b610ceb83610cb6565b946020939093013593505050565b5f805f60608486031215610d0b575f80fd5b610d1484610cb6565b9250610d2260208501610cb6565b9150604084013590509250925092565b5f60208284031215610d42575f80fd5b5035919050565b5f8060408385031215610d5a575f80fd5b82359150610d6a60208401610cb6565b90509250929050565b5f60208284031215610d83575f80fd5b610c6382610cb6565b5f8060408385031215610d9d575f80fd5b610da683610cb6565b9150610d6a60208401610cb6565b600181811c90821680610dc857607f821691505b602082108103610de657634e487b7160e01b5f52602260045260245ffd5b50919050565b5f8085851115610dfa575f80fd5b83861115610e06575f80fd5b5050820193919092039150565b6bffffffffffffffffffffffff198135818116916014851015610e405780818660140360031b1b83161692505b505092915050565b8082018082111561045857634e487b7160e01b5f52601160045260245ffdfea2646970667358221220cd78b10bcecf2568bf5ef15e26503ba57ae2533d5657232b5fe561177c425f6c64736f6c63430008180033",
  "linkReferences": {},
  "deployedLinkReferences": {}
}