{
  "_format": "hh-sol-artifact-1",
  "contractName": "VectorMinter",
  "sourceName": "contracts/VectorMinter.sol",
  "abi": [
    {
      "inputs": [
        {
          "internalType": "address",
          "name": "_vectorRegistry",
          "type": "address"
        },
        {
          "internalType": "address",
          "name": "_xmoney",
          "type": "address"
        }
      ],
      "stateMutability": "nonpayable",
      "type": "constructor"
    },
    {
      "inputs": [
        {
          "internalType": "address",
          "name": "owner",
          "type": "address"
        }
      ],
      "name": "OwnableInvalidOwner",
      "type": "error"
    },
    {
      "inputs": [
        {
          "internalType": "address",
          "name": "account",
          "type": "address"
        }
      ],
      "name": "OwnableUnauthorizedAccount",
      "type": "error"
    },
    {
      "inputs": [],
      "name": "ReentrancyGuardReentrantCall",
      "type": "error"
    },
    {
      "anonymous": false,
      "inputs": [
        {
          "indexed": false,
          "internalType": "uint256",
          "name": "baseReward",
          "type": "uint256"
        },
        {
          "indexed": false,
          "internalType": "uint256",
          "name": "dimensionMultiplier",
          "type": "uint256"
        },
        {
          "indexed": false,
          "internalType": "bool",
          "name": "mintingEnabled",
          "type": "bool"
        },
        {
          "indexed": false,
          "internalType": "bool",
          "name": "burningEnabled",
          "type": "bool"
        }
      ],
      "name": "ConfigUpdated",
      "type": "event"
    },
    {
      "anonymous": false,
      "inputs": [
        {
          "indexed": true,
          "internalType": "address",
          "name": "previousOwner",
          "type": "address"
        },
        {
          "indexed": true,
          "internalType": "address",
          "name": "newOwner",
          "type": "address"
        }
      ],
      "name": "OwnershipTransferred",
      "type": "event"
    },
    {
      "anonymous": false,
      "inputs": [
        {
          "indexed": true,
          "internalType": "bytes32",
          "name": "vectorHash",
          "type": "bytes32"
        },
        {
          "indexed": true,
          "internalType": "address",
          "name": "burner",
          "type": "address"
        },
        {
          "indexed": false,
          "internalType": "uint256",
          "name": "amount",
          "type": "uint256"
        },
        {
          "indexed": false,
          "internalType": "uint256",
          "name": "timestamp",
          "type": "uint256"
        }
      ],
      "name": "VectorBurned",
      "type": "event"
    },
    {
      "anonymous": false,
      "inputs": [
        {
          "indexed": true,
          "internalType": "bytes32",
          "name": "vectorHash",
          "type": "bytes32"
        },
        {
          "indexed": true,
          "internalType": "address",
          "name": "recipient",
          "type": "address"
        },
        {
          "indexed": false,
          "internalType": "uint256",
          "name": "amount",
          "type": "uint256"
        },
        {
          "indexed": false,
          "internalType": "uint256",
          "name": "dimensions",
          "type": "uint256"
        },
        {
          "indexed": false,
          "internalType": "uint256",
          "name": "timestamp",
          "type": "uint256"
        }
      ],
      "name": "VectorMinted",
      "type": "event"
    },
    {
      "inputs": [],
      "name": "APEX_936",
      "outputs": [
        {
          "internalType": "uint256",
          "name": "",
          "type": "uint256"
        }
      ],
      "stateMutability": "view",
      "type": "function"
    },
    {
      "inputs": [],
      "name": "CODE_66",
      "outputs": [
        {
          "internalType": "uint256",
          "name": "",
          "type": "uint256"
        }
      ],
      "stateMutability": "view",
      "type": "function"
    },
    {
      "inputs": [],
      "name": "FREQUENCY_432",
      "outputs": [
        {
          "internalType": "uint256",
          "name": "",
          "type": "uint256"
        }
      ],
      "stateMutability": "view",
      "type": "function"
    },
    {
      "inputs": [],
      "name": "VORTEX_369",
      "outputs": [
        {
          "internalType": "uint256",
          "name": "",
          "type": "uint256"
        }
      ],
      "stateMutability": "view",
      "type": "function"
    },
    {
      "inputs": [],
      "name": "baseReward",
      "outputs": [
        {
          "internalType": "uint256",
          "name": "",
          "type": "uint256"
        }
      ],
      "stateMutability": "view",
      "type": "function"
    },
    {
      "inputs": [
        {
          "internalType": "bytes32",
          "name": "vectorHash",
          "type": "bytes32"
        },
        {
          "internalType": "uint256",
          "name": "amount",
          "type": "uint256"
        }
      ],
      "name": "burnWithVector",
      "outputs": [],
      "stateMutability": "nonpayable",
      "type": "function"
    },
    {
      "inputs": [],
      "name": "burningEnabled",
      "outputs": [
        {
          "internalType": "bool",
          "name": "",
          "type": "bool"
        }
      ],
      "stateMutability": "view",
      "type": "function"
    },
    {
      "inputs": [
        {
          "internalType": "uint256",
          "name": "dimensions",
          "type": "uint256"
        }
      ],
      "name": "calculateMintAmount",
      "outputs": [
        {
          "internalType": "uint256",
          "name": "",
          "type": "uint256"
        }
      ],
      "stateMutability": "view",
      "type": "function"
    },
    {
      "inputs": [],
      "name": "dimensionMultiplier",
      "outputs": [
        {
          "internalType": "uint256",
          "name": "",
          "type": "uint256"
        }
      ],
      "stateMutability": "view",
      "type": "function"
    },
    {
      "inputs": [],
      "name": "getSacredNumbers",
      "outputs": [
        {
          "internalType": "uint256",
          "name": "apex",
          "type": "uint256"
        },
        {
          "internalType": "uint256",
          "name": "vortex",
          "type": "uint256"
        },
        {
          "internalType": "uint256",
          "name": "code",
          "type": "uint256"
        },
        {
          "internalType": "uint256",
          "name": "frequency",
          "type": "uint256"
        }
      ],
      "stateMutability": "pure",
      "type": "function"
    },
    {
      "inputs": [
        {
          "internalType": "address",
          "name": "user",
          "type": "address"
        }
      ],
      "name": "getUserStats",
      "outputs": [
        {
          "internalType": "uint256",
          "name": "minted",
          "type": "uint256"
        },
        {
          "internalType": "uint256",
          "name": "burned",
          "type": "uint256"
        }
      ],
      "stateMutability": "view",
      "type": "function"
    },
    {
      "inputs": [
        {
          "internalType": "bytes32",
          "name": "vectorHash",
          "type": "bytes32"
        }
      ],
      "name": "getVectorStats",
      "outputs": [
        {
          "internalType": "bool",
          "name": "minted",
          "type": "bool"
        },
        {
          "internalType": "uint256",
          "name": "mintAmount",
          "type": "uint256"
        },
        {
          "internalType": "uint256",
          "name": "burnAmount",
          "type": "uint256"
        }
      ],
      "stateMutability": "view",
      "type": "function"
    },
    {
      "inputs": [
        {
          "internalType": "bytes32",
          "name": "vectorHash",
          "type": "bytes32"
        },
        {
          "internalType": "address",
          "name": "recipient",
          "type": "address"
        },
        {
          "internalType": "uint256",
          "name": "customAmount",
          "type": "uint256"
        }
      ],
      "name": "mintWithVector",
      "outputs": [],
      "stateMutability": "nonpayable",
      "type": "function"
    },
    {
      "inputs": [],
      "name": "mintingEnabled",
      "outputs": [
        {
          "internalType": "bool",
          "name": "",
          "type": "bool"
        }
      ],
      "stateMutability": "view",
      "type": "function"
    },
    {
      "inputs": [],
      "name": "owner",
      "outputs": [
        {
          "internalType": "address",
          "name": "",
          "type": "address"
        }
      ],
      "stateMutability": "view",
      "type": "function"
    },
    {
      "inputs": [],
      "name": "renounceOwnership",
      "outputs": [],
      "stateMutability": "nonpayable",
      "type": "function"
    },
    {
      "inputs": [
        {
          "internalType": "address",
          "name": "",
          "type": "address"
        }
      ],
      "name": "totalBurned",
      "outputs": [
        {
          "internalType": "uint256",
          "name": "",
          "type": "uint256"
        }
      ],
      "stateMutability": "view",
      "type": "function"
    },
    {
      "inputs": [
        {
          "internalType": "address",
          "name": "",
          "type": "address"
        }
      ],
      "name": "totalMinted",
      "outputs": [
        {
          "internalType": "uint256",
          "name": "",
          "type": "uint256"
        }
      ],
      "stateMutability": "view",
      "type": "function"
    },
    {
      "inputs": [
        {
          "internalType": "address",
          "name": "newOwner",
          "type": "address"
        }
      ],
      "name": "transferOwnership",
      "outputs": [],
      "stateMutability": "nonpayable",
      "type": "function"
    },
    {
      "inputs": [
        {
          "internalType": "uint256",
          "name": "_baseReward",
          "type": "uint256"
        },
        {
          "internalType": "uint256",
          "name": "_dimensionMultiplier",
          "type": "uint256"
        },
        {
          "internalType": "bool",
          "name": "_mintingEnabled",
          "type": "bool"
        },
        {
          "internalType": "bool",
          "name": "_burningEnabled",
          "type": "bool"
        }
      ],
      "name": "updateConfig",
      "outputs": [],
      "stateMutability": "nonpayable",
      "type": "function"
    },
    {
      "inputs": [
        {
          "internalType": "bytes32",
          "name": "",
          "type": "bytes32"
        }
      ],
      "name": "vectorBurnAmount",
      "outputs": [
        {
          "internalType": "uint256",
          "name": "",
          "type": "uint256"
        }
      ],
      "stateMutability": "view",
      "type": "function"
    },
    {
      "inputs": [
        {
          "internalType": "bytes32",
          "name": "",
          "type": "bytes32"
        }
      ],
      "name": "vectorMintAmount",
      "outputs": [
        {
          "internalType": "uint256",
          "name": "",
          "type": "uint256"
        }
      ],
      "stateMutability": "view",
      "type": "function"
    },
    {
      "inputs": [
        {
          "internalType": "bytes32",
          "name": "",
          "type": "bytes32"
        }
      ],
      "name": "vectorMinted",
      "outputs": [
        {
          "internalType": "bool",
          "name": "",
          "type": "bool"
        }
      ],
      "stateMutability": "view",
      "type": "function"
    },
    {
      "inputs": [],
      "name": "vectorRegistry",
      "outputs": [
        {
          "internalType": "contract IVectorRegistry",
          "name": "",
          "type": "address"
        }
      ],
      "stateMutability": "view",
      "type": "function"
    },
    {
      "inputs": [],
      "name": "xmoney",
      "outputs": [
        {
          "internalType": "contract IXMoney",
          "name": "",
          "type": "address"
        }
      ],
      "stateMutability": "view",
      "type": "function"
    }
  ],
  "bytecode": "0x6080604052681400e758f44724000060035560016004556005805461ffff191661010117905534801561003157600080fd5b50604051620012f8380380620012f883398101604081905261005291610143565b338061007857604051631e4fbdf760e01b81526000600482015260240160405180910390fd5b610081816100d7565b5060017f9b779b17422d0df92223018b32b4d1fa46e071723d6817e2486d003becc55f0055600180546001600160a01b039384166001600160a01b03199182161790915560028054929093169116179055610176565b600080546001600160a01b038381166001600160a01b0319831681178455604051919092169283917f8be0079c531659141344cd1fd0a4f28419497f9722a3daafe3b4186f6b6457e09190a35050565b80516001600160a01b038116811461013e57600080fd5b919050565b6000806040838503121561015657600080fd5b61015f83610127565b915061016d60208401610127565b90509250929050565b61117280620001866000396000f3fe608060405234801561001057600080fd5b50600436106101725760003560e01c80637d9f140d116100de578063b12739cd11610097578063e210976511610071578063e2109765146103b3578063e810ca4e146103d3578063f2fde38b146103dc578063f9278c55146103ef57600080fd5b8063b12739cd1461038e578063bcc5ea6c146103a1578063cf6c7bf3146103aa57600080fd5b80637d9f140d146103035780638da5cb5b1461031657806392f311011461033b57806396763c541461035b5780639fd6db121461036e578063aa6bf4911461037b57600080fd5b806353cc973b1161013057806353cc973b1461028c5780635e55d977146102ac5780636c95a02f146102d6578063715018a6146102df57806376ad03bc146102e75780637d30c3e5146102f057600080fd5b80623d4790146101775780631059bd36146101aa57806320f51e4d146101bf57806326095592146101c75780634d7547151461021f5780634e43603a14610241575b600080fd5b610197610185366004610e65565b60096020526000908152604090205481565b6040519081526020015b60405180910390f35b6101bd6101b8366004610e89565b610412565b005b610197604281565b6102026101d5366004610eab565b6000818152600660209081526040808320546007835281842054600890935292205460ff90921693909250565b6040805193151584526020840192909252908201526060016101a1565b60055461023190610100900460ff1681565b60405190151581526020016101a1565b61027761024f366004610e65565b6001600160a01b0316600090815260096020908152604080832054600a909252909120549091565b604080519283526020830191909152016101a1565b61019761029a366004610e65565b600a6020526000908152604090205481565b604080516103a8815261017160208201526042918101919091526101b060608201526080016101a1565b6101976103a881565b6101bd610803565b61019760035481565b6101976102fe366004610eab565b610817565b6101bd610311366004610ec4565b610861565b6000546001600160a01b03165b6040516001600160a01b0390911681526020016101a1565b610197610349366004610eab565b60076020526000908152604090205481565b600254610323906001600160a01b031681565b6005546102319060ff1681565b600154610323906001600160a01b031681565b6101bd61039c366004610f0a565b610cb8565b61019760045481565b6101976101b081565b6101976103c1366004610eab565b60086020526000908152604090205481565b61019761017181565b6101bd6103ea366004610e65565b610d49565b6102316103fd366004610eab565b60066020526000908152604090205460ff1681565b61041a610d87565b600554610100900460ff1661046c5760405162461bcd60e51b8152602060048201526013602482015272109d5c9b9a5b99c81a5cc8191a5cd8589b1959606a1b60448201526064015b60405180910390fd5b600154604051637090de7f60e11b8152600481018490526001600160a01b039091169063e121bcfe90602401602060405180830381865afa1580156104b5573d6000803e3d6000fd5b505050506040513d601f19601f820116820180604052508101906104d99190610f64565b61051d5760405162461bcd60e51b8152602060048201526015602482015274159958dd1bdc881b9bdd081c9959da5cdd195c9959605a1b6044820152606401610463565b6002546040516370a0823160e01b815233600482015282916001600160a01b0316906370a0823190602401602060405180830381865afa158015610565573d6000803e3d6000fd5b505050506040513d601f19601f820116820180604052508101906105899190610f81565b10156105ce5760405162461bcd60e51b8152602060048201526014602482015273496e73756666696369656e742062616c616e636560601b6044820152606401610463565b60015460405163c443658760e01b81526004810184905260009182918291829182916001600160a01b03169063c443658790602401600060405180830381865afa158015610620573d6000803e3d6000fd5b505050506040513d6000823e601f3d908101601f191682016040526106489190810190610fbb565b94509450945094509450806106975760405162461bcd60e51b8152602060048201526015602482015274159958dd1bdc88191bd95cc81b9bdd08195e1a5cdd605a1b6044820152606401610463565b600087815260086020526040812080548892906106b59084906110d0565b9091555050336000908152600a6020526040812080548892906106d99084906110d0565b9091555050600254604051632770a7eb60e21b8152336004820152602481018890526001600160a01b0390911690639dc29fac90604401600060405180830381600087803b15801561072a57600080fd5b505af115801561073e573d6000803e3d6000fd5b505060015460405163e6268dd560e01b8152600481018b9052602481018a90526001600160a01b03909116925063e6268dd59150604401600060405180830381600087803b15801561078f57600080fd5b505af11580156107a3573d6000803e3d6000fd5b5050604080518981524260208201523393508a92507f6567d84dc6b08952679a556d3ffcdc634bc202aba1e94c7fcf7c1c098119e048910160405180910390a350505050506107ff600160008051602061111d83398151915255565b5050565b61080b610da3565b6108156000610dd0565b565b6000806004548361082891906110e3565b60035461083591906110d0565b9050826101800361085b57606461084e610171836110e3565b61085891906110fa565b90505b92915050565b610869610d87565b60055460ff166108b15760405162461bcd60e51b8152602060048201526013602482015272135a5b9d1a5b99c81a5cc8191a5cd8589b1959606a1b6044820152606401610463565b60008381526006602052604090205460ff16156109085760405162461bcd60e51b8152602060048201526015602482015274159958dd1bdc88185b1c9958591e481b5a5b9d1959605a1b6044820152606401610463565b600154604051637090de7f60e11b8152600481018590526001600160a01b039091169063e121bcfe90602401602060405180830381865afa158015610951573d6000803e3d6000fd5b505050506040513d601f19601f820116820180604052508101906109759190610f64565b6109b95760405162461bcd60e51b8152602060048201526015602482015274159958dd1bdc881b9bdd081c9959da5cdd195c9959605a1b6044820152606401610463565b60015460405163c443658760e01b81526004810185905260009182918291829182916001600160a01b03169063c443658790602401600060405180830381865afa158015610a0b573d6000803e3d6000fd5b505050506040513d6000823e601f3d908101601f19168201604052610a339190810190610fbb565b9450945094509450945080610a825760405162461bcd60e51b8152602060048201526015602482015274159958dd1bdc88191bd95cc81b9bdd08195e1a5cdd605a1b6044820152606401610463565b336001600160a01b03851614610ada5760405162461bcd60e51b815260206004820152601c60248201527f4f6e6c7920766563746f722063726561746f722063616e206d696e74000000006044820152606401610463565b60008615610ae9575085610b29565b600454610af690846110e3565b600354610b0391906110d0565b90508261018003610b29576064610b1c610171836110e3565b610b2691906110fa565b90505b6000898152600660209081526040808320805460ff19166001179055600782528083208490556001600160a01b038b168352600990915281208054839290610b729084906110d0565b90915550506002546040516340c10f1960e01b81526001600160a01b038a8116600483015260248201849052909116906340c10f1990604401600060405180830381600087803b158015610bc557600080fd5b505af1158015610bd9573d6000803e3d6000fd5b5050600154604051630f372eb160e41b8152600481018d90526001600160a01b038c8116602483015260448201869052909116925063f372eb109150606401600060405180830381600087803b158015610c3257600080fd5b505af1158015610c46573d6000803e3d6000fd5b50506040805184815260208101879052428183015290516001600160a01b038c1693508c92507f60ba964e6280953f613c98f343ecb9a58c04f3a2d90f64516b48ea6af7bd85f79181900360600190a3505050505050610cb3600160008051602061111d83398151915255565b505050565b610cc0610da3565b600384905560048390556005805461ffff191683151561ff0019161761010083151581029190911791829055604080518781526020810187905260ff80851615159282019290925291909204909116151560608201527f9b92998991794ebbde732c7a96ff16e650dcd4e2ca6df0081a152ad0bbca35109060800160405180910390a150505050565b610d51610da3565b6001600160a01b038116610d7b57604051631e4fbdf760e01b815260006004820152602401610463565b610d8481610dd0565b50565b610d8f610e20565b600260008051602061111d83398151915255565b6000546001600160a01b031633146108155760405163118cdaa760e01b8152336004820152602401610463565b600080546001600160a01b038381166001600160a01b0319831681178455604051919092169283917f8be0079c531659141344cd1fd0a4f28419497f9722a3daafe3b4186f6b6457e09190a35050565b60008051602061111d8339815191525460020361081557604051633ee5aeb560e01b815260040160405180910390fd5b6001600160a01b0381168114610d8457600080fd5b600060208284031215610e7757600080fd5b8135610e8281610e50565b9392505050565b60008060408385031215610e9c57600080fd5b50508035926020909101359150565b600060208284031215610ebd57600080fd5b5035919050565b600080600060608486031215610ed957600080fd5b833592506020840135610eeb81610e50565b929592945050506040919091013590565b8015158114610d8457600080fd5b60008060008060808587031215610f2057600080fd5b84359350602085013592506040850135610f3981610efc565b91506060850135610f4981610efc565b939692955090935050565b8051610f5f81610efc565b919050565b600060208284031215610f7657600080fd5b8151610e8281610efc565b600060208284031215610f9357600080fd5b5051919050565b634e487b7160e01b600052604160045260246000fd5b8051610f5f81610e50565b600080600080600060a08688031215610fd357600080fd5b855167ffffffffffffffff80821115610feb57600080fd5b818801915088601f830112610fff57600080fd5b81518181111561101157611011610f9a565b604051601f8201601f19908116603f0116810190838211818310171561103957611039610f9a565b81604052828152602093508b8484870101111561105557600080fd5b600091505b82821015611077578482018401518183018501529083019061105a565b6000848483010152809950505050611090818901610fb0565b9550505060408601519250606086015191506110ae60808701610f54565b90509295509295909350565b634e487b7160e01b600052601160045260246000fd5b8082018082111561085b5761085b6110ba565b808202811582820484141761085b5761085b6110ba565b60008261111757634e487b7160e01b600052601260045260246000fd5b50049056fe9b779b17422d0df92223018b32b4d1fa46e071723d6817e2486d003becc55f00a2646970667358221220cb20c80e72513036ea6fb3d2ce8cc3071eb4db64b6a01fc05760478bf5b20a8e64736f6c63430008140033",
  "linkReferences": {},
  "deployedLinkReferences": {}
}