{
  "_format": "hh-sol-artifact-1",
  "contractName": "VectorMinter",
  "sourceName": "contracts/VectorMinter.sol",
  "abi": [
    {
      "inputs": [
        {
          "internalType": "address",
          "name": "_vectorRegistry",
          "type": "address"
        },
        {
          "internalType": "address",
          "name": "_xmoney",
          "type": "address"
        },
        {
          "internalType": "address",
          "name": "trustedForwarder",
          "type": "address"
        }
      ],
      "stateMutability": "nonpayable",
      "type": "constructor"
    },
    {
      "inputs": [
        {
          "internalType": "address",
          "name": "owner",
          "type": "address"
        }
      ],
      "name": "OwnableInvalidOwner",
      "type": "error"
    },
    {
      "inputs": [
        {
          "internalType": "address",
          "name": "account",
          "type": "address"
        }
      ],
      "name": "OwnableUnauthorizedAccount",
      "type": "error"
    },
    {
      "inputs": [],
      "name": "ReentrancyGuardReentrantCall",
      "type": "error"
    },
    {
      "anonymous": false,
      "inputs": [
        {
          "indexed": false,
          "internalType": "uint256",
          "name": "baseReward",
          "type": "uint256"
        },
        {
          "indexed": false,
          "internalType": "uint256",
          "name": "dimensionMultiplier",
          "type": "uint256"
        },
        {
          "indexed": false,
          "internalType": "bool",
          "name": "mintingEnabled",
          "type": "bool"
        },
        {
          "indexed": false,
          "internalType": "bool",
          "name": "burningEnabled",
          "type": "bool"
        }
      ],
      "name": "ConfigUpdated",
      "type": "event"
    },
    {
      "anonymous": false,
      "inputs": [
        {
          "indexed": true,
          "internalType": "address",
          "name": "previousOwner",
          "type": "address"
        },
        {
          "indexed": true,
          "internalType": "address",
          "name": "newOwner",
          "type": "address"
        }
      ],
      "name": "OwnershipTransferred",
      "type": "event"
    },
    {
      "anonymous": false,
      "inputs": [
        {
          "indexed": true,
          "internalType": "bytes32",
          "name": "vectorHash",
          "type": "bytes32"
        },
        {
          "indexed": true,
          "internalType": "address",
          "name": "burner",
          "type": "address"
        },
        {
          "indexed": false,
          "internalType": "uint256",
          "name": "amount",
          "type": "uint256"
        },
        {
          "indexed": false,
          "internalType": "uint256",
          "name": "timestamp",
          "type": "uint256"
        }
      ],
      "name": "VectorBurned",
      "type": "event"
    },
    {
      "anonymous": false,
      "inputs": [
        {
          "indexed": true,
          "internalType": "bytes32",
          "name": "vectorHash",
          "type": "bytes32"
        },
        {
          "indexed": true,
          "internalType": "address",
          "name": "recipient",
          "type": "address"
        },
        {
          "indexed": false,
          "internalType": "uint256",
          "name": "amount",
          "type": "uint256"
        },
        {
          "indexed": false,
          "internalType": "uint256",
          "name": "dimensions",
          "type": "uint256"
        },
        {
          "indexed": false,
          "internalType": "uint256",
          "name": "timestamp",
          "type": "uint256"
        }
      ],
      "name": "VectorMinted",
      "type": "event"
    },
    {
      "inputs": [],
      "name": "APEX_936",
      "outputs": [
        {
          "internalType": "uint256",
          "name": "",
          "type": "uint256"
        }
      ],
      "stateMutability": "view",
      "type": "function"
    },
    {
      "inputs": [],
      "name": "CODE_66",
      "outputs": [
        {
          "internalType": "uint256",
          "name": "",
          "type": "uint256"
        }
      ],
      "stateMutability": "view",
      "type": "function"
    },
    {
      "inputs": [],
      "name": "FREQUENCY_432",
      "outputs": [
        {
          "internalType": "uint256",
          "name": "",
          "type": "uint256"
        }
      ],
      "stateMutability": "view",
      "type": "function"
    },
    {
      "inputs": [],
      "name": "VORTEX_369",
      "outputs": [
        {
          "internalType": "uint256",
          "name": "",
          "type": "uint256"
        }
      ],
      "stateMutability": "view",
      "type": "function"
    },
    {
      "inputs": [],
      "name": "baseReward",
      "outputs": [
        {
          "internalType": "uint256",
          "name": "",
          "type": "uint256"
        }
      ],
      "stateMutability": "view",
      "type": "function"
    },
    {
      "inputs": [
        {
          "internalType": "bytes32",
          "name": "vectorHash",
          "type": "bytes32"
        },
        {
          "internalType": "uint256",
          "name": "amount",
          "type": "uint256"
        }
      ],
      "name": "burnWithVector",
      "outputs": [],
      "stateMutability": "nonpayable",
      "type": "function"
    },
    {
      "inputs": [],
      "name": "burningEnabled",
      "outputs": [
        {
          "internalType": "bool",
          "name": "",
          "type": "bool"
        }
      ],
      "stateMutability": "view",
      "type": "function"
    },
    {
      "inputs": [
        {
          "internalType": "uint256",
          "name": "dimensions",
          "type": "uint256"
        }
      ],
      "name": "calculateMintAmount",
      "outputs": [
        {
          "internalType": "uint256",
          "name": "",
          "type": "uint256"
        }
      ],
      "stateMutability": "view",
      "type": "function"
    },
    {
      "inputs": [],
      "name": "dimensionMultiplier",
      "outputs": [
        {
          "internalType": "uint256",
          "name": "",
          "type": "uint256"
        }
      ],
      "stateMutability": "view",
      "type": "function"
    },
    {
      "inputs": [],
      "name": "getSacredNumbers",
      "outputs": [
        {
          "internalType": "uint256",
          "name": "apex",
          "type": "uint256"
        },
        {
          "internalType": "uint256",
          "name": "vortex",
          "type": "uint256"
        },
        {
          "internalType": "uint256",
          "name": "code",
          "type": "uint256"
        },
        {
          "internalType": "uint256",
          "name": "frequency",
          "type": "uint256"
        }
      ],
      "stateMutability": "pure",
      "type": "function"
    },
    {
      "inputs": [
        {
          "internalType": "address",
          "name": "user",
          "type": "address"
        }
      ],
      "name": "getUserStats",
      "outputs": [
        {
          "internalType": "uint256",
          "name": "minted",
          "type": "uint256"
        },
        {
          "internalType": "uint256",
          "name": "burned",
          "type": "uint256"
        }
      ],
      "stateMutability": "view",
      "type": "function"
    },
    {
      "inputs": [
        {
          "internalType": "bytes32",
          "name": "vectorHash",
          "type": "bytes32"
        }
      ],
      "name": "getVectorStats",
      "outputs": [
        {
          "internalType": "bool",
          "name": "minted",
          "type": "bool"
        },
        {
          "internalType": "uint256",
          "name": "mintAmount",
          "type": "uint256"
        },
        {
          "internalType": "uint256",
          "name": "burnAmount",
          "type": "uint256"
        }
      ],
      "stateMutability": "view",
      "type": "function"
    },
    {
      "inputs": [
        {
          "internalType": "address",
          "name": "forwarder",
          "type": "address"
        }
      ],
      "name": "isTrustedForwarder",
      "outputs": [
        {
          "internalType": "bool",
          "name": "",
          "type": "bool"
        }
      ],
      "stateMutability": "view",
      "type": "function"
    },
    {
      "inputs": [
        {
          "internalType": "bytes32",
          "name": "vectorHash",
          "type": "bytes32"
        },
        {
          "internalType": "address",
          "name": "recipient",
          "type": "address"
        },
        {
          "internalType": "uint256",
          "name": "customAmount",
          "type": "uint256"
        }
      ],
      "name": "mintWithVector",
      "outputs": [],
      "stateMutability": "nonpayable",
      "type": "function"
    },
    {
      "inputs": [],
      "name": "mintingEnabled",
      "outputs": [
        {
          "internalType": "bool",
          "name": "",
          "type": "bool"
        }
      ],
      "stateMutability": "view",
      "type": "function"
    },
    {
      "inputs": [],
      "name": "owner",
      "outputs": [
        {
          "internalType": "address",
          "name": "",
          "type": "address"
        }
      ],
      "stateMutability": "view",
      "type": "function"
    },
    {
      "inputs": [],
      "name": "renounceOwnership",
      "outputs": [],
      "stateMutability": "nonpayable",
      "type": "function"
    },
    {
      "inputs": [
        {
          "internalType": "address",
          "name": "",
          "type": "address"
        }
      ],
      "name": "totalBurned",
      "outputs": [
        {
          "internalType": "uint256",
          "name": "",
          "type": "uint256"
        }
      ],
      "stateMutability": "view",
      "type": "function"
    },
    {
      "inputs": [
        {
          "internalType": "address",
          "name": "",
          "type": "address"
        }
      ],
      "name": "totalMinted",
      "outputs": [
        {
          "internalType": "uint256",
          "name": "",
          "type": "uint256"
        }
      ],
      "stateMutability": "view",
      "type": "function"
    },
    {
      "inputs": [
        {
          "internalType": "address",
          "name": "newOwner",
          "type": "address"
        }
      ],
      "name": "transferOwnership",
      "outputs": [],
      "stateMutability": "nonpayable",
      "type": "function"
    },
    {
      "inputs": [],
      "name": "trustedForwarder",
      "outputs": [
        {
          "internalType": "address",
          "name": "",
          "type": "address"
        }
      ],
      "stateMutability": "view",
      "type": "function"
    },
    {
      "inputs": [
        {
          "internalType": "uint256",
          "name": "_baseReward",
          "type": "uint256"
        },
        {
          "internalType": "uint256",
          "name": "_dimensionMultiplier",
          "type": "uint256"
        },
        {
          "internalType": "bool",
          "name": "_mintingEnabled",
          "type": "bool"
        },
        {
          "internalType": "bool",
          "name": "_burningEnabled",
          "type": "bool"
        }
      ],
      "name": "updateConfig",
      "outputs": [],
      "stateMutability": "nonpayable",
      "type": "function"
    },
    {
      "inputs": [
        {
          "internalType": "bytes32",
          "name": "",
          "type": "bytes32"
        }
      ],
      "name": "vectorBurnAmount",
      "outputs": [
        {
          "internalType": "uint256",
          "name": "",
          "type": "uint256"
        }
      ],
      "stateMutability": "view",
      "type": "function"
    },
    {
      "inputs": [
        {
          "internalType": "bytes32",
          "name": "",
          "type": "bytes32"
        }
      ],
      "name": "vectorMintAmount",
      "outputs": [
        {
          "internalType": "uint256",
          "name": "",
          "type": "uint256"
        }
      ],
      "stateMutability": "view",
      "type": "function"
    },
    {
      "inputs": [
        {
          "internalType": "bytes32",
          "name": "",
          "type": "bytes32"
        }
      ],
      "name": "vectorMinted",
      "outputs": [
        {
          "internalType": "bool",
          "name": "",
          "type": "bool"
        }
      ],
      "stateMutability": "view",
      "type": "function"
    },
    {
      "inputs": [],
      "name": "vectorRegistry",
      "outputs": [
        {
          "internalType": "contract IVectorRegistry",
          "name": "",
          "type": "address"
        }
      ],
      "stateMutability": "view",
      "type": "function"
    },
    {
      "inputs": [],
      "name": "xmoney",
      "outputs": [
        {
          "internalType": "contract IXMoney",
          "name": "",
          "type": "address"
        }
      ],
      "stateMutability": "view",
      "type": "function"
    }
  ],
  "bytecode": "0x60a0604052681400e758f44724000060035560016004556005805461ffff191661010117905534801562000031575f80fd5b506040516200147038038062001470833981016040819052620000549162000154565b8033806200007b57604051631e4fbdf760e01b81525f600482015260240160405180910390fd5b6200008681620000e9565b5060017f9b779b17422d0df92223018b32b4d1fa46e071723d6817e2486d003becc55f00556001600160a01b03908116608052600180549482166001600160a01b031995861617905560028054939091169290931691909117909155506200019b565b5f80546001600160a01b038381166001600160a01b0319831681178455604051919092169283917f8be0079c531659141344cd1fd0a4f28419497f9722a3daafe3b4186f6b6457e09190a35050565b80516001600160a01b03811681146200014f575f80fd5b919050565b5f805f6060848603121562000167575f80fd5b620001728462000138565b9250620001826020850162000138565b9150620001926040850162000138565b90509250925092565b6080516112ae620001c25f395f81816102e5015281816103810152610ef901526112ae5ff3fe608060405234801561000f575f80fd5b50600436106101a0575f3560e01c80637d9f140d116100f3578063b12739cd11610093578063e21097651161006e578063e210976514610440578063e810ca4e1461045f578063f2fde38b14610468578063f9278c551461047b575f80fd5b8063b12739cd1461041b578063bcc5ea6c1461042e578063cf6c7bf314610437575f80fd5b806392f31101116100ce57806392f31101146103c957806396763c54146103e85780639fd6db12146103fb578063aa6bf49114610408575f80fd5b80637d9f140d1461036c5780637da0a8771461037f5780638da5cb5b146103b9575f80fd5b806353cc973b1161015e5780636c95a02f116101395780636c95a02f1461033f578063715018a61461034857806376ad03bc146103505780637d30c3e514610359575f80fd5b806353cc973b146102b6578063572b6c05146102d55780635e55d97714610315575f80fd5b80623d4790146101a45780631059bd36146101d657806320f51e4d146101eb57806326095592146101f35780634d7547151461024a5780634e43603a1461026c575b5f80fd5b6101c36101b2366004610f66565b60096020525f908152604090205481565b6040519081526020015b60405180910390f35b6101e96101e4366004610f88565b61049d565b005b6101c3604281565b61022d610201366004610fa8565b5f818152600660209081526040808320546007835281842054600890935292205460ff90921693909250565b6040805193151584526020840192909252908201526060016101cd565b60055461025c90610100900460ff1681565b60405190151581526020016101cd565b6102a161027a366004610f66565b6001600160a01b03165f90815260096020908152604080832054600a909252909120549091565b604080519283526020830191909152016101cd565b6101c36102c4366004610f66565b600a6020525f908152604090205481565b61025c6102e3366004610f66565b7f00000000000000000000000000000000000000000000000000000000000000006001600160a01b0390811691161490565b604080516103a8815261017160208201526042918101919091526101b060608201526080016101cd565b6101c36103a881565b6101e9610878565b6101c360035481565b6101c3610367366004610fa8565b61088b565b6101e961037a366004610fbf565b6108d4565b7f00000000000000000000000000000000000000000000000000000000000000005b6040516001600160a01b0390911681526020016101cd565b5f546001600160a01b03166103a1565b6101c36103d7366004610fa8565b60076020525f908152604090205481565b6002546103a1906001600160a01b031681565b60055461025c9060ff1681565b6001546103a1906001600160a01b031681565b6101e9610429366004611001565b610d16565b6101c360045481565b6101c36101b081565b6101c361044e366004610fa8565b60086020525f908152604090205481565b6101c361017181565b6101e9610476366004610f66565b610da7565b61025c610489366004610fa8565b60066020525f908152604090205460ff1681565b6104a5610de4565b600554610100900460ff166104f75760405162461bcd60e51b8152602060048201526013602482015272109d5c9b9a5b99c81a5cc8191a5cd8589b1959606a1b60448201526064015b60405180910390fd5b600154604051637090de7f60e11b8152600481018490526001600160a01b039091169063e121bcfe90602401602060405180830381865afa15801561053e573d5f803e3d5ffd5b505050506040513d601f19601f820116820180604052508101906105629190611058565b6105a65760405162461bcd60e51b8152602060048201526015602482015274159958dd1bdc881b9bdd081c9959da5cdd195c9959605a1b60448201526064016104ee565b6002546040516370a0823160e01b815233600482015282916001600160a01b0316906370a0823190602401602060405180830381865afa1580156105ec573d5f803e3d5ffd5b505050506040513d601f19601f820116820180604052508101906106109190611073565b10156106555760405162461bcd60e51b8152602060048201526014602482015273496e73756666696369656e742062616c616e636560601b60448201526064016104ee565b60015460405163c443658760e01b8152600481018490525f9182918291829182916001600160a01b03169063c4436587906024015f60405180830381865afa1580156106a3573d5f803e3d5ffd5b505050506040513d5f823e601f3d908101601f191682016040526106ca91908101906110a9565b94509450945094509450806107195760405162461bcd60e51b8152602060048201526015602482015274159958dd1bdc88191bd95cc81b9bdd08195e1a5cdd605a1b60448201526064016104ee565b5f87815260086020526040812080548892906107369084906111b3565b9091555050335f908152600a6020526040812080548892906107599084906111b3565b9091555050600254604051632770a7eb60e21b8152336004820152602481018890526001600160a01b0390911690639dc29fac906044015f604051808303815f87803b1580156107a7575f80fd5b505af11580156107b9573d5f803e3d5ffd5b505060015460405163e6268dd560e01b8152600481018b9052602481018a90526001600160a01b03909116925063e6268dd591506044015f604051808303815f87803b158015610807575f80fd5b505af1158015610819573d5f803e3d5ffd5b5050604080518981524260208201523393508a92507f6567d84dc6b08952679a556d3ffcdc634bc202aba1e94c7fcf7c1c098119e048910160405180910390a3505050505061087460015f8051602061125983398151915255565b5050565b610880610dff565b6108895f610e5c565b565b5f806004548361089b91906111c6565b6003546108a891906111b3565b905082610180036108ce5760646108c1610171836111c6565b6108cb91906111dd565b90505b92915050565b6108dc610de4565b60055460ff166109245760405162461bcd60e51b8152602060048201526013602482015272135a5b9d1a5b99c81a5cc8191a5cd8589b1959606a1b60448201526064016104ee565b5f8381526006602052604090205460ff161561097a5760405162461bcd60e51b8152602060048201526015602482015274159958dd1bdc88185b1c9958591e481b5a5b9d1959605a1b60448201526064016104ee565b600154604051637090de7f60e11b8152600481018590526001600160a01b039091169063e121bcfe90602401602060405180830381865afa1580156109c1573d5f803e3d5ffd5b505050506040513d601f19601f820116820180604052508101906109e59190611058565b610a295760405162461bcd60e51b8152602060048201526015602482015274159958dd1bdc881b9bdd081c9959da5cdd195c9959605a1b60448201526064016104ee565b60015460405163c443658760e01b8152600481018590525f9182918291829182916001600160a01b03169063c4436587906024015f60405180830381865afa158015610a77573d5f803e3d5ffd5b505050506040513d5f823e601f3d908101601f19168201604052610a9e91908101906110a9565b9450945094509450945080610aed5760405162461bcd60e51b8152602060048201526015602482015274159958dd1bdc88191bd95cc81b9bdd08195e1a5cdd605a1b60448201526064016104ee565b336001600160a01b03851614610b455760405162461bcd60e51b815260206004820152601c60248201527f4f6e6c7920766563746f722063726561746f722063616e206d696e740000000060448201526064016104ee565b5f8615610b53575085610b93565b600454610b6090846111c6565b600354610b6d91906111b3565b90508261018003610b93576064610b86610171836111c6565b610b9091906111dd565b90505b5f898152600660209081526040808320805460ff19166001179055600782528083208490556001600160a01b038b168352600990915281208054839290610bdb9084906111b3565b90915550506002546040516340c10f1960e01b81526001600160a01b038a8116600483015260248201849052909116906340c10f19906044015f604051808303815f87803b158015610c2b575f80fd5b505af1158015610c3d573d5f803e3d5ffd5b5050600154604051630f372eb160e41b8152600481018d90526001600160a01b038c8116602483015260448201869052909116925063f372eb1091506064015f604051808303815f87803b158015610c93575f80fd5b505af1158015610ca5573d5f803e3d5ffd5b50506040805184815260208101879052428183015290516001600160a01b038c1693508c92507f60ba964e6280953f613c98f343ecb9a58c04f3a2d90f64516b48ea6af7bd85f79181900360600190a3505050505050610d1160015f8051602061125983398151915255565b505050565b610d1e610dff565b600384905560048390556005805461ffff191683151561ff0019161761010083151581029190911791829055604080518781526020810187905260ff80851615159282019290925291909204909116151560608201527f9b92998991794ebbde732c7a96ff16e650dcd4e2ca6df0081a152ad0bbca35109060800160405180910390a150505050565b610daf610dff565b6001600160a01b038116610dd857604051631e4fbdf760e01b81525f60048201526024016104ee565b610de181610e5c565b50565b610dec610eab565b60025f8051602061125983398151915255565b610e07610eda565b6001600160a01b0316610e215f546001600160a01b031690565b6001600160a01b03161461088957610e37610eda565b60405163118cdaa760e01b81526001600160a01b0390911660048201526024016104ee565b5f80546001600160a01b038381166001600160a01b0319831681178455604051919092169283917f8be0079c531659141344cd1fd0a4f28419497f9722a3daafe3b4186f6b6457e09190a35050565b5f805160206112598339815191525460020361088957604051633ee5aeb560e01b815260040160405180910390fd5b5f610ee3610ee8565b905090565b5f366014808210801590610f2457507f00000000000000000000000000000000000000000000000000000000000000006001600160a01b031633145b15610f4a57610f3736828403815f6111fc565b610f4091611223565b60601c9250505090565b339250505090565b6001600160a01b0381168114610de1575f80fd5b5f60208284031215610f76575f80fd5b8135610f8181610f52565b9392505050565b5f8060408385031215610f99575f80fd5b50508035926020909101359150565b5f60208284031215610fb8575f80fd5b5035919050565b5f805f60608486031215610fd1575f80fd5b833592506020840135610fe381610f52565b929592945050506040919091013590565b8015158114610de1575f80fd5b5f805f8060808587031215611014575f80fd5b8435935060208501359250604085013561102d81610ff4565b9150606085013561103d81610ff4565b939692955090935050565b805161105381610ff4565b919050565b5f60208284031215611068575f80fd5b8151610f8181610ff4565b5f60208284031215611083575f80fd5b5051919050565b634e487b7160e01b5f52604160045260245ffd5b805161105381610f52565b5f805f805f60a086880312156110bd575f80fd5b855167ffffffffffffffff808211156110d4575f80fd5b818801915088601f8301126110e7575f80fd5b8151818111156110f9576110f961108a565b604051601f8201601f19908116603f011681019083821181831017156111215761112161108a565b81604052828152602093508b8484870101111561113c575f80fd5b5f91505b8282101561115d5784820184015181830185015290830190611140565b5f84848301015280995050505061117581890161109e565b95505050604086015192506060860151915061119360808701611048565b90509295509295909350565b634e487b7160e01b5f52601160045260245ffd5b808201808211156108ce576108ce61119f565b80820281158282048414176108ce576108ce61119f565b5f826111f757634e487b7160e01b5f52601260045260245ffd5b500490565b5f808585111561120a575f80fd5b83861115611216575f80fd5b5050820193919092039150565b6bffffffffffffffffffffffff1981358181169160148510156112505780818660140360031b1b83161692505b50509291505056fe9b779b17422d0df92223018b32b4d1fa46e071723d6817e2486d003becc55f00a264697066735822122013476e20ea3abb19407a58bc6f47b97a19373903889b3fc0a5db319eb23f94ee64736f6c63430008180033",
  "linkReferences": {},
  "deployedLinkReferences": {}
}