{"abi":[{"type":"constructor","inputs":[],"stateMutability":"nonpayable"},{"type":"function","name":"APEX_936","inputs":[],"outputs":[{"name":"","type":"uint256","internalType":"uint256"}],"stateMutability":"view"},{"type":"function","name":"CODE_66","inputs":[],"outputs":[{"name":"","type":"uint256","internalType":"uint256"}],"stateMutability":"view"},{"type":"function","name":"VORTEX_369","inputs":[],"outputs":[{"name":"","type":"uint256","internalType":"uint256"}],"stateMutability":"view"},{"type":"function","name":"allowance","inputs":[{"name":"owner","type":"address","internalType":"address"},{"name":"spender","type":"address","internalType":"address"}],"outputs":[{"name":"","type":"uint256","internalType":"uint256"}],"stateMutability":"view"},{"type":"function","name":"approve","inputs":[{"name":"spender","type":"address","internalType":"address"},{"name":"value","type":"uint256","internalType":"uint256"}],"outputs":[{"name":"","type":"bool","internalType":"bool"}],"stateMutability":"nonpayable"},{"type":"function","name":"balanceOf","inputs":[{"name":"account","type":"address","internalType":"address"}],"outputs":[{"name":"","type":"uint256","internalType":"uint256"}],"stateMutability":"view"},{"type":"function","name":"burn","inputs":[{"name":"from","type":"address","internalType":"address"},{"name":"amount","type":"uint256","internalType":"uint256"}],"outputs":[],"stateMutability":"nonpayable"},{"type":"function","name":"decimals","inputs":[],"outputs":[{"name":"","type":"uint8","internalType":"uint8"}],"stateMutability":"view"},{"type":"function","name":"getSacredNumbers","inputs":[],"outputs":[{"name":"apex","type":"uint256","internalType":"uint256"},{"name":"vortex","type":"uint256","internalType":"uint256"},{"name":"code","type":"uint256","internalType":"uint256"}],"stateMutability":"pure"},{"type":"function","name":"mint","inputs":[{"name":"to","type":"address","internalType":"address"},{"name":"amount","type":"uint256","internalType":"uint256"}],"outputs":[],"stateMutability":"nonpayable"},{"type":"function","name":"name","inputs":[],"outputs":[{"name":"","type":"string","internalType":"string"}],"stateMutability":"view"},{"type":"function","name":"owner","inputs":[],"outputs":[{"name":"","type":"address","internalType":"address"}],"stateMutability":"view"},{"type":"function","name":"renounceOwnership","inputs":[],"outputs":[],"stateMutability":"nonpayable"},{"type":"function","name":"symbol","inputs":[],"outputs":[{"name":"","type":"string","internalType":"string"}],"stateMutability":"view"},{"type":"function","name":"totalSupply","inputs":[],"outputs":[{"name":"","type":"uint256","internalType":"uint256"}],"stateMutability":"view"},{"type":"function","name":"transfer","inputs":[{"name":"to","type":"address","internalType":"address"},{"name":"value","type":"uint256","internalType":"uint256"}],"outputs":[{"name":"","type":"bool","internalType":"bool"}],"stateMutability":"nonpayable"},{"type":"function","name":"transferFrom","inputs":[{"name":"from","type":"address","internalType":"address"},{"name":"to","type":"address","internalType":"address"},{"name":"value","type":"uint256","internalType":"uint256"}],"outputs":[{"name":"","type":"bool","internalType":"bool"}],"stateMutability":"nonpayable"},{"type":"function","name":"transferOwnership","inputs":[{"name":"newOwner","type":"address","internalType":"address"}],"outputs":[],"stateMutability":"nonpayable"},{"type":"event","name":"Approval","inputs":[{"name":"owner","type":"address","indexed":true,"internalType":"address"},{"name":"spender","type":"address","indexed":true,"internalType":"address"},{"name":"value","type":"uint256","indexed":false,"internalType":"uint256"}],"anonymous":false},{"type":"event","name":"OwnershipTransferred","inputs":[{"name":"previousOwner","type":"address","indexed":true,"internalType":"address"},{"name":"newOwner","type":"address","indexed":true,"internalType":"address"}],"anonymous":false},{"type":"event","name":"TokensBurned","inputs":[{"name":"from","type":"address","indexed":true,"internalType":"address"},{"name":"amount","type":"uint256","indexed":false,"internalType":"uint256"},{"name":"timestamp","type":"uint256","indexed":false,"internalType":"uint256"}],"anonymous":false},{"type":"event","name":"TokensMinted","inputs":[{"name":"to","type":"address","indexed":true,"internalType":"address"},{"name":"amount","type":"uint256","indexed":false,"internalType":"uint256"},{"name":"timestamp","type":"uint256","indexed":false,"internalType":"uint256"}],"anonymous":false},{"type":"event","name":"Transfer","inputs":[{"name":"from","type":"address","indexed":true,"internalType":"address"},{"name":"to","type":"address","indexed":true,"internalType":"address"},{"name":"value","type":"uint256","indexed":false,"internalType":"uint256"}],"anonymous":false},{"type":"error","name":"ERC20InsufficientAllowance","inputs":[{"name":"spender","type":"address","internalType":"address"},{"name":"allowance","type":"uint256","internalType":"uint256"},{"name":"needed","type":"uint256","internalType":"uint256"}]},{"type":"error","name":"ERC20InsufficientBalance","inputs":[{"name":"sender","type":"address","internalType":"address"},{"name":"balance","type":"uint256","internalType":"uint256"},{"name":"needed","type":"uint256","internalType":"uint256"}]},{"type":"error","name":"ERC20InvalidApprover","inputs":[{"name":"approver","type":"address","internalType":"address"}]},{"type":"error","name":"ERC20InvalidReceiver","inputs":[{"name":"receiver","type":"address","internalType":"address"}]},{"type":"error","name":"ERC20InvalidSender","inputs":[{"name":"sender","type":"address","internalType":"address"}]},{"type":"error","name":"ERC20InvalidSpender","inputs":[{"name":"spender","type":"address","internalType":"address"}]},{"type":"error","name":"OwnableInvalidOwner","inputs":[{"name":"owner","type":"address","internalType":"address"}]},{"type":"error","name":"OwnableUnauthorizedAccount","inputs":[{"name":"account","type":"address","internalType":"address"}]}],"bytecode":{"object":"0x608060405234801562000010575f80fd5b503360405180604001604052806007815260200166582d4d6f6e657960c81b8152506040518060400160405280600381526020016216135560ea1b81525081600390816200005f919062000337565b5060046200006e828262000337565b5050506001600160a01b038116620000a057604051631e4fbdf760e01b81525f60048201526024015b60405180910390fd5b620000ab81620000db565b50620000d533620000bf6012600a6200050e565b620000cf906315fe7e4062000525565b6200012c565b62000555565b600580546001600160a01b038381166001600160a01b0319831681179093556040519116919082907f8be0079c531659141344cd1fd0a4f28419497f9722a3daafe3b4186f6b6457e0905f90a35050565b6001600160a01b038216620001575760405163ec442f0560e01b81525f600482015260240162000097565b620001645f838362000168565b5050565b6001600160a01b03831662000196578060025f8282546200018a91906200053f565b90915550620002089050565b6001600160a01b0383165f9081526020819052604090205481811015620001ea5760405163391434e360e21b81526001600160a01b0385166004820152602481018290526044810183905260640162000097565b6001600160a01b0384165f9081526020819052604090209082900390555b6001600160a01b038216620002265760028054829003905562000244565b6001600160a01b0382165f9081526020819052604090208054820190555b816001600160a01b0316836001600160a01b03167fddf252ad1be2c89b69c2b068fc378daa952ba7f163c4a11628f55a4df523b3ef836040516200028a91815260200190565b60405180910390a3505050565b634e487b7160e01b5f52604160045260245ffd5b600181811c90821680620002c057607f821691505b602082108103620002df57634e487b7160e01b5f52602260045260245ffd5b50919050565b601f82111562000332575f81815260208120601f850160051c810160208610156200030d5750805b601f850160051c820191505b818110156200032e5782815560010162000319565b5050505b505050565b81516001600160401b0381111562000353576200035362000297565b6200036b81620003648454620002ab565b84620002e5565b602080601f831160018114620003a1575f8415620003895750858301515b5f19600386901b1c1916600185901b1785556200032e565b5f85815260208120601f198616915b82811015620003d157888601518255948401946001909101908401620003b0565b5085821015620003ef57878501515f19600388901b60f8161c191681555b5050505050600190811b01905550565b634e487b7160e01b5f52601160045260245ffd5b600181815b808511156200045357815f1904821115620004375762000437620003ff565b808516156200044557918102915b93841c939080029062000418565b509250929050565b5f826200046b5750600162000508565b816200047957505f62000508565b81600181146200049257600281146200049d57620004bd565b600191505062000508565b60ff841115620004b157620004b1620003ff565b50506001821b62000508565b5060208310610133831016604e8410600b8410161715620004e2575081810a62000508565b620004ee838362000413565b805f1904821115620005045762000504620003ff565b0290505b92915050565b5f6200051e60ff8416836200045b565b9392505050565b8082028115828204841417620005085762000508620003ff565b80820180821115620005085762000508620003ff565b6109fa80620005635f395ff3fe608060405234801561000f575f80fd5b5060043610610111575f3560e01c806370a082311161009e5780639dc29fac1161006e5780639dc29fac14610225578063a9059cbb14610238578063dd62ed3e1461024b578063e810ca4e14610283578063f2fde38b1461028c575f80fd5b806370a08231146101d2578063715018a6146101fa5780638da5cb5b1461020257806395d89b411461021d575f80fd5b806323b872dd116100e457806323b872dd14610170578063313ce5671461018357806340c10f19146101925780635e55d977146101a75780636c95a02f146101c9575f80fd5b806306fdde0314610115578063095ea7b31461013357806318160ddd1461015657806320f51e4d14610168575b5f80fd5b61011d61029f565b60405161012a9190610855565b60405180910390f35b6101466101413660046108bb565b61032f565b604051901515815260200161012a565b6002545b60405190815260200161012a565b61015a604281565b61014661017e3660046108e3565b610348565b6040516012815260200161012a565b6101a56101a03660046108bb565b61036b565b005b604080516103a88152610171602082015260429181019190915260600161012a565b61015a6103a881565b61015a6101e036600461091c565b6001600160a01b03165f9081526020819052604090205490565b6101a56103c5565b6005546040516001600160a01b03909116815260200161012a565b61011d6103d8565b6101a56102333660046108bb565b6103e7565b6101466102463660046108bb565b610439565b61015a61025936600461093c565b6001600160a01b039182165f90815260016020908152604080832093909416825291909152205490565b61015a61017181565b6101a561029a36600461091c565b610446565b6060600380546102ae9061096d565b80601f01602080910402602001604051908101604052809291908181526020018280546102da9061096d565b80156103255780601f106102fc57610100808354040283529160200191610325565b820191905f5260205f20905b81548152906001019060200180831161030857829003601f168201915b5050505050905090565b5f3361033c818585610488565b60019150505b92915050565b5f3361035585828561049a565b610360858585610516565b506001949350505050565b610373610573565b61037d82826105a0565b604080518281524260208201526001600160a01b038416917f2e8ac5177a616f2aec08c3048f5021e4e9743ece034e8d83ba5caf76688bb47591015b60405180910390a25050565b6103cd610573565b6103d65f6105d8565b565b6060600480546102ae9061096d565b6103ef610573565b6103f98282610629565b604080518281524260208201526001600160a01b038416917fccbea4088a3b7ae9ca2d15fab9a9742a4075b4d7247768a1eecea917565aba0091016103b9565b5f3361033c818585610516565b61044e610573565b6001600160a01b03811661047c57604051631e4fbdf760e01b81525f60048201526024015b60405180910390fd5b610485816105d8565b50565b610495838383600161065d565b505050565b6001600160a01b038381165f908152600160209081526040808320938616835292905220545f19811015610510578181101561050257604051637dc7a0d960e11b81526001600160a01b03841660048201526024810182905260448101839052606401610473565b61051084848484035f61065d565b50505050565b6001600160a01b03831661053f57604051634b637e8f60e11b81525f6004820152602401610473565b6001600160a01b0382166105685760405163ec442f0560e01b81525f6004820152602401610473565b61049583838361072f565b6005546001600160a01b031633146103d65760405163118cdaa760e01b8152336004820152602401610473565b6001600160a01b0382166105c95760405163ec442f0560e01b81525f6004820152602401610473565b6105d45f838361072f565b5050565b600580546001600160a01b038381166001600160a01b0319831681179093556040519116919082907f8be0079c531659141344cd1fd0a4f28419497f9722a3daafe3b4186f6b6457e0905f90a35050565b6001600160a01b03821661065257604051634b637e8f60e11b81525f6004820152602401610473565b6105d4825f8361072f565b6001600160a01b0384166106865760405163e602df0560e01b81525f6004820152602401610473565b6001600160a01b0383166106af57604051634a1406b160e11b81525f6004820152602401610473565b6001600160a01b038085165f908152600160209081526040808320938716835292905220829055801561051057826001600160a01b0316846001600160a01b03167f8c5be1e5ebec7d5bd14f71427d1e84f3dd0314c0f7b2291e5b200ac8c7c3b9258460405161072191815260200190565b60405180910390a350505050565b6001600160a01b038316610759578060025f82825461074e91906109a5565b909155506107c99050565b6001600160a01b0383165f90815260208190526040902054818110156107ab5760405163391434e360e21b81526001600160a01b03851660048201526024810182905260448101839052606401610473565b6001600160a01b0384165f9081526020819052604090209082900390555b6001600160a01b0382166107e557600280548290039055610803565b6001600160a01b0382165f9081526020819052604090208054820190555b816001600160a01b0316836001600160a01b03167fddf252ad1be2c89b69c2b068fc378daa952ba7f163c4a11628f55a4df523b3ef8360405161084891815260200190565b60405180910390a3505050565b5f6020808352835180828501525f5b8181101561088057858101830151858201604001528201610864565b505f604082860101526040601f19601f8301168501019250505092915050565b80356001600160a01b03811681146108b6575f80fd5b919050565b5f80604083850312156108cc575f80fd5b6108d5836108a0565b946020939093013593505050565b5f805f606084860312156108f5575f80fd5b6108fe846108a0565b925061090c602085016108a0565b9150604084013590509250925092565b5f6020828403121561092c575f80fd5b610935826108a0565b9392505050565b5f806040838503121561094d575f80fd5b610956836108a0565b9150610964602084016108a0565b90509250929050565b600181811c9082168061098157607f821691505b60208210810361099f57634e487b7160e01b5f52602260045260245ffd5b50919050565b8082018082111561034257634e487b7160e01b5f52601160045260245ffdfea26469706673582212203c04d9579efead1bf4c7c1037c0c97c5111b257e6529c8d22e248dffa4b2032b64736f6c63430008140033","linkReferences":{}},"methodIdentifiers":{"APEX_936()":"6c95a02f","CODE_66()":"20f51e4d","VORTEX_369()":"e810ca4e","allowance(address,address)":"dd62ed3e","approve(address,uint256)":"095ea7b3","balanceOf(address)":"70a08231","burn(address,uint256)":"9dc29fac","decimals()":"313ce567","getSacredNumbers()":"5e55d977","mint(address,uint256)":"40c10f19","name()":"06fdde03","owner()":"8da5cb5b","renounceOwnership()":"715018a6","symbol()":"95d89b41","totalSupply()":"18160ddd","transfer(address,uint256)":"a9059cbb","transferFrom(address,address,uint256)":"23b872dd","transferOwnership(address)":"f2fde38b"},"id":0}