{
  "_format": "hh-sol-artifact-1",
  "contractName": "VectorRegistry",
  "sourceName": "contracts/VectorRegistry.sol",
  "abi": [
    {
      "inputs": [],
      "stateMutability": "nonpayable",
      "type": "constructor"
    },
    {
      "anonymous": false,
      "inputs": [
        {
          "indexed": true,
          "internalType": "bytes32",
          "name": "vectorHash",
          "type": "bytes32"
        },
        {
          "indexed": true,
          "internalType": "address",
          "name": "burner",
          "type": "address"
        },
        {
          "indexed": false,
          "internalType": "uint256",
          "name": "amount",
          "type": "uint256"
        }
      ],
      "name": "BurnSealed",
      "type": "event"
    },
    {
      "anonymous": false,
      "inputs": [
        {
          "indexed": true,
          "internalType": "bytes32",
          "name": "vectorHash",
          "type": "bytes32"
        },
        {
          "indexed": false,
          "internalType": "string",
          "name": "decree",
          "type": "string"
        },
        {
          "indexed": true,
          "internalType": "address",
          "name": "amplifier",
          "type": "address"
        },
        {
          "indexed": false,
          "internalType": "uint256",
          "name": "resonance",
          "type": "uint256"
        }
      ],
      "name": "DecreeAmplified",
      "type": "event"
    },
    {
      "anonymous": false,
      "inputs": [
        {
          "indexed": true,
          "internalType": "bytes32",
          "name": "vectorHash",
          "type": "bytes32"
        },
        {
          "indexed": true,
          "internalType": "address",
          "name": "recipient",
          "type": "address"
        },
        {
          "indexed": false,
          "internalType": "uint256",
          "name": "amount",
          "type": "uint256"
        }
      ],
      "name": "MintTriggered",
      "type": "event"
    },
    {
      "anonymous": false,
      "inputs": [
        {
          "indexed": true,
          "internalType": "bytes32",
          "name": "vectorHash",
          "type": "bytes32"
        },
        {
          "indexed": false,
          "internalType": "string",
          "name": "intent",
          "type": "string"
        },
        {
          "indexed": true,
          "internalType": "address",
          "name": "creator",
          "type": "address"
        },
        {
          "indexed": false,
          "internalType": "uint256",
          "name": "timestamp",
          "type": "uint256"
        },
        {
          "indexed": false,
          "internalType": "uint256",
          "name": "dimensions",
          "type": "uint256"
        }
      ],
      "name": "VectorRegistered",
      "type": "event"
    },
    {
      "inputs": [],
      "name": "APEX_936",
      "outputs": [
        {
          "internalType": "uint256",
          "name": "",
          "type": "uint256"
        }
      ],
      "stateMutability": "view",
      "type": "function"
    },
    {
      "inputs": [],
      "name": "CODE_66",
      "outputs": [
        {
          "internalType": "uint256",
          "name": "",
          "type": "uint256"
        }
      ],
      "stateMutability": "view",
      "type": "function"
    },
    {
      "inputs": [],
      "name": "FREQUENCY_432",
      "outputs": [
        {
          "internalType": "uint256",
          "name": "",
          "type": "uint256"
        }
      ],
      "stateMutability": "view",
      "type": "function"
    },
    {
      "inputs": [],
      "name": "VORTEX_369",
      "outputs": [
        {
          "internalType": "uint256",
          "name": "",
          "type": "uint256"
        }
      ],
      "stateMutability": "view",
      "type": "function"
    },
    {
      "inputs": [
        {
          "internalType": "bytes32",
          "name": "vectorHash",
          "type": "bytes32"
        },
        {
          "internalType": "string",
          "name": "decree",
          "type": "string"
        },
        {
          "internalType": "uint256",
          "name": "resonance",
          "type": "uint256"
        }
      ],
      "name": "amplifyDecree",
      "outputs": [],
      "stateMutability": "nonpayable",
      "type": "function"
    },
    {
      "inputs": [],
      "name": "getSacredNumbers",
      "outputs": [
        {
          "internalType": "uint256",
          "name": "apex",
          "type": "uint256"
        },
        {
          "internalType": "uint256",
          "name": "vortex",
          "type": "uint256"
        },
        {
          "internalType": "uint256",
          "name": "code",
          "type": "uint256"
        },
        {
          "internalType": "uint256",
          "name": "frequency",
          "type": "uint256"
        }
      ],
      "stateMutability": "pure",
      "type": "function"
    },
    {
      "inputs": [
        {
          "internalType": "bytes32",
          "name": "vectorHash",
          "type": "bytes32"
        }
      ],
      "name": "getVector",
      "outputs": [
        {
          "internalType": "string",
          "name": "intent",
          "type": "string"
        },
        {
          "internalType": "address",
          "name": "creator",
          "type": "address"
        },
        {
          "internalType": "uint256",
          "name": "timestamp",
          "type": "uint256"
        },
        {
          "internalType": "uint256",
          "name": "dimensions",
          "type": "uint256"
        },
        {
          "internalType": "bool",
          "name": "exists",
          "type": "bool"
        }
      ],
      "stateMutability": "view",
      "type": "function"
    },
    {
      "inputs": [],
      "name": "owner",
      "outputs": [
        {
          "internalType": "address",
          "name": "",
          "type": "address"
        }
      ],
      "stateMutability": "view",
      "type": "function"
    },
    {
      "inputs": [
        {
          "internalType": "bytes32",
          "name": "vectorHash",
          "type": "bytes32"
        },
        {
          "internalType": "address",
          "name": "recipient",
          "type": "address"
        },
        {
          "internalType": "uint256",
          "name": "amount",
          "type": "uint256"
        }
      ],
      "name": "recordMintTrigger",
      "outputs": [],
      "stateMutability": "nonpayable",
      "type": "function"
    },
    {
      "inputs": [
        {
          "internalType": "bytes32",
          "name": "vectorHash",
          "type": "bytes32"
        },
        {
          "internalType": "string",
          "name": "intent",
          "type": "string"
        },
        {
          "internalType": "uint256",
          "name": "dimensions",
          "type": "uint256"
        }
      ],
      "name": "registerVector",
      "outputs": [
        {
          "internalType": "bool",
          "name": "",
          "type": "bool"
        }
      ],
      "stateMutability": "nonpayable",
      "type": "function"
    },
    {
      "inputs": [
        {
          "internalType": "bytes32",
          "name": "vectorHash",
          "type": "bytes32"
        },
        {
          "internalType": "uint256",
          "name": "amount",
          "type": "uint256"
        }
      ],
      "name": "sealBurn",
      "outputs": [],
      "stateMutability": "nonpayable",
      "type": "function"
    },
    {
      "inputs": [],
      "name": "totalVectors",
      "outputs": [
        {
          "internalType": "uint256",
          "name": "",
          "type": "uint256"
        }
      ],
      "stateMutability": "view",
      "type": "function"
    },
    {
      "inputs": [
        {
          "internalType": "address",
          "name": "newOwner",
          "type": "address"
        }
      ],
      "name": "transferOwnership",
      "outputs": [],
      "stateMutability": "nonpayable",
      "type": "function"
    },
    {
      "inputs": [
        {
          "internalType": "uint256",
          "name": "",
          "type": "uint256"
        }
      ],
      "name": "vectorHashes",
      "outputs": [
        {
          "internalType": "bytes32",
          "name": "",
          "type": "bytes32"
        }
      ],
      "stateMutability": "view",
      "type": "function"
    },
    {
      "inputs": [
        {
          "internalType": "bytes32",
          "name": "",
          "type": "bytes32"
        }
      ],
      "name": "vectors",
      "outputs": [
        {
          "internalType": "bytes32",
          "name": "vectorHash",
          "type": "bytes32"
        },
        {
          "internalType": "string",
          "name": "intent",
          "type": "string"
        },
        {
          "internalType": "address",
          "name": "creator",
          "type": "address"
        },
        {
          "internalType": "uint256",
          "name": "timestamp",
          "type": "uint256"
        },
        {
          "internalType": "uint256",
          "name": "dimensions",
          "type": "uint256"
        },
        {
          "internalType": "bool",
          "name": "exists",
          "type": "bool"
        }
      ],
      "stateMutability": "view",
      "type": "function"
    },
    {
      "inputs": [
        {
          "internalType": "bytes32",
          "name": "vectorHash",
          "type": "bytes32"
        }
      ],
      "name": "verifyVector",
      "outputs": [
        {
          "internalType": "bool",
          "name": "",
          "type": "bool"
        }
      ],
      "stateMutability": "view",
      "type": "function"
    }
  ],
  "bytecode": "0x608060405234801561001057600080fd5b50600280546001600160a01b03191633179055610d15806100326000396000f3fe608060405234801561001057600080fd5b50600436106101005760003560e01c8063c443658711610097578063e6268dd511610066578063e6268dd514610249578063e810ca4e1461025c578063f2fde38b14610265578063f372eb101461027857600080fd5b8063c4436587146101d3578063cba99aba146101f7578063cf6c7bf31461021a578063e121bcfe1461022357600080fd5b80636c95a02f116100d35780636c95a02f146101845780638da5cb5b1461018d578063a40ef306146101b8578063a8aa5bcf146101c057600080fd5b806320f51e4d146101055780632d1f503f1461012057806336962304146101355780635e55d9771461015a575b600080fd5b61010d604281565b6040519081526020015b60405180910390f35b61013361012e3660046108e1565b61028b565b005b610148610143366004610963565b610311565b604051610117969594939291906109c2565b604080516103a8815261017160208201526042918101919091526101b06060820152608001610117565b61010d6103a881565b6002546101a0906001600160a01b031681565b6040516001600160a01b039091168152602001610117565b60015461010d565b61010d6101ce366004610963565b6103dc565b6101e66101e1366004610963565b6103fd565b604051610117959493929190610a0b565b61020a6102053660046108e1565b61052d565b6040519015158152602001610117565b61010d6101b081565b61020a610231366004610963565b60009081526020819052604090206005015460ff1690565b610133610257366004610a4d565b610737565b61010d61017181565b610133610273366004610a8b565b6107a3565b610133610286366004610aad565b610867565b60008481526020819052604090206005015460ff166102c55760405162461bcd60e51b81526004016102bc90610ae2565b60405180910390fd5b336001600160a01b0316847f168026e9b3596bb95b3fbbbae07d0ef97010257d8d809a123a055a24a95df8bc85858560405161030393929190610b35565b60405180910390a350505050565b6000602081905290815260409020805460018201805491929161033390610b59565b80601f016020809104026020016040519081016040528092919081815260200182805461035f90610b59565b80156103ac5780601f10610381576101008083540402835291602001916103ac565b820191906000526020600020905b81548152906001019060200180831161038f57829003601f168201915b5050505060028301546003840154600485015460059095015493946001600160a01b039092169390925060ff1686565b600181815481106103ec57600080fd5b600091825260209091200154905081565b606060008060008060008060008881526020019081526020016000206040518060c00160405290816000820154815260200160018201805461043e90610b59565b80601f016020809104026020016040519081016040528092919081815260200182805461046a90610b59565b80156104b75780601f1061048c576101008083540402835291602001916104b7565b820191906000526020600020905b81548152906001019060200180831161049a57829003601f168201915b505050918352505060028201546001600160a01b03166020808301919091526003830154604080840191909152600484015460608085019190915260059094015460ff1615156080938401529084015190840151928401519184015160a090940151909b929a5090985091965090945092505050565b60008481526020819052604081206005015460ff161561058f5760405162461bcd60e51b815260206004820152601960248201527f566563746f7220616c726561647920726567697374657265640000000000000060448201526064016102bc565b600082116105d45760405162461bcd60e51b8152602060048201526012602482015271496e76616c69642064696d656e73696f6e7360701b60448201526064016102bc565b6040518060c0016040528086815260200185858080601f01602080910402602001604051908101604052809392919081815260200183838082843760009201829052509385525050336020808501919091524260408086019190915260608501889052600160809095018590528a845283825290922084518155918401519192830191610662915082610bf8565b506040828101516002830180546001600160a01b0319166001600160a01b03909216919091179055606083015160038301556080830151600483015560a0909201516005909101805460ff19169115159190911790556001805480820182556000919091527fb10e2d527612073b26eecdfd717e6a320cf44b4afac2b0732d9fcbe2b7fa0cf60186905551339086907f3a22ddda2b185261c2e0a9538217c0f9b313bbdbf6be2c3d8cc5893e5b1c18fd90610724908890889042908990610cb8565b60405180910390a3506001949350505050565b60008281526020819052604090206005015460ff166107685760405162461bcd60e51b81526004016102bc90610ae2565b604051818152339083907f2e195f1f45d6edb7b8e6a6e9e630bc68d75aed2d392e27bd04d9cf20e68126429060200160405180910390a35050565b6002546001600160a01b031633146107fd5760405162461bcd60e51b815260206004820152601760248201527f4f6e6c79207468652043726f776e20636f6d6d616e647300000000000000000060448201526064016102bc565b6001600160a01b0381166108455760405162461bcd60e51b815260206004820152600f60248201526e496e76616c6964206164647265737360881b60448201526064016102bc565b600280546001600160a01b0319166001600160a01b0392909216919091179055565b60008381526020819052604090206005015460ff166108985760405162461bcd60e51b81526004016102bc90610ae2565b816001600160a01b0316837ffb36d7db0106518722bc161127111f841aee35dbb29a3132b6f726fa4f0bea27836040516108d491815260200190565b60405180910390a3505050565b600080600080606085870312156108f757600080fd5b84359350602085013567ffffffffffffffff8082111561091657600080fd5b818701915087601f83011261092a57600080fd5b81358181111561093957600080fd5b88602082850101111561094b57600080fd5b95986020929092019750949560400135945092505050565b60006020828403121561097557600080fd5b5035919050565b6000815180845260005b818110156109a257602081850181015186830182015201610986565b506000602082860101526020601f19601f83011685010191505092915050565b86815260c0602082015260006109db60c083018861097c565b6001600160a01b039690961660408301525060608101939093526080830191909152151560a09091015292915050565b60a081526000610a1e60a083018861097c565b6001600160a01b0396909616602083015250604081019390935260608301919091521515608090910152919050565b60008060408385031215610a6057600080fd5b50508035926020909101359150565b80356001600160a01b0381168114610a8657600080fd5b919050565b600060208284031215610a9d57600080fd5b610aa682610a6f565b9392505050565b600080600060608486031215610ac257600080fd5b83359250610ad260208501610a6f565b9150604084013590509250925092565b60208082526010908201526f159958dd1bdc881b9bdd08199bdd5b9960821b604082015260600190565b81835281816020850137506000828201602090810191909152601f909101601f19169091010190565b604081526000610b49604083018587610b0c565b9050826020830152949350505050565b600181811c90821680610b6d57607f821691505b602082108103610b8d57634e487b7160e01b600052602260045260246000fd5b50919050565b634e487b7160e01b600052604160045260246000fd5b601f821115610bf357600081815260208120601f850160051c81016020861015610bd05750805b601f850160051c820191505b81811015610bef57828155600101610bdc565b5050505b505050565b815167ffffffffffffffff811115610c1257610c12610b93565b610c2681610c208454610b59565b84610ba9565b602080601f831160018114610c5b5760008415610c435750858301515b600019600386901b1c1916600185901b178555610bef565b600085815260208120601f198616915b82811015610c8a57888601518255948401946001909101908401610c6b565b5085821015610ca85787850151600019600388901b60f8161c191681555b5050505050600190811b01905550565b606081526000610ccc606083018688610b0c565b602083019490945250604001529291505056fea26469706673582212208c1e3c06481d07d6b1c9ac3418aebdd2d8e83c609faf91aca073baee277734fc64736f6c63430008140033",
  "linkReferences": {},
  "deployedLinkReferences": {}
}