{
  "_format": "hh-sol-artifact-1",
  "contractName": "VectorRegistry",
  "sourceName": "contracts/VectorRegistry.sol",
  "abi": [
    {
      "inputs": [],
      "stateMutability": "nonpayable",
      "type": "constructor"
    },
    {
      "anonymous": false,
      "inputs": [
        {
          "indexed": true,
          "internalType": "bytes32",
          "name": "vectorHash",
          "type": "bytes32"
        },
        {
          "indexed": true,
          "internalType": "address",
          "name": "burner",
          "type": "address"
        },
        {
          "indexed": false,
          "internalType": "uint256",
          "name": "amount",
          "type": "uint256"
        }
      ],
      "name": "BurnSealed",
      "type": "event"
    },
    {
      "anonymous": false,
      "inputs": [
        {
          "indexed": true,
          "internalType": "bytes32",
          "name": "vectorHash",
          "type": "bytes32"
        },
        {
          "indexed": false,
          "internalType": "string",
          "name": "decree",
          "type": "string"
        },
        {
          "indexed": true,
          "internalType": "address",
          "name": "amplifier",
          "type": "address"
        },
        {
          "indexed": false,
          "internalType": "uint256",
          "name": "resonance",
          "type": "uint256"
        }
      ],
      "name": "DecreeAmplified",
      "type": "event"
    },
    {
      "anonymous": false,
      "inputs": [
        {
          "indexed": true,
          "internalType": "bytes32",
          "name": "vectorHash",
          "type": "bytes32"
        },
        {
          "indexed": true,
          "internalType": "address",
          "name": "recipient",
          "type": "address"
        },
        {
          "indexed": false,
          "internalType": "uint256",
          "name": "amount",
          "type": "uint256"
        }
      ],
      "name": "MintTriggered",
      "type": "event"
    },
    {
      "anonymous": false,
      "inputs": [
        {
          "indexed": true,
          "internalType": "bytes32",
          "name": "vectorHash",
          "type": "bytes32"
        },
        {
          "indexed": false,
          "internalType": "string",
          "name": "intent",
          "type": "string"
        },
        {
          "indexed": true,
          "internalType": "address",
          "name": "creator",
          "type": "address"
        },
        {
          "indexed": false,
          "internalType": "uint256",
          "name": "timestamp",
          "type": "uint256"
        },
        {
          "indexed": false,
          "internalType": "uint256",
          "name": "dimensions",
          "type": "uint256"
        }
      ],
      "name": "VectorRegistered",
      "type": "event"
    },
    {
      "inputs": [],
      "name": "APEX_936",
      "outputs": [
        {
          "internalType": "uint256",
          "name": "",
          "type": "uint256"
        }
      ],
      "stateMutability": "view",
      "type": "function"
    },
    {
      "inputs": [],
      "name": "CODE_66",
      "outputs": [
        {
          "internalType": "uint256",
          "name": "",
          "type": "uint256"
        }
      ],
      "stateMutability": "view",
      "type": "function"
    },
    {
      "inputs": [],
      "name": "FREQUENCY_432",
      "outputs": [
        {
          "internalType": "uint256",
          "name": "",
          "type": "uint256"
        }
      ],
      "stateMutability": "view",
      "type": "function"
    },
    {
      "inputs": [],
      "name": "VORTEX_369",
      "outputs": [
        {
          "internalType": "uint256",
          "name": "",
          "type": "uint256"
        }
      ],
      "stateMutability": "view",
      "type": "function"
    },
    {
      "inputs": [
        {
          "internalType": "bytes32",
          "name": "vectorHash",
          "type": "bytes32"
        },
        {
          "internalType": "string",
          "name": "decree",
          "type": "string"
        },
        {
          "internalType": "uint256",
          "name": "resonance",
          "type": "uint256"
        }
      ],
      "name": "amplifyDecree",
      "outputs": [],
      "stateMutability": "nonpayable",
      "type": "function"
    },
    {
      "inputs": [],
      "name": "getSacredNumbers",
      "outputs": [
        {
          "internalType": "uint256",
          "name": "apex",
          "type": "uint256"
        },
        {
          "internalType": "uint256",
          "name": "vortex",
          "type": "uint256"
        },
        {
          "internalType": "uint256",
          "name": "code",
          "type": "uint256"
        },
        {
          "internalType": "uint256",
          "name": "frequency",
          "type": "uint256"
        }
      ],
      "stateMutability": "pure",
      "type": "function"
    },
    {
      "inputs": [
        {
          "internalType": "bytes32",
          "name": "vectorHash",
          "type": "bytes32"
        }
      ],
      "name": "getVector",
      "outputs": [
        {
          "internalType": "string",
          "name": "intent",
          "type": "string"
        },
        {
          "internalType": "address",
          "name": "creator",
          "type": "address"
        },
        {
          "internalType": "uint256",
          "name": "timestamp",
          "type": "uint256"
        },
        {
          "internalType": "uint256",
          "name": "dimensions",
          "type": "uint256"
        },
        {
          "internalType": "bool",
          "name": "exists",
          "type": "bool"
        }
      ],
      "stateMutability": "view",
      "type": "function"
    },
    {
      "inputs": [],
      "name": "owner",
      "outputs": [
        {
          "internalType": "address",
          "name": "",
          "type": "address"
        }
      ],
      "stateMutability": "view",
      "type": "function"
    },
    {
      "inputs": [
        {
          "internalType": "bytes32",
          "name": "vectorHash",
          "type": "bytes32"
        },
        {
          "internalType": "address",
          "name": "recipient",
          "type": "address"
        },
        {
          "internalType": "uint256",
          "name": "amount",
          "type": "uint256"
        }
      ],
      "name": "recordMintTrigger",
      "outputs": [],
      "stateMutability": "nonpayable",
      "type": "function"
    },
    {
      "inputs": [
        {
          "internalType": "bytes32",
          "name": "vectorHash",
          "type": "bytes32"
        },
        {
          "internalType": "string",
          "name": "intent",
          "type": "string"
        },
        {
          "internalType": "uint256",
          "name": "dimensions",
          "type": "uint256"
        }
      ],
      "name": "registerVector",
      "outputs": [
        {
          "internalType": "bool",
          "name": "",
          "type": "bool"
        }
      ],
      "stateMutability": "nonpayable",
      "type": "function"
    },
    {
      "inputs": [
        {
          "internalType": "bytes32",
          "name": "vectorHash",
          "type": "bytes32"
        },
        {
          "internalType": "uint256",
          "name": "amount",
          "type": "uint256"
        }
      ],
      "name": "sealBurn",
      "outputs": [],
      "stateMutability": "nonpayable",
      "type": "function"
    },
    {
      "inputs": [],
      "name": "totalVectors",
      "outputs": [
        {
          "internalType": "uint256",
          "name": "",
          "type": "uint256"
        }
      ],
      "stateMutability": "view",
      "type": "function"
    },
    {
      "inputs": [
        {
          "internalType": "address",
          "name": "newOwner",
          "type": "address"
        }
      ],
      "name": "transferOwnership",
      "outputs": [],
      "stateMutability": "nonpayable",
      "type": "function"
    },
    {
      "inputs": [
        {
          "internalType": "uint256",
          "name": "",
          "type": "uint256"
        }
      ],
      "name": "vectorHashes",
      "outputs": [
        {
          "internalType": "bytes32",
          "name": "",
          "type": "bytes32"
        }
      ],
      "stateMutability": "view",
      "type": "function"
    },
    {
      "inputs": [
        {
          "internalType": "bytes32",
          "name": "",
          "type": "bytes32"
        }
      ],
      "name": "vectors",
      "outputs": [
        {
          "internalType": "bytes32",
          "name": "vectorHash",
          "type": "bytes32"
        },
        {
          "internalType": "string",
          "name": "intent",
          "type": "string"
        },
        {
          "internalType": "address",
          "name": "creator",
          "type": "address"
        },
        {
          "internalType": "uint256",
          "name": "timestamp",
          "type": "uint256"
        },
        {
          "internalType": "uint256",
          "name": "dimensions",
          "type": "uint256"
        },
        {
          "internalType": "bool",
          "name": "exists",
          "type": "bool"
        }
      ],
      "stateMutability": "view",
      "type": "function"
    },
    {
      "inputs": [
        {
          "internalType": "bytes32",
          "name": "vectorHash",
          "type": "bytes32"
        }
      ],
      "name": "verifyVector",
      "outputs": [
        {
          "internalType": "bool",
          "name": "",
          "type": "bool"
        }
      ],
      "stateMutability": "view",
      "type": "function"
    }
  ],
  "bytecode": "0x608060405234801561000f575f80fd5b50600280546001600160a01b03191633179055610cda8061002f5f395ff3fe608060405234801561000f575f80fd5b50600436106100fb575f3560e01c8063c443658711610093578063e6268dd511610063578063e6268dd514610242578063e810ca4e14610255578063f2fde38b1461025e578063f372eb1014610271575f80fd5b8063c4436587146101cd578063cba99aba146101f1578063cf6c7bf314610214578063e121bcfe1461021d575f80fd5b80636c95a02f116100ce5780636c95a02f1461017e5780638da5cb5b14610187578063a40ef306146101b2578063a8aa5bcf146101ba575f80fd5b806320f51e4d146100ff5780632d1f503f1461011a578063369623041461012f5780635e55d97714610154575b5f80fd5b610107604281565b6040519081526020015b60405180910390f35b61012d6101283660046108c6565b610284565b005b61014261013d366004610941565b610309565b6040516101119695949392919061099b565b604080516103a8815261017160208201526042918101919091526101b06060820152608001610111565b6101076103a881565b60025461019a906001600160a01b031681565b6040516001600160a01b039091168152602001610111565b600154610107565b6101076101c8366004610941565b6103d1565b6101e06101db366004610941565b6103f0565b6040516101119594939291906109e3565b6102046101ff3660046108c6565b610518565b6040519015158152602001610111565b6101076101b081565b61020461022b366004610941565b5f9081526020819052604090206005015460ff1690565b61012d610250366004610a24565b61071e565b61010761017181565b61012d61026c366004610a5f565b610789565b61012d61027f366004610a7f565b61084d565b5f8481526020819052604090206005015460ff166102bd5760405162461bcd60e51b81526004016102b490610ab1565b60405180910390fd5b336001600160a01b0316847f168026e9b3596bb95b3fbbbae07d0ef97010257d8d809a123a055a24a95df8bc8585856040516102fb93929190610b03565b60405180910390a350505050565b5f602081905290815260409020805460018201805491929161032a90610b26565b80601f016020809104026020016040519081016040528092919081815260200182805461035690610b26565b80156103a15780601f10610378576101008083540402835291602001916103a1565b820191905f5260205f20905b81548152906001019060200180831161038457829003601f168201915b5050505060028301546003840154600485015460059095015493946001600160a01b039092169390925060ff1686565b600181815481106103e0575f80fd5b5f91825260209091200154905081565b60605f805f805f805f8881526020019081526020015f206040518060c00160405290815f820154815260200160018201805461042b90610b26565b80601f016020809104026020016040519081016040528092919081815260200182805461045790610b26565b80156104a25780601f10610479576101008083540402835291602001916104a2565b820191905f5260205f20905b81548152906001019060200180831161048557829003601f168201915b505050918352505060028201546001600160a01b03166020808301919091526003830154604080840191909152600484015460608085019190915260059094015460ff1615156080938401529084015190840151928401519184015160a090940151909b929a5090985091965090945092505050565b5f8481526020819052604081206005015460ff16156105795760405162461bcd60e51b815260206004820152601960248201527f566563746f7220616c726561647920726567697374657265640000000000000060448201526064016102b4565b5f82116105bd5760405162461bcd60e51b8152602060048201526012602482015271496e76616c69642064696d656e73696f6e7360701b60448201526064016102b4565b6040518060c0016040528086815260200185858080601f0160208091040260200160405190810160405280939291908181526020018383808284375f9201829052509385525050336020808501919091524260408086019190915260608501889052600160809095018590528a84528382529092208451815591840151919283019161064a915082610bbe565b506040828101516002830180546001600160a01b0319166001600160a01b03909216919091179055606083015160038301556080830151600483015560a0909201516005909101805460ff19169115159190911790556001805480820182555f919091527fb10e2d527612073b26eecdfd717e6a320cf44b4afac2b0732d9fcbe2b7fa0cf60186905551339086907f3a22ddda2b185261c2e0a9538217c0f9b313bbdbf6be2c3d8cc5893e5b1c18fd9061070b908890889042908990610c7e565b60405180910390a3506001949350505050565b5f8281526020819052604090206005015460ff1661074e5760405162461bcd60e51b81526004016102b490610ab1565b604051818152339083907f2e195f1f45d6edb7b8e6a6e9e630bc68d75aed2d392e27bd04d9cf20e68126429060200160405180910390a35050565b6002546001600160a01b031633146107e35760405162461bcd60e51b815260206004820152601760248201527f4f6e6c79207468652043726f776e20636f6d6d616e647300000000000000000060448201526064016102b4565b6001600160a01b03811661082b5760405162461bcd60e51b815260206004820152600f60248201526e496e76616c6964206164647265737360881b60448201526064016102b4565b600280546001600160a01b0319166001600160a01b0392909216919091179055565b5f8381526020819052604090206005015460ff1661087d5760405162461bcd60e51b81526004016102b490610ab1565b816001600160a01b0316837ffb36d7db0106518722bc161127111f841aee35dbb29a3132b6f726fa4f0bea27836040516108b991815260200190565b60405180910390a3505050565b5f805f80606085870312156108d9575f80fd5b84359350602085013567ffffffffffffffff808211156108f7575f80fd5b818701915087601f83011261090a575f80fd5b813581811115610918575f80fd5b886020828501011115610929575f80fd5b95986020929092019750949560400135945092505050565b5f60208284031215610951575f80fd5b5035919050565b5f81518084525f5b8181101561097c57602081850181015186830182015201610960565b505f602082860101526020601f19601f83011685010191505092915050565b86815260c060208201525f6109b360c0830188610958565b6001600160a01b039690961660408301525060608101939093526080830191909152151560a09091015292915050565b60a081525f6109f560a0830188610958565b6001600160a01b0396909616602083015250604081019390935260608301919091521515608090910152919050565b5f8060408385031215610a35575f80fd5b50508035926020909101359150565b80356001600160a01b0381168114610a5a575f80fd5b919050565b5f60208284031215610a6f575f80fd5b610a7882610a44565b9392505050565b5f805f60608486031215610a91575f80fd5b83359250610aa160208501610a44565b9150604084013590509250925092565b60208082526010908201526f159958dd1bdc881b9bdd08199bdd5b9960821b604082015260600190565b81835281816020850137505f828201602090810191909152601f909101601f19169091010190565b604081525f610b16604083018587610adb565b9050826020830152949350505050565b600181811c90821680610b3a57607f821691505b602082108103610b5857634e487b7160e01b5f52602260045260245ffd5b50919050565b634e487b7160e01b5f52604160045260245ffd5b601f821115610bb957805f5260205f20601f840160051c81016020851015610b975750805b601f840160051c820191505b81811015610bb6575f8155600101610ba3565b50505b505050565b815167ffffffffffffffff811115610bd857610bd8610b5e565b610bec81610be68454610b26565b84610b72565b602080601f831160018114610c1f575f8415610c085750858301515b5f19600386901b1c1916600185901b178555610c76565b5f85815260208120601f198616915b82811015610c4d57888601518255948401946001909101908401610c2e565b5085821015610c6a57878501515f19600388901b60f8161c191681555b505060018460011b0185555b505050505050565b606081525f610c91606083018688610adb565b602083019490945250604001529291505056fea264697066735822122070ea284d5b443901f426682215b19db33cacab334728e28f9fb3742b91b3fb0364736f6c63430008180033",
  "linkReferences": {},
  "deployedLinkReferences": {}
}